:040000006BEF00F0B2
:0E0008003C82FACF05F0FBCF06F0E8EF0BF0DC
:100018003C80D8CF13F0E8CF14F0E0CF15F0FACF3A
:1000280016F0FBCF17F0E9CF18F0EACF19F0E1CFBF
:100038001AF0E2CF1BF0D9CF1CF0DACF1DF0F3CFC6
:100048001EF0F4CF1FF0F6CF20F0F7CF21F0F8CF55
:1000580022F0F5CF23F09EAA16D03A50010DE60EF5
:10006800F324D96E010EF420DA6EAECFDFFF010E55
:100078000101F66F0F0E3A18D8A403D0000E3A6E9D
:1000880001D03A2A9E9A23C0F5FF22C0F8FF21C06A
:10009800F7FF20C0F6FF1FC0F4FF1EC0F3FF1DC00E
:1000A800DAFF1CC0D9FF1BC0E2FF1AC0E1FF19C06C
:1000B800EAFF18C0E9FF17C0FBFF16C0FAFF15C01A
:1000C800E0FF14C0E8FF13C0D8FF3C9010005BEFBE
:0200D8000EF028
:100300000001000A006400E80310272020202020BC
:1003100020253034642C2025303464002020202017
:100320002020496E657274204D6F64650020202086
:1003300020205363616E495200476F696E67204801
:100340006F6D6500536561726368696E67000000D8
:10035000000E0101CE6F000E0101CD6F22EE00F004
:1003600011EE5AF0630EDBCFE3FFE806FCE220EE6D
:10037000BFF011EE28F0310EDBCFE3FFE806FCE220
:10038000000E0101CF6FE2C1C9F1E3C1CAF1E4C1BE
:10039000CBF1E5C1CCF13C0E0101C86FF28EF28CBD
:1003A000F28CD08E9F9A9D8A9486F2889E9AF292C1
:1003B000000E0101D06F010E0101D16F790E010114
:1003C000D26F0F0E0101D36F780E0101D46F0F0EA3
:1003D0000101D56F000E0101D66F000E0101D86F2B
:1003E000C70ED76F000E0101D96F010E0101DA6F40
:1003F000770E0101DB6F0F0E0101DC6F760E01013C
:10040000DD6F0F0E0101DE6F020E0101DF6F000EC6
:100410000101E16FC70EE06F720ED36ED3B458D3F3
:10042000FDD7D00E0001626F010E0001636FD90E7F
:100430000001646F010E0001656F9EEC0BF0000E71
:100440000101F66FE8EC0CF024C0C9F125C0CAF137
:10045000AFEC0CF024C0CBF125C0CCF1000E696EDE
:10046000000E686E000E676E000E666E000E286E3F
:10047000010EA7EC0EF0210EE82EFED700F0000EC4
:10048000286E020EA7EC0EF0060E0001BA6F300EB9
:10049000E82EFED7BA2FFCD700D0010E8FEC0EF05D
:1004A0001C0E2A6E030E2B6E21EC0DF0020E8FEC4B
:1004B0000EF00101F651D8B407D0BE0E2A6E010E1F
:1004C0002B6E21EC0DF004D3000E306E010E316E58
:1004D0000B0E326E030E336EC9C134F0CAC135F053
:1004E000CBC136F0CCC137F040EC08F0000E2A6EDC
:1004F000010E2B6E21EC0DF0EBD276EC0EF013EC2E
:100500000FF005EC0FF040EC0BF0E5EC0EF0010EF7
:10051000246E000EBFEC0EF0010E246E010EBFEC37
:100520000EF0D00E0001626F010E0001636FD90E54
:100530000001646F010E0001656F640E0001666FBB
:100540006FEC0CF0010E23EC0EF0C1D2010E8FEC1B
:100550000EF0440E2A6E030E2B6E21EC0DF00101FD
:10056000CD29D8A43ED00101CF51010D280EF3248E
:10057000D96E010EF420DA6E000EDF6E0101CF514C
:10058000020D5A0EF324D96E010EF420DA6E060E17
:10059000DE6E000EDD6E0101CF2BD00E0001626F0A
:1005A000010E0001636FD90E0001646F010E00019E
:1005B000656F640E0001666F6FEC0CF0060E23ECA5
:1005C0000EF0D00E0001626F010E0001636FD90EB4
:1005D0000001646F010E0001656F9EEC0BF0000ED0
:1005E00042D00101CD510101D8A42BD0D00E000181
:1005F0006D6F010E00016E6FD90E00016F6F010E5D
:100600000001706FC8C171F00001726B5A0E0001D9
:10061000736F010E0001746FCF0E0001756F010E34
:100620000001766F280E0001776F010E0001786FD0
:10063000F60E0001796F010E00017A6F79EC05F07A
:1006400012D00101CD05D8A411D0D00E00016D6FDC
:10065000010E00016E6FD90E00016F6F010E0001D7
:10066000706F60EC0AF00101CD6F32D2020E010111
:10067000CD19D8A42DD2020E3B6E0101CF51010D30
:10068000280EF324D96E010EF420DA6E010EDF6E0F
:100690001FD20101F651D8B4A2D0D00E0001626F72
:1006A000010E0001636FD90E0001646F010E00019D
:1006B000656F9EEC0BF0030E0101F519D8A402D072
:1006C000010E01D0000E0001BA6F020E0101E61901
:1006D000D8A402D0010E01D0000E0001BA15E8A086
:1006E000F7D1E60E246E010E256E50EC0DF00009D8
:1006F000D8B441D0000E0101CE6F090E0101CE65C4
:1007000001D020D00101CE510001BA6FBB6B010EA8
:100710000001BA27000EBB23E60E0001BA25D96EF0
:10072000010E0001BB21DA6E0101CE51010DBE0E9A
:10073000F324E16E010EF420E26EDFCFE7FF01014A
:10074000CE2BDBD7000E0101CE6F0F0E0101CE655F
:1007500001D00ED00101CE51010DE60EF324D96E69
:10076000010EF420DA6E000EDF6E0101CE2BEDD704
:10077000030E3B6EADD1D00E0001676F010E00017C
:10078000686FD90E0001696F010E00016A6F640E77
:1007900000016B6FC6EC0DF0050E23EC0EF0D00ED1
:1007A0000001626F010E0001636FD90E0001646FDA
:1007B000010E0001656F9EEC0BF0D00E0001626F20
:1007C000010E0001636FD90E0001646F010E00017C
:1007D000656F640E0001666F6FEC0CF079D1010E4D
:1007E0000101CD6F010E3B6ED00E0001626F010E54
:1007F0000001636FD90E0001646F010E0001656F87
:10080000640E0001666F6FEC0CF0050E23EC0EF029
:100810000101CF51010D280EF324D96E010EF420F1
:10082000DA6E000EDF6E0101CF51020D5A0EF32475
:10083000D96E010EF420DA6E050EDE6E000EDD6E4E
:100840000101CF2B45D1010E8FEC0EF0BE0E2A6EAA
:10085000010E2B6E21EC0DF0020E8FEC0EF0390E16
:100860002A6E030E2B6E21EC0DF0D00E0001626F8C
:10087000010E0001636FD90E0001646F010E0001CB
:10088000656F9EEC0BF00101CF51010D280EF32492
:10089000D96E010EF420DA6EDF50D8A41ED0D00E2F
:1008A0000001676F010E0001686FD90E0001696FCA
:1008B000010E00016A6F640E00016B6FC6EC0DF053
:1008C0000101CF51020D5A0EF324D96E010EF4200E
:1008D000DA6EDF5023EC0EF0F7D00101CF51010D9D
:1008E000280EF324D96E010EF420DA6EDE04D8A4AB
:1008F00091D0D59E000ED66E000ED76E0101CF515D
:10090000020D5A0EF324D96E010EF420DA6E010E98
:10091000DBBE3DD0010EDB5003E1DE04D8A037D0B2
:10092000D58ED00E0001676F010E0001686FD90EE1
:100930000001696F010E00016A6F280E00016B6FE4
:10094000E5EC0DF00101CF51020D5A0EF324D96EE2
:10095000010EF420DA6ED650D7CFBCF00001BD6B8B
:10096000BCC0BDF00001BC6B0001BC27000EBD2364
:10097000DE500001BC5D0001BD51800A0001BE6F68
:10098000DE50800A0001BE59D8A0DCD741D0D58EF8
:10099000D00E0001676F010E0001686FD90E0001D3
:1009A000696F010E00016A6F280E00016B6F04EC85
:1009B0000EF00101CF51020D5A0EF324D96E010E33
:1009C000F420DA6EDECFBAF0DDCFBBF00001BA1F43
:1009D000BB1FBA4BBB2BD650D7CFBCF00001BD6BB1
:1009E000BCC0BDF00001BC6B0001BC27000EBD23E4
:1009F0000001BA510001BC5D0001BD51800A000137
:100A0000BE6F0001BB51800A0001BE59D8A0D1D7EA
:100A1000D59E5AD00101CF51010D280EF324D96E75
:100A2000010EF420DA6E020EDE18D8A44DD00101BA
:100A3000CF51020D5A0EF324D96E010EF420DA6E56
:100A4000010EDBBE24D0010EDB5003E1DE04D8A092
:100A50001ED0D00E0001676F010E0001686FD90E25
:100A60000001696F010E00016A6F640E00016B6F77
:100A7000E5EC0DF00101CF51020D5A0EF324D96EB1
:100A8000010EF420DA6EDF5023EC0EF01DD0D00EF4
:100A90000001676F010E0001686FD90E0001696FD8
:100AA000010E00016A6F640E00016B6F04EC0EF022
:100AB0000101CF51020D5A0EF324D96E010EF4201C
:100AC000DA6EDF5023EC0EF00101CF07CED63B6883
:100AD0003B50000AD8B411D5010AD8B437D5030A5F
:100AE000D8B4D7D5010AD8B4AED6FC0AD8B499D4B4
:100AF000EFD7F5C0B4F0F6C0B5F0F7C0B6F0F8C067
:100B0000B7F0000E0001B26F000EB16F000E0001D1
:100B1000B96F000EB86F000E0001AB6F000EAA6F28
:100B2000000E0001A96F000EA86F000E0001B36F48
:100B3000030E0001AD6FE80EAC6F280E0001AE6F22
:100B4000020E0001AF6F010E0001B06F75C0D9FF3A
:100B500076C0DAFFDF5000017B6F00017B51010D91
:100B6000F35000017725D96EF45000017821DA6E38
:100B7000020EDF6E0001AF5100017B6F7C6B75C010
:100B8000D9FF76C0DAFFDF5000017D6F00017D5193
:100B9000020DF35000017325D96EF4500001742149
:100BA000DA6E7BC0DEFF7CC0DDFF75C0D9FF76C08A
:100BB000DAFFDF5000017B6F00017B2975C0D9FF90
:100BC00076C0DAFFDF6E6DC067F06EC068F06FC090
:100BD00069F070C06AF0640E00016B6F04EC0EF0F7
:100BE0000001AF5123EC0EF06DC062F06EC063F0F7
:100BF0006FC064F070C065F09EEC0BF06DC067F0E4
:100C00006EC068F06FC069F070C06AF0AEC06BF083
:100C1000E5EC0DF0000ED66E000ED76ED58E000EF0
:100C20000001AB6F010EAA6FCDD1E8EC0CF024C02F
:100C3000B4F025C0B5F0AFEC0CF024C0B6F025C080
:100C4000B7F0000E696E000E686E000E676E000E43
:100C5000666E000E286E010EA7EC0EF0210EE82E37
:100C6000FED700F0000E286E020EA7EC0EF0060E66
:100C700000017B6F300EE82EFED77B2FFCD700D013
:100C8000010E8FEC0EF02D0E2A6E030E2B6E21EC52
:100C90000DF0020E8FEC0EF0800E306E000E316EF5
:100CA0000C0E326E030E336EB4C034F0B5C035F0A6
:100CB000B6C036F0B7C037F040EC08F0800E2A6EB0
:100CC000000E2B6E21EC0DF00001B6510001AC5D61
:100CD0000001B7510001AD59D8B00ED0D750000176
:100CE0007C6F7B6BD65000017B250001B86F000E36
:100CF00000017C210001B96F0001B4510001AC5D1D
:100D00000001B5510001AD59D8B00ED0D750000147
:100D10007C6F7B6BD65000017B250001B16F000E0C
:100D200000017C210001B26F0001B1510001B2113C
:100D3000D8B43CD10001B8510001B911D8B499D050
:100D40000001B85100080001B1250001B36F000E89
:100D5000D66E000ED76E6DC062F06EC063F06FC0CD
:100D600064F070C065F09EEC0BF00CD06DC067F0C5
:100D70006EC068F06FC069F070C06AF0AEC06BF012
:100D800004EC0EF00001D890B33100017B6F7C6B56
:100D9000D650D7CF7DF000017E6B7DC07EF0000184
:100DA0007D6B00017D27000E7E2300017B51000139
:100DB0007D5D00017E51800A00017F6F00017C5142
:100DC000800A00017F59D8A0D1D7D59E6DC062F0AE
:100DD0006EC063F06FC064F070C065F09EEC0BF005
:100DE00075C0D9FF76C0DAFFDF5000017B6F0001CC
:100DF0007B51010DF35000017725D96EF4500001AD
:100E00007821DA6E010EDF6EB3C07BF00001D8905E
:100E10007B3300017B510001B82500017C6F000E7F
:100E20000001B92100017D6F75C0D9FF76C0DAFFDE
:100E3000DF5000017E6F00017E51020DF350000172
:100E40007325D96EF45000017421DA6E7CC0DEFF88
:100E50007DC0DDFF75C0D9FF76C0DAFFDF5000012D
:100E60007B6F00017B2975C0D9FF76C0DAFFDF6E8A
:100E70009BD0D59E75C0D9FF76C0DAFFDF50000148
:100E80007B6F00017B51010DF35000017725D96E76
:100E9000F45000017821DA6E010EDF6ED650D7CF04
:100EA0007BF000017C6B7BC07CF000017B6B000160
:100EB0007B27000E7C2375C0D9FF76C0DAFFDF5098
:100EC00000017D6F00017D51020DF350000173257B
:100ED000D96EF45000017421DA6E7BC0DEFF7CC055
:100EE000DDFF75C0D9FF76C0DAFFDF5000017B6FF0
:100EF00000017B2975C0D9FF76C0DAFFDF6E6DC0B7
:100F000062F06EC063F06FC064F070C065F09EEC7C
:100F10000BF06DC067F06EC068F06FC069F070C014
:100F20006AF0640E00016B6F04EC0EF00001B0512A
:100F300023EC0EF06DC062F06EC063F06FC064F021
:100F400070C065F09EEC0BF075C0D9FF76C0DAFF7B
:100F5000DF5000017B6F00017B51010DF350000158
:100F60007725D96EF45000017821DA6E020EDF6E1B
:100F70000001B05100017B6F7C6B75C0D9FF76C05A
:100F8000DAFFDF5000017D6F00017D51020DF3504B
:100F900000017325D96EF45000017421DA6E7BC014
:100FA000DEFF7CC0DDFF56D7020E120079C0D9FFEC
:100FB0007AC0DAFFDE04D8A402D0020E12000001CB
:100FC000AA4BAB2B0001AA510001715D0001AB518E
:100FD00000017259D8B029D675C0D9FF76C0DAFFA2
:100FE000DF5000017B6F00017B51010DF3500001C8
:100FF0007725D96EF45000017821DA6E020EDF6E8B
:1010000075C0D9FF76C0DAFFDF5000017B6F0001A9
:101010007B51020DF35000017325D96EF45000018D
:101020007421DA6EFE0EDE6EFF0EDD6E75C0D9FF26
:1010300076C0DAFFDF5000017B6F00017B2975C0AD
:10104000D9FF76C0DAFFDF6E6DC067F06EC068F062
:101050006FC069F070C06AF0640E00016B6FE5EC60
:101060000DF0020E23EC0EF06DC062F06EC063F066
:101070006FC064F070C065F09EEC0BF0FF0E1200C4
:10108000340E0001646F000E0001656F68D1250EFB
:1010900000016C19D8B409D030C0D9FF31C0DAFFD3
:1010A0006CC0DFFF304A312A5AD1000E00016B6F4D
:1010B000000E6A6F000E0001696F04D0000169859F
:1010C000324A332A32C0F6FF33C0F7FF0800F5502A
:1010D000300AD8B4F3D732C0F6FF33C0F7FF0800A8
:1010E000F550F6EC0EF0D8A03ED0000E00016B6F6C
:1010F000000E6A6F6AC024F06BC025F0000E276EE8
:101100000A0E266ED2EC0EF024C06AF025C06BF0F9
:10111000D00E0001606FFF0E0001616F32C0F6FF5C
:1011200033C0F7FF0800F5500001626F636B0001E8
:101130006051000162270001615100016323000139
:10114000625100016A270001635100016B23324A9A
:10115000332A32C0F6FF33C0F7FF0800F550F6EC33
:101160000EF0D8B0C7D732C0F6FF33C0F7FF324A0F
:10117000332A0800F5CF6CF000016C51000AD8B496
:10118000FBD0640AD8B403D00D0AD8A4E8D064C058
:10119000D9FF65C0DAFFDECF67F0DDCF68F0020E61
:1011A00000016427000E6523000168AF08D0030E1C
:1011B000000169130001676D681FD8B0682B010E2C
:1011C00000016C6F050E00016C19D8B416D0000137
:1011D0006C51020D010EF324F66E030EF420F76E2F
:1011E0000900F5500001675D0900F55000016859DC
:1011F000D8A003D000016C2BE5D700016A51000193
:101200006B11D8B40BD069C060F0030E00016017F9
:10121000D8B404D000016A07D8A06B07800E000183
:101220006CBF7F0E0001606F00016A5100016C5DB0
:1012300000016B51800A00016059D8B00BD0000149
:101240006C5100016A5F000E00016CBFFF0E0001CF
:101250006B5B05D0000E00016B6F000E6A6F000122
:1012600069A522D069C060F0030E00016017D8B4F0
:1012700008D030C0D9FF31C0DAFF2D0EDF6E304A02
:10128000312A00016A5100016B11D8B434D030C04A
:10129000D9FF31C0DAFF300EDF6E304A312A00014B
:1012A0006A07D8A06B07EDD700016A5100016B11E6
:1012B000D8B412D030C0D9FF31C0DAFF200EDF6EB3
:1012C000304A312A00016A07D8A06B0700016A5131
:1012D00000016B11D8A4EED769C060F0030E0001C5
:1012E0006017D8B408D030C0D9FF31C0DAFF2D0E56
:1012F000DF6E304A312A6CC066F02BD00001665197
:10130000020D010EF324F66E030EF420F76E0900B1
:10131000F5CF26F00A00F5CF27F067C024F068C0AB
:1013200025F07CEC0DF024C02BF025C02CF0000E35
:101330002E6E0A0E2D6EA5EC0DF02B50300F000115
:101340006C6F30C0D9FF31C0DAFF6CC0DFFF304AAC
:10135000312A0001660700016629D8A4CFD732C020
:10136000F6FF33C0F7FF324A332A0800F5CF6CF09E
:1013700000016C51D8A48BD630C0D9FF31C0DAFF40
:10138000000EDF6E120032C0D9FF33C0DAFFDF502B
:10139000346E3450246E256A20EE07F03250D92680
:1013A0003350DA22DECF26F0DDCF27F0D2EC0EF07C
:1013B00024C02AF025C02BF0000E2D6E640E2C6E7A
:1013C0002DEC0CF02AC060F02BC061F020EE01F093
:1013D0003250D9263350DA22DF50D8B42ED020EE46
:1013E00006F03250D9263350DA22DF50346E010E27
:1013F000356E342A02D0D8903536342EFCD735508D
:101400008A108A6E20EE07F03250D9263350DA2245
:10141000DECF34F0DDCF35F060C036F061C037F09C
:10142000361E371E364A372A345036240001606F84
:10143000355037200001616F14D020EE06F0325095
:10144000D9263350DA22DF50346E010E356E342A3D
:1014500002D0D8903536342EFCD73550FF0A8A1486
:101460008A6E20EE02F03250D9263350DA22DECFD7
:1014700034F0DDCF35F034C0D9FF35C0DAFF0001DC
:101480006045E846FC0BDF6E20EE04F03250D926B2
:101490003350DA22DECF34F0DDCF35F034C0D9FF5F
:1014A00035C0DAFF60C036F061C037F0060E386E26
:1014B000373437323632382EFBD73650DF6E1200D3
:1014C000F1C09BF0F2C09CF0F3C09DF0F4C09EF020
:1014D000030E00019A6FE80E996FE8EC0CF024C03F
:1014E0009BF025C09CF0AFEC0CF024C09DF025C013
:1014F0009EF0000E696E000E686E000E676E000EA4
:10150000666E000E286E010EA7EC0EF0210EE82E7E
:10151000FED700F0000E286E020EA7EC0EF0060EAD
:10152000396E300EE82EFED7392EFCD700D0010ED2
:101530008FEC0EF02D0E2A6E030E2B6E21EC0DF0AB
:10154000020E8FEC0EF0710E306E000E316E0C0E2E
:10155000326E030E336E9BC034F09CC035F09DC0DC
:1015600036F09EC037F040EC08F0710E2A6E000E87
:101570002B6E21EC0DF000019B510001995D0001E3
:101580009C5100019A59D8B00CD000019D51000126
:10159000995D00019E5100019A59D8B002D0020E07
:1015A00012006DC062F06EC063F06FC064F070C076
:1015B00065F09EEC0BF0000E1200276E2750246E93
:1015C000256A070ED89024362536E82EFBD7070E5D
:1015D000266E253425322432262EFBD724468B5006
:1015E0002418FD0B24188B6E2750246E256A060ED6
:1015F000D89024362536E82EFBD7070E266E2534E4
:1016000025322432262EFBD7244624468B5024181C
:10161000FB0B24188B6E2750246E256A050ED8907C
:1016200024362536E82EFBD7070E266E25342532C4
:101630002432262EFBD78C502418FE0B24188C6ED7
:101640002750246E256A243A253AF00E2516245098
:101650000F0B2512F00E2416070E266E25342532A8
:101660002432262EFBD724468C502418FD0B241838
:101670008C6E1CEC0FF0030EE82EFED700F012006B
:10168000929C94909492949495909592270E2A6EA1
:10169000F50EE82EFED72A2EFCD700F0030EDDEC67
:1016A0000AF00D0E2A6EFC0EE82EFED72A2EFCD76D
:1016B000030EDDEC0AF0850EE82EFED700F0030ED7
:1016C000DDEC0AF0210EE82EFED700F0020EDDEC74
:1016D0000AF0210EE82EFED700F0000E286E280E2C
:1016E000A7EC0EF0210EE82EFED700F0000E286EBB
:1016F000080EA7EC0EF0210EE82EFED700F0000E2B
:10170000286E010EA7EC0EF00D0E2A6EFC0EE82ED0
:10171000FED72A2EFCD7000E286E060EA7EC0EF080
:10172000210EE82EFED700F0000E286E0C0EA7EC5E
:101730000EF0210EE82EFED700F0120028D062C075
:10174000D9FF63C0DAFFDF50D8B405D062C0D9FF3B
:1017500063C0DAFFDF0664C0D9FF65C0DAFFDF507F
:10176000D8B405D064C0D9FF65C0DAFFDF0662C017
:1017700032F063C033F0C3EC09F064C032F065C0EE
:1017800033F0C3EC09F0210EE82EFED700F062C062
:10179000D9FF63C0DAFFDF50D8A4D1D764C0D9FF26
:1017A00065C0DAFFDF50D8A4CAD7000120EE01F0EF
:1017B0006251D9266351DA22010EDF6E000120EE5C
:1017C00001F06451D9266551DA22010EDF6E120054
:1017D000E9CF07F0EACF08F0E1CF09F0E2CF0AF055
:1017E000D9CF0BF0DACF0CF0F3CF0DF0F4CF0EF031
:1017F000F6CF0FF0F7CF10F0F8CF11F0F5CF12F0D1
:10180000F2A20DD03B28D8A403D0010E3B6E03D02A
:101810003B50D8A43B68020E3FEC0EF0F29212C08F
:10182000F5FF11C0F8FF10C0F7FF0FC0F6FF0EC0A4
:10183000F4FF0DC0F3FF0CC0DAFF0BC0D9FF0AC0E4
:10184000E2FF09C0E1FF08C0EAFF07C0E9FF06C0E8
:10185000FBFF05C0FAFF3C921100000E2F6E2DAE6B
:1018600006D02C6C2D1ED8B02D2A010E2F6E2BAE5B
:1018700006D02A6C2B1ED8B02B2A010E2F1A000E70
:10188000316E000E306E2C502D10D8B41CD0010ECD
:101890002E6E04D0D8902C362D362E2A2DAEFAD7A7
:1018A000D890303631362C502A5C2D502B58D8A089
:1018B00005D02C502A5E2D502B5A3080D8902D32D6
:1018C0002C322E2EEDD72F50D8B404D0306C311ED0
:1018D000D8B0312A30C02AF031C02BF012002CD001
:1018E00062C0D9FF63C0DAFF00016651DE5CD8B088
:1018F00005D062C0D9FF63C0DAFFDF2A64C0D9FF18
:1019000065C0DAFF00016651DE5CD8B005D064C066
:10191000D9FF65C0DAFFDF2A62C032F063C033F05E
:10192000C3EC09F064C032F065C033F0C3EC09F0D9
:10193000210EE82EFED700F062C0D9FF63C0DAFFA7
:1019400000016651DE5CD8A0CBD764C0D9FF65C06A
:10195000DAFF00016651DE5CD8B01200C1D7000E7C
:101960002A6E000E296E000E2B6E000E2B6E030EDB
:101970002B6401D01ED06950266E276A070ED890BE
:1019800026362736E82EFBD768CF28F0D8902832A5
:1019900028502612000E27122650292627502A22C8
:1019A000820E266EDE0EE82EFED7262EFCD72B2AC0
:1019B000DED729C026F02AC027F0D8902732263259
:1019C000D8902732263226C024F027C025F01200F6
:1019D000000E2A6E000E296E000E2B6E000E2B6E6E
:1019E000030E2B6401D01ED06750266E276A070EA7
:1019F000D89026362736E82EFBD766CF28F0D89029
:101A0000283228502612000E271226502926275049
:101A10002A22820E266EDE0EE82EFED7262EFCD758
:101A20002B2ADED729C026F02AC027F0D8902732EB
:101A30002632D8902732263226C024F027C025F03F
:101A400012001AD0010E286E2AC0F6FF2BC0F7FF35
:101A5000F86A020EF76403D00800F55005D0F6CFFF
:101A6000E1FFF7CFE2FFE750A7EC0EF02A4A2B2A5E
:101A7000210EE82EFED700F02AC0F6FF2BC0F7FF9C
:101A8000F86A020EF76403D00800F55005D0F6CFCF
:101A9000E1FFF7CFE2FFE7500009D8B41200D2D738
:101AA000000E2B6E000E2D6E000E2C6E000E2A6E98
:101AB00020EE04F02450D9262550DA22DF50266E7D
:101AC00020EE03F02450D9262550DA22DF50276E6D
:101AD0002750296E286A265028242C6E000E2920B3
:101AE0002D6E20EE02F02450D9262550DA22DF5048
:101AF0002C182B6E010E1200000E296E000E286E9F
:101B000026502710D8B41CD0010E2A6E04D0D890CD
:101B1000263627362A2A27AEFAD7D89028362936ED
:101B20002650245C27502558D8A005D02650245E86
:101B30002750255A2880D890273226322A2EEDD7D2
:101B400028C024F029C025F012002D502E10D8B442
:101B500018D0010E2F6E04D0D8902D362E362F2A95
:101B60002EAEFAD72D502B5C2E502C58D8A004D076
:101B70002D502B5E2E502C5AD8902E322D322F2ED7
:101B8000F1D72BC02BF02CC02CF01200000120EE5E
:101B900001F06751D9266851DA22000EDF6E00018C
:101BA00020EE01F06951D9266A51DA22000EDF6E6B
:101BB00067C062F068C063F069C064F06AC065F035
:101BC0006BC066F06FEC0CF01200000120EE01F02B
:101BD0006751D9266851DA22000EDF6E000120EE2F
:101BE00001F06951D9266A51DA22010EDF6E67C011
:101BF00062F068C063F069C064F06AC065F06BC0F1
:101C000066F06FEC0CF01200000120EE01F067515D
:101C1000D9266851DA22010EDF6E000120EE01F0B4
:101C20006951D9266A51DA22000EDF6E67C062F070
:101C300068C063F069C064F06AC065F06BC066F0AC
:101C40006FEC0CF01200256E000E276E000E266E53
:101C5000000E276E010E266E09D0820E246EDE0E57
:101C6000E82EFED7242EFCD7264A272A2550020D1F
:101C70002650F35C2750F458D8A01200EED7026E1D
:101C8000000E046E000E036E000E046E010E036E55
:101C900009D0820E016EDE0EE82EFED7012EFCD793
:101CA000034A042A0250020D0350F35C0450F45816
:101CB000D8A01200EED702EE00F0640EEE6AE8063D
:101CC000FDE101EEE2F0150EEE6AE806FDE100EE40
:101CD000BFF03A0EEE6AE806FDE13B6A3A6A3C90D4
:101CE0003C92000EF86E0001A8EF01F0000E7F6E2E
:101CF000800E7E6E6F0E6F6E000E6E6EC70E7B6E68
:101D0000000E7A6E000E796E000E786E000E776E01
:101D1000000E766E939093929394939612002A6E8F
:101D20002A04D8A406D0000E286E800EA7EC0EF070
:101D300009D0020E2A18D8A405D0000E286EC00EB5
:101D4000A7EC0EF0210EE82EFED700F01200296E4F
:101D500028B002D0899C01D0898C29380F0B0F0B39
:101D6000DDEC0AF0060EE82EFED700D029500F0B4E
:101D7000DDEC0AF0210EE82EFED700F01200256EF1
:101D80002550D8A406D024B002D08D9001D08D80EB
:101D900012002504D8A4120024B002D08D9201D0E4
:101DA0008D82120024502602F3CF28F0F4CF29F0C0
:101DB00024502702F350292625502602F3502926C5
:101DC00028C024F029C025F01200899489969284B5
:101DD0009286B894B896B89CB89E060E636E060EAE
:101DE000626E96909692590EB76E1200266E000E95
:101DF000256E3A0E266005D02F0E266402D0010E05
:101E0000256E25C024F0243012009450C009946E31
:101E1000CD0EAF6E000EB06EAA86AC84AB88AB8ED2
:101E2000AC98AB9C1200D59ED59CD59AD596D58002
:101E3000D582D584F29A12008B80030EE82EFED74D
:061E400000F08B9012007F
:020000040020DA
:08000000FFFFFFFFFFFFFFFF00
:020000040030CA
:0E000000FFC80F3E3C1D81FF0FC00FE00F40F8
:00000001FF
