:040000006BEF00F0B2
:0E0008003C82FACF05F0FBCF06F08EEF0BF036
:100018003C80D8CF13F0E8CF14F0E0CF15F0FACF3A
:1000280016F0FBCF17F0E9CF18F0EACF19F0E1CFBF
:100038001AF0E2CF1BF0D9CF1CF0DACF1DF0F3CFC6
:100048001EF0F4CF1FF0F6CF20F0F7CF21F0F8CF55
:1000580022F0F5CF23F09EAA16D03A50010DE60EF5
:10006800F324D96E010EF420DA6EAECFDFFF010E55
:100078000101F86F0F0E3A18D8A403D0000E3A6E9B
:1000880001D03A2A9E9A23C0F5FF22C0F8FF21C06A
:10009800F7FF20C0F6FF1FC0F4FF1EC0F3FF1DC00E
:1000A800DAFF1CC0D9FF1BC0E2FF1AC0E1FF19C06C
:1000B800EAFF18C0E9FF17C0FBFF16C0FAFF15C01A
:1000C800E0FF14C0E8FF13C0D8FF3C9010006EEFAB
:0200D8000EF028
:100300000001000A006400E80310272020202020BC
:1003100020253034642C2025303464002020202017
:100320002020496E657274204D6F64650020202086
:1003300020205363616E495200476F696E67204801
:100340006F6D6500536561726368696E67000000D8
:10035000000E0101CE6F000E0101CD6F22EE00F004
:1003600011EE5AF0630EDBCFE3FFE806FCE220EE6D
:10037000BCF011EE28F0310EDBCFE3FFE806FCE223
:10038000000E0101CF6FE2C1C9F1E3C1CAF1E4C1BE
:10039000CBF1E5C1CCF13C0E0101C86FF28EF28CBD
:1003A000F28CD08E9F9A9D8A9486F2889E9AF292C1
:1003B000000E0101D06F010E0101D16F790E010114
:1003C000D26F0F0E0101D36F780E0101D46F0F0EA3
:1003D0000101D56F000E0101D66F000E0101D86F2B
:1003E000C70ED76F000E0101D96F010E0101DA6F40
:1003F000770E0101DB6F0F0E0101DC6F760E01013C
:10040000DD6F0F0E0101DE6F020E0101DF6F000EC6
:100410000101E16FC70EE06F720ED36ED3B454D3F7
:10042000FDD7D00E0001626F010E0001636FD90E7F
:100430000001646F010E0001656FD9EC0BF0000E36
:100440000101F86F000E0101CF6FDEEC0CF024C04B
:10045000C9F125C0CAF1A5EC0CF024C0CBF125C030
:10046000CCF1000E696E000E686E000E676E000E15
:10047000666E000E286E010EA1EC0EF0210EE82E25
:10048000FED700F0000E286E020EA1EC0EF0060E54
:100490000001BA6F300EE82EFED7BA2FFCD700D07D
:1004A000010E89EC0EF01C0E2A6E030E2B6E17EC5B
:1004B0000DF0020E89EC0EF00101F851D8B407D00E
:1004C000BE0E2A6E010E2B6E17EC0DF0FDD2000E43
:1004D000306E010E316E0B0E326E030E336EC9C1DB
:1004E00034F0CAC135F0CBC136F0CCC137F030ECB6
:1004F00008F0000E2A6E010E2B6E17EC0DF0E4D200
:1005000019EC0EF00DEC0FF0FFEC0EF030EC0BF0F0
:10051000DFEC0EF0010E246E000EB9EC0EF0010EB1
:10052000246E010EB9EC0EF0D00E0001626F010EC8
:100530000001636FD90E0001646F010E0001656F49
:10054000640E0001666F65EC0CF0010E36EC0EF0E7
:10055000BAD2010E89EC0EF0440E2A6E030E2B6EF9
:1005600017EC0DF00101CD29D8A43ED00101CF51E7
:10057000010D280EF324D96E010EF420DA6E000E60
:10058000DF6E0101CF51020D5A0EF324D96E010E18
:10059000F420DA6E060EDE6E000EDD6E0101CF2B4A
:1005A000D00E0001626F010E0001636FD90E0001D1
:1005B000646F010E0001656F640E0001666F65ECEB
:1005C0000CF0060E36EC0EF0D00E0001626F010E3C
:1005D0000001636FD90E0001646F010E0001656FA9
:1005E000D9EC0BF0000E48D00101CD510101D8A487
:1005F00031D0D00E00016D6F010E00016E6FD90E6B
:1006000000016F6F010E0001706FC8C171F0000131
:10061000726B5A0E0001736F010E0001746FCF0EE2
:100620000001756F010E0001766F280E0001776FD3
:10063000010E0001786FF80E0001796F010E0001C4
:100640007A6FF60E00017B6F010E00017C6F75EC76
:1006500005F012D00101CD05D8A411D0D00E0001B3
:100660006D6F010E00016E6FD90E00016F6F010EEC
:100670000001706F50EC0AF00101CD6F25D2020E1F
:100680000101CD19D8A420D2020E3B6E0101CF5139
:10069000010D280EF324D96E010EF420DA6E010E3E
:1006A000DF6E12D20101F851D8B4A2D0D00E0001F1
:1006B000626F010E0001636FD90E0001646F010EBD
:1006C0000001656FD9EC0BF0030E0101F519D8A4F8
:1006D00002D0010E01D0000E0001BA6F020E01011E
:1006E000E619D8A402D0010E01D0000E0001BA15FF
:1006F000E8A0EAD1E60E246E010E256E46EC0DF060
:100700000009D8B441D0000E0101CE6F090E0101DD
:10071000CE6501D020D00101CE510001BA6FBB6B74
:10072000010E0001BA27000EBB23E60E0001BA2518
:10073000D96E010E0001BB21DA6E0101CE51010D0F
:10074000BE0EF324E16E010EF420E26EDFCFE7FF70
:100750000101CE2BDBD7000E0101CE6F0F0E010180
:10076000CE6501D00ED00101CE51010DE60EF3246D
:10077000D96E010EF420DA6E000EDF6E0101CE2B71
:10078000EDD7030E3B6EA0D1D00E0001676F010EB6
:100790000001686FD90E0001696F010E00016A6FD8
:1007A000640E00016B6FBCEC0DF0050E36EC0EF024
:1007B000D00E0001626F010E0001636FD90E0001BF
:1007C000646F010E0001656FD9EC0BF0D00E0001D3
:1007D000626F010E0001636FD90E0001646F010E9C
:1007E0000001656F640E0001666F65EC0CF06CD162
:1007F000010E0101CD6F010E3B6ED00E0001626F44
:10080000010E0001636FD90E0001646F010E00013B
:10081000656F640E0001666F65EC0CF0010E36EC3E
:100820000EF00101CF51010D280EF324D96E010EF7
:10083000F420DA6E000EDF6E0101CF51020D5A0E68
:10084000F324D96E010EF420DA6E050EDE6E000E72
:10085000DD6E0101CF2B38D1010E89EC0EF0BE0EFA
:100860002A6E010E2B6E17EC0DF0020E89EC0EF0C5
:10087000390E2A6E030E2B6E17EC0DF00101CFBF5F
:1008800014D1D00E0001626F010E0001636FD90E0A
:100890000001646F010E0001656FD9EC0BF00101DE
:1008A000CF51010D280EF324D96E010EF420DA6E1B
:1008B000DF50D8A41ED0D00E0001676F010E0001DA
:1008C000686FD90E0001696F010E00016A6F640E36
:1008D00000016B6FBCEC0DF00101CF51020D5A0EFF
:1008E000F324D96E010EF420DA6EDF5036EC0EF0F0
:1008F000D6D00101CF51010D280EF324D96E010E7F
:10090000F420DA6EDE04D8A470D0D59E000ED66E28
:10091000000ED76E000E0101F76F000EF66F010199
:10092000CF51020D5A0EF324D96E010EF420DA6E67
:10093000010EDBBE2AD0010EDB5003E1DE04D8A09D
:1009400024D0D58ED00E0001676F010E0001686FB4
:10095000D90E0001696F010E00016A6F280E0001B7
:100960006B6FDBEC0DF00101CF51020D5A0EF32439
:10097000D96E010EF420DA6EDE500101F65DDE5014
:100980000101F759D8A0EFD72ED0D58ED00E000197
:10099000676F010E0001686FD90E0001696F010ECB
:1009A00000016A6F280E00016B6FFAEC0DF0010177
:1009B000CF51020D5A0EF324D96E010EF420DA6ED7
:1009C000DECFBAF0DDCFBBF00001BA1FBB1FBA4BC0
:1009D000BB2B0001BA510101F65D0001BB510101C1
:1009E000F759D8A0E4D7D59E5AD00101CF51010DB7
:1009F000280EF324D96E010EF420DA6E020EDE18F2
:100A0000D8A44DD00101CF51020D5A0EF324D96E56
:100A1000010EF420DA6E010EDBBE24D0010EDB5095
:100A200003E1DE04D8A01ED0D00E0001676F010ED6
:100A30000001686FD90E0001696F010E00016A6F35
:100A40004E0E00016B6FDBEC0DF00101CF51020D7A
:100A50005A0EF324D96E010EF420DA6EDF5036EC14
:100A60000EF01DD0D00E0001676F010E0001686FFF
:100A7000D90E0001696F010E00016A6F640E00015A
:100A80006B6FFAEC0DF00101CF51020D5A0EF324F9
:100A9000D96E010EF420DA6EDF5036EC0EF03B28F2
:100AA000D8B403D00101CF07E9D6D00E0001626FA0
:100AB000010E0001636FD90E0001646F010E000189
:100AC000656FD9EC0BF03B683B50000AD8B418D5E1
:100AD000010AD8B43ED5030AD8B4E4D5010AD8B483
:100AE000BBD6FC0AD8B49DD4EFD7F2C0B3F0F3C0A4
:100AF000B4F0F4C0B5F0F5C0B6F0000E0001B06F70
:100B0000000EAF6F000E0001B96F000EB86F000E3F
:100B10000001AA6F000EA96F000E0001B26F000E57
:100B2000B16F030E0001AC6FE80EAB6F280E000131
:100B3000AD6F020E0001B76F010E0001AE6F75C000
:100B4000D9FF76C0DAFFDF5000017D6F00017D51D3
:100B5000010DF35000017725D96EF4500001782182
:100B6000DA6E020EDF6EB7C07DF000017E6B7DBFD6
:100B70007E0775C0D9FF76C0DAFFDF5000017F6FB6
:100B800000017F51020DF35000017325D96EF4501E
:100B900000017421DA6E7DC0DEFF7EC0DDFF75C00E
:100BA000D9FF76C0DAFFDF5000017D6F00017D299B
:100BB00075C0D9FF76C0DAFFDF6E6DC067F06EC01A
:100BC00068F06FC069F070C06AF0640E00016B6F6E
:100BD000FAEC0DF00001B75136EC0EF06DC062F08A
:100BE0006EC063F06FC064F070C065F0D9EC0BF0BC
:100BF0006DC067F06EC068F06FC069F070C06AF0D9
:100C0000ADC06BF0DBEC0DF0000ED66E000ED76EB3
:100C10007BC0D9FF7CC0DAFF000EDE6E000EDD6EF9
:100C2000D58E000E0001AA6F010EA96FBAD1DEECBD
:100C30000CF024C0B3F025C0B4F0A5EC0CF024C037
:100C4000B5F025C0B6F0000E696E000E686E000E9D
:100C5000676E000E666E000E286E010EA1EC0EF09F
:100C6000210EE82EFED700F0000E286E020EA1EC39
:100C70000EF0060E00017D6F300EE82EFED77D2FA0
:100C8000FCD700D0010E89EC0EF02D0E2A6E030E5B
:100C90002B6E17EC0DF0020E89EC0EF0810E306E0B
:100CA000000E316E0C0E326E030E336EB3C034F094
:100CB000B4C035F0B5C036F0B6C037F030EC08F04F
:100CC000810E2A6E000E2B6E17EC0DF00001B5514F
:100CD0000001AB5D0001B6510001AC59D8B008D09D
:100CE0007BC0D9FF7CC0DAFFDECFB8F0DDCFB9F032
:100CF0000001B3510001AB5D0001B4510001AC59DA
:100D0000D8B008D07BC0D9FF7CC0DAFFDECFAFF00F
:100D1000DDCFB0F00001AF510001B011D8B435D132
:100D20000001B8510001B911D8B49BD0B8C07DF012
:100D3000B9C07EF000017D1F7E1F7D4B7E2B000120
:100D4000AF5100017D250001B16F0001B0510001DC
:100D50007E210001B26F000ED66E000ED76E7BC0F2
:100D6000D9FF7CC0DAFF000EDE6E000EDD6E6DC0B6
:100D700062F06EC063F06FC064F070C065F0D9ECD3
:100D80000BF00CD06DC067F06EC068F06FC069F0FA
:100D900070C06AF0ADC06BF0FAEC0DF0D8900001B5
:100DA000B23100017E6F0001B13100017D6F7BC067
:100DB000D9FF7CC0DAFF00017D51DE5C00017E516D
:100DC000DE58D8A0DFD7D59E6DC062F06EC063F04C
:100DD0006FC064F070C065F0D9EC0BF075C0D9FF3E
:100DE00076C0DAFFDF5000017D6F00017D51010DFB
:100DF000F35000017725D96EF45000017821DA6EA6
:100E0000010EDF6ED8900001B23100017E6F00014B
:100E1000B13100017D6F0001B85100017D27000153
:100E2000B95100017E2300017D1F7E1F7D4B7E2B6B
:100E300075C0D9FF76C0DAFFDF5000017F6F000177
:100E40007F51020DF35000017325D96EF45000015B
:100E50007421DA6E7DC0DEFF7EC0DDFF87D0020E1A
:100E60001200D59E75C0D9FF76C0DAFFDF500001B1
:100E70007D6F00017D51010DF35000017725D96E82
:100E8000F45000017821DA6E010EDF6E7BC0D9FFCD
:100E90007CC0DAFFDECF7DF0DDCF7EF000017D1F6C
:100EA0007E1F7D4B7E2B75C0D9FF76C0DAFFDF50E9
:100EB00000017F6F00017F51020DF3500001732587
:100EC000D96EF45000017421DA6E7DC0DEFF7EC061
:100ED000DDFF75C0D9FF76C0DAFFDF5000017D6FFE
:100EE00000017D2975C0D9FF76C0DAFFDF6E6DC0C5
:100EF00062F06EC063F06FC064F070C065F0D9EC52
:100F00000BF06DC067F06EC068F06FC069F070C024
:100F10006AF0640E00016B6FFAEC0DF00001AE5147
:100F200036EC0EF06DC062F06EC063F06FC064F01E
:100F300070C065F0D9EC0BF075C0D9FF76C0DAFF50
:100F4000DF5000017D6F00017D51010DF350000164
:100F50007725D96EF45000017821DA6E020EDF6E2B
:100F60000001AE5100017D6F7E6B62D775C0D9FF65
:100F700076C0DAFFDF5000017D6F00017D2975C06A
:100F8000D9FF76C0DAFFDF6E6AD779C0D9FF7AC0A1
:100F9000DAFFDE04D8A402D0020E12000001A94B31
:100FA000AA2B0001A9510001715D0001AA510001A5
:100FB0007259D8B03CD675C0D9FF76C0DAFFDF5081
:100FC00000017D6F00017D51010DF3500001772577
:100FD000D96EF45000017821DA6E020EDF6E75C012
:100FE000D9FF76C0DAFFDF5000017D6F00017D512F
:100FF000020DF35000017325D96EF45000017421E5
:10100000DA6EFE0EDE6EFF0EDD6E75C0D9FF76C0A5
:10101000DAFFDF5000017D6F00017D2975C0D9FF27
:1010200076C0DAFFDF6E6DC067F06EC068F06FC02B
:1010300069F070C06AF0640E00016B6FDBEC0DF0BC
:101040000001B75136EC0EF06DC062F06EC063F077
:101050006FC064F070C065F0D9EC0BF0FF0E1200A9
:10106000340E0001646F000E0001656F68D1250E1B
:1010700000016C19D8B409D030C0D9FF31C0DAFFF3
:101080006CC0DFFF304A312A5AD1000E00016B6F6D
:10109000000E6A6F000E0001696F04D000016985BF
:1010A000324A332A32C0F6FF33C0F7FF0800F5504A
:1010B000300AD8B4F3D732C0F6FF33C0F7FF0800C8
:1010C000F550F0EC0EF0D8A03ED0000E00016B6F92
:1010D000000E6A6F6AC024F06BC025F0000E276E08
:1010E0000A0E266ECCEC0EF024C06AF025C06BF020
:1010F000D00E0001606FFF0E0001616F32C0F6FF7D
:1011000033C0F7FF0800F5500001626F636B000108
:101110006051000162270001615100016323000159
:10112000625100016A270001635100016B23324ABA
:10113000332A32C0F6FF33C0F7FF0800F550F0EC59
:101140000EF0D8B0C7D732C0F6FF33C0F7FF324A2F
:10115000332A0800F5CF6CF000016C51000AD8B4B6
:10116000FBD0640AD8B403D00D0AD8A4E8D064C078
:10117000D9FF65C0DAFFDECF67F0DDCF68F0020E81
:1011800000016427000E6523000168AF08D0030E3C
:10119000000169130001676D681FD8B0682B010E4C
:1011A00000016C6F050E00016C19D8B416D0000157
:1011B0006C51020D010EF324F66E030EF420F76E4F
:1011C0000900F5500001675D0900F55000016859FC
:1011D000D8A003D000016C2BE5D700016A510001B3
:1011E0006B11D8B40BD069C060F0030E000160171A
:1011F000D8B404D000016A07D8A06B07800E0001A4
:101200006CBF7F0E0001606F00016A5100016C5DD0
:1012100000016B51800A00016059D8B00BD0000169
:101220006C5100016A5F000E00016CBFFF0E0001EF
:101230006B5B05D0000E00016B6F000E6A6F000142
:1012400069A522D069C060F0030E00016017D8B410
:1012500008D030C0D9FF31C0DAFF2D0EDF6E304A22
:10126000312A00016A5100016B11D8B434D030C06A
:10127000D9FF31C0DAFF300EDF6E304A312A00016B
:101280006A07D8A06B07EDD700016A5100016B1106
:10129000D8B412D030C0D9FF31C0DAFF200EDF6ED3
:1012A000304A312A00016A07D8A06B0700016A5151
:1012B00000016B11D8A4EED769C060F0030E0001E5
:1012C0006017D8B408D030C0D9FF31C0DAFF2D0E76
:1012D000DF6E304A312A6CC066F02BD000016651B7
:1012E000020D010EF324F66E030EF420F76E0900D2
:1012F000F5CF26F00A00F5CF27F067C024F068C0CC
:1013000025F072EC0DF024C02BF025C02CF0000E5F
:101310002E6E0A0E2D6E9BEC0DF02B50300F00013F
:101320006C6F30C0D9FF31C0DAFF6CC0DFFF304ACC
:10133000312A0001660700016629D8A4CFD732C040
:10134000F6FF33C0F7FF324A332A0800F5CF6CF0BE
:1013500000016C51D8A48BD630C0D9FF31C0DAFF60
:10136000000EDF6E120032C0D9FF33C0DAFFDF504B
:10137000346E3450246E256A20EE07F03250D926A0
:101380003350DA22DECF26F0DDCF27F0CCEC0EF0A2
:1013900024C02AF025C02BF0000E2D6E640E2C6E9A
:1013A00023EC0CF02AC060F02BC061F020EE01F0BD
:1013B0003250D9263350DA22DF50D8B42ED020EE66
:1013C00006F03250D9263350DA22DF50346E010E47
:1013D000356E342A02D0D8903536342EFCD73550AD
:1013E0008A108A6E20EE07F03250D9263350DA2266
:1013F000DECF34F0DDCF35F060C036F061C037F0BD
:10140000361E371E364A372A345036240001606FA4
:10141000355037200001616F14D020EE06F03250B5
:10142000D9263350DA22DF50346E010E356E342A5D
:1014300002D0D8903536342EFCD73550FF0A8A14A6
:101440008A6E20EE02F03250D9263350DA22DECFF7
:1014500034F0DDCF35F034C0D9FF35C0DAFF0001FC
:101460006045E846FC0BDF6E20EE04F03250D926D2
:101470003350DA22DECF34F0DDCF35F034C0D9FF7F
:1014800035C0DAFF60C036F061C037F0060E386E46
:10149000373437323632382EFBD73650DF6E1200F3
:1014A000EEC09BF0EFC09CF0F0C09DF0F1C09EF04C
:1014B000030E00019A6FE80E996FDEEC0CF024C069
:1014C0009BF025C09CF0A5EC0CF024C09DF025C03D
:1014D0009EF0000E696E000E686E000E676E000EC4
:1014E000666E000E286E010EA1EC0EF0210EE82EA5
:1014F000FED700F0000E286E020EA1EC0EF0060ED4
:10150000396E300EE82EFED7392EFCD700D0010EF2
:1015100089EC0EF02D0E2A6E030E2B6E17EC0DF0DB
:10152000020E89EC0EF0710E306E000E316E0C0E54
:10153000326E030E336E9BC034F09CC035F09DC0FC
:1015400036F09EC037F030EC08F0710E2A6E000EB7
:101550002B6E17EC0DF000019B510001995D00010D
:101560009C5100019A59D8B00CD000019D51000146
:10157000995D00019E5100019A59D8B002D0020E27
:1015800012006DC062F06EC063F06FC064F070C096
:1015900065F0D9EC0BF0000E1200276E2750246E78
:1015A000256A070ED89024362536E82EFBD7070E7D
:1015B000266E253425322432262EFBD724468B5026
:1015C0002418FD0B24188B6E2750246E256A060EF6
:1015D000D89024362536E82EFBD7070E266E253404
:1015E00025322432262EFBD7244624468B5024183D
:1015F000FB0B24188B6E2750246E256A050ED8909D
:1016000024362536E82EFBD7070E266E25342532E4
:101610002432262EFBD78C502418FE0B24188C6EF7
:101620002750246E256A243A253AF00E25162450B8
:101630000F0B2512F00E2416070E266E25342532C8
:101640002432262EFBD724468C502418FD0B241858
:101650008C6E17EC0FF0030EE82EFED700F0120090
:10166000929C94909492949495909592270E2A6EC1
:10167000F50EE82EFED72A2EFCD700F0030ECDEC97
:101680000AF00D0E2A6EFC0EE82EFED72A2EFCD78D
:10169000030ECDEC0AF0850EE82EFED700F0030E07
:1016A000CDEC0AF0210EE82EFED700F0020ECDECB4
:1016B0000AF0210EE82EFED700F0000E286E280E4C
:1016C000A1EC0EF0210EE82EFED700F0000E286EE1
:1016D000080EA1EC0EF0210EE82EFED700F0000E51
:1016E000286E010EA1EC0EF00D0E2A6EFC0EE82EF7
:1016F000FED72A2EFCD7000E286E060EA1EC0EF0A7
:10170000210EE82EFED700F0000E286E0C0EA1EC84
:101710000EF0210EE82EFED700F01200E9CF07F000
:10172000EACF08F0E1CF09F0E2CF0AF0D9CF0BF011
:10173000DACF0CF0F3CF0DF0F4CF0EF0F6CF0FF0C0
:10174000F7CF10F0F8CF11F0F5CF12F0F2A20DD0D4
:101750003B28D8A403D0010E3B6E03D03B50D8A445
:101760003B68020E52EC0EF0F292F2A404D001019A
:10177000F64BF72BF29412C0F5FF11C0F8FF10C022
:10178000F7FF0FC0F6FF0EC0F4FF0DC0F3FF0CC053
:10179000DAFF0BC0D9FF0AC0E2FF09C0E1FF08C0B1
:1017A000EAFF07C0E9FF06C0FBFF05C0FAFF3C9255
:1017B000110028D062C0D9FF63C0DAFFDF50D8B46F
:1017C00005D062C0D9FF63C0DAFFDF0664C0D9FF6D
:1017D00065C0DAFFDF50D8B405D064C0D9FF65C05A
:1017E000DAFFDF0662C032F063C033F0B3EC09F019
:1017F00064C032F065C033F0B3EC09F0210EE82E7E
:10180000FED700F062C0D9FF63C0DAFFDF50D8A472
:10181000D1D764C0D9FF65C0DAFFDF50D8A4CAD7DA
:10182000000120EE01F06251D9266351DA22010E47
:10183000DF6E000120EE01F06451D9266551DA22F5
:10184000010EDF6E1200000E2F6E2DAE06D02C6C36
:101850002D1ED8B02D2A010E2F6E2BAE06D02A6C6D
:101860002B1ED8B02B2A010E2F1A000E316E000E3F
:10187000306E2C502D10D8B41CD0010E2E6E04D01A
:10188000D8902C362D362E2A2DAEFAD7D890303659
:1018900031362C502A5C2D502B58D8A005D02C5016
:1018A0002A5E2D502B5A3080D8902D322C322E2E7D
:1018B000EDD72F50D8B404D0306C311ED8B0312AB7
:1018C00030C02AF031C02BF012002CD062C0D9FFFA
:1018D00063C0DAFF00016651DE5CD8B005D062C09B
:1018E000D9FF63C0DAFFDF2A64C0D9FF65C0DAFF21
:1018F00000016651DE5CD8B005D064C0D9FF65C078
:10190000DAFFDF2A62C032F063C033F0B3EC09F0D3
:1019100064C032F065C033F0B3EC09F0210EE82E5C
:10192000FED700F062C0D9FF63C0DAFF0001665144
:10193000DE5CD8A0CBD764C0D9FF65C0DAFF000158
:101940006651DE5CD8B01200C1D7000E2A6E000EC0
:10195000296E000E2B6E000E2B6E030E2B6401D031
:101960001ED06950266E276A070ED8902636273675
:10197000E82EFBD768CF28F0D890283228502612BE
:10198000000E27122650292627502A22820E266E64
:10199000DE0EE82EFED7262EFCD72B2ADED729C056
:1019A00026F02AC027F0D89027322632D890273246
:1019B000263226C024F027C025F01200000E2A6E21
:1019C000000E296E000E2B6E000E2B6E030E2B6484
:1019D00001D01ED06750266E276A070ED890263693
:1019E0002736E82EFBD766CF28F0D890283228502B
:1019F0002612000E27122650292627502A22820E50
:101A0000266EDE0EE82EFED7262EFCD72B2ADED73A
:101A100029C026F02AC027F0D89027322632D89045
:101A20002732263226C024F027C025F012001AD013
:101A3000010E286E2AC0F6FF2BC0F7FFF86A020ECF
:101A4000F76403D00800F55005D0F6CFE9FFF7CFD3
:101A5000EAFFEF50A1EC0EF02A4A2B2A210EE82EC5
:101A6000FED700F02AC0F6FF2BC0F7FFF86A020E7F
:101A7000F76403D00800F55005D0F6CFE9FFF7CFA3
:101A8000EAFFEF500009D8B41200D2D7000E2B6E37
:101A9000000E2D6E000E2C6E000E2A6E20EE04F04D
:101AA0002450D9262550DA22DF50266E20EE03F08E
:101AB0002450D9262550DA22DF50276E2750296E70
:101AC000286A265028242C6E000E29202D6E20EE28
:101AD00002F02450D9262550DA22DF502C182B6E24
:101AE000010E1200000E296E000E286E26502710DF
:101AF000D8B41CD0010E2A6E04D0D89026362736D2
:101B00002A2A27AEFAD7D890283629362650245CC0
:101B100027502558D8A005D02650245E2750255A96
:101B20002880D890273226322A2EEDD728C024F0DC
:101B300029C025F012002D502E10D8B418D0010E57
:101B40002F6E04D0D8902D362E362F2A2EAEFAD7EF
:101B50002D502B5C2E502C58D8A004D02D502B5E2D
:101B60002E502C5AD8902E322D322F2EF1D72BC03A
:101B70002BF02CC02CF01200000120EE01F0675178
:101B8000D9266851DA22000EDF6E000120EE01F046
:101B90006951D9266A51DA22000EDF6E67C062F001
:101BA00068C063F069C064F06AC065F06BC066F03D
:101BB00065EC0CF01200000120EE01F06751D9260F
:101BC0006851DA22000EDF6E000120EE01F069514B
:101BD000D9266A51DA22010EDF6E67C062F068C052
:101BE00063F069C064F06AC065F06BC066F065ECD4
:101BF0000CF01200000120EE01F06751D926685167
:101C0000DA22010EDF6E000120EE01F06951D926C3
:101C10006A51DA22000EDF6E67C062F068C063F0BE
:101C200069C064F06AC065F06BC066F065EC0CF0EA
:101C30001200000E7F6E800E7E6E6F0E6F6E000EB5
:101C40006E6EC70E7B6E000E7A6E000E796E000E01
:101C5000786E000E776E000E766E9390939293944A
:101C600093968A908A928A948A961200256E000E24
:101C7000276E000E266E000E276E010E266E09D00E
:101C8000820E246EDE0EE82EFED7242EFCD7264AC6
:101C9000272A2550020D2650F35C2750F458D8A06F
:101CA0001200EED7026E000E046E000E036E000EE0
:101CB000046E010E036E09D0820E016EDE0EE82E58
:101CC000FED7012EFCD7034A042A0250020D03500E
:101CD000F35C0450F458D8A01200EED702EE00F0E6
:101CE000640EEE6AE806FDE101EEE2F0170EEE6A20
:101CF000E806FDE100EEBCF03A0EEE6AE806FDE112
:101D00003B6A3A6A3C903C92000EF86E0001A8EFE4
:101D100001F02A6E2A04D8A406D0000E286E800E88
:101D2000A1EC0EF009D0020E2A18D8A405D0000E9E
:101D3000286EC00EA1EC0EF0210EE82EFED700F0AA
:101D40001200296E28B002D0899C01D0898C2938D4
:101D50000F0B0F0BCDEC0AF0060EE82EFED700D0CD
:101D600029500F0BCDEC0AF0210EE82EFED700F023
:101D70001200256E2550D8A406D024B002D08D9034
:101D800001D08D8012002504D8A4120024B002D006
:101D90008D9201D08D82120024502602F3CF28F0BC
:101DA000F4CF29F024502702F3502926255026028B
:101DB000F350292628C024F029C025F01200899468
:101DC000899692849286B894B896B89CB89E060E6E
:101DD000636E060E626E96909692590EB76E120062
:101DE000266E000E256E3A0E266005D02F0E266454
:101DF00002D0010E256E25C024F02430120094502C
:101E0000C009946ECD0EAF6E000EB06EAA86AC8483
:101E1000AB88AB8EAC98AB9C1200D59ED58CD59A76
:101E2000D596D550F80B0209D56EF28A12008B8038
:0C1E3000030EE82EFED700F08B9012008D
:020000040020DA
:08000000FFFFFFFFFFFFFFFF00
:020000040030CA
:0E000000FFC80F3E3C1D81FF0FC00FE00F40F8
:00000001FF
