:040000007BEF00F0A2
:06000800368226EF0AF02B
:100018003680D8CF17F0E8CF18F0E0CF19F0FACF34
:100028001AF0FBCF1BF0E9CF1CF0EACF1DF0E1CFAF
:100038001EF0E2CF1FF0D9CF20F0DACF21F0F3CFB6
:1000480022F0F4CF23F0F6CF24F0F7CF25F0F8CF45
:1000580026F0F5CF27F036C028F037C029F038C091
:100068002AF039C02BF09EAA16D03550010DE90EA2
:10007800F324D96E010EF420DA6EAECFDFFF010E45
:100088000101F96F0F0E3518D8A403D0000E356E94
:1000980001D0352A9E9A2BC039F02AC038F029C0E1
:1000A80037F028C036F027C0F5FF26C0F8FF25C076
:1000B800F7FF24C0F6FF23C0F4FF22C0F3FF21C0DE
:1000C800DAFF20C0D9FF1FC0E2FF1EC0E1FF1DC03C
:1000D800EAFF1CC0E9FF1BC0FBFF1AC0FAFF19C0EA
:1000E800E0FF18C0E8FF17C0D8FF3690100051EFA6
:0200F8000DF009
:100300000001000A006400E80310272020202020BC
:1003100020253034642C2025303464002020202017
:100320002020496E657274204D6F64650020202086
:1003300020205363616E495200476F696E67204801
:0F0340006F6D6500536561726368696E670000D9
:10035000000E0001FD6F000EFC6F000E0101D26F58
:10036000E5C1F8F0E6C1F9F0E7C1FAF0E8C1FBF049
:100370003C0E0001F76FF28EF28CF28CD08E9F9AB9
:100380009D8A9486F2889E9AF292000E0101D36FA4
:10039000010ED46F790ED56F0F0ED66F780ED76F12
:1003A0000F0ED86F000ED96F000EDB6FC70EDA6F1D
:1003B000000EDC6F010EDD6F770EDE6F0F0EDF6F4C
:1003C000760EE06F0F0EE16F020EE26F000EE46F2B
:1003D000C70EE36F720ED36ED3B471D2FDD7D30EB6
:1003E0000001776F010E786FDC0E796F010E7A6F66
:1003F0007FEC0AF0000E0101F96F86EC0BF060C093
:10040000F8F061C0F9F049EC0BF060C0FAF061C09F
:10041000FBF0000E696E000E686E000E676E000E37
:10042000666E000E0001646F010EBBEC0CF0210E35
:10043000E82EFED700F0000E0001646F020EBBEC48
:100440000CF0060E0001CD6F300EE82EFED7CD2F3A
:10045000FCD700F0010EF3EC0CF01C0E0001666FEF
:10046000030E676FC3EC0BF0020EF3EC0CF001010E
:10047000F951D8B408D0C80E0001666F010E676F3D
:10048000C3EC0BF01CD2CF0E00016C6F000E6D6F31
:100490000B0E6E6F030E6F6FF8C070F0F9C071F045
:1004A000FAC072F0FBC073F070EC06F0CF0E0001E2
:1004B000666F000E676FC3EC0BF001D20EEC0DF00F
:1004C00094EC0DF086EC0DF05AEC09F064EC0DF0B4
:1004D000010E0001606F000E27EC0DF0010E00010F
:1004E000606F010E27EC0DF0D30E0001776F010E47
:1004F000786FDC0E796F010E7A6F640E7B6F0BECF8
:100500000BF0010E40EC0CF0D9D1010EF3EC0CF025
:10051000440E0001666F030E676FC3EC0BF0000121
:10052000FC29D8A435D00101D22BD251010D000EE7
:10053000F324D96E020EF420DA6E000EDF6ED25173
:10054000020D000EF324D96E010EF420DA6E060EB1
:10055000DE6E000EDD6ED30E0001776F010E786F38
:10056000DC0E796F010E7A6F640E7B6F0BEC0BF073
:10057000060E40EC0CF0D30E0001776F010E786F81
:10058000DC0E796F010E7A6F7FEC0AF0000E31D02D
:10059000FC51D8A420D0D30E826F010E836FDC0EE5
:1005A000846F010E856FF7C086F0876B000E886F31
:1005B000010E896FD20E8A6F010E8B6F000E8C6F49
:1005C000020E8D6FF90E8E6F010E8F6F70EC04F0BE
:1005D0000001FC6F17D00001FC05D8A40DD0D30E8C
:1005E000816F010E826FDC0E836F010E846FDEEC73
:1005F00008F00001FC6F63D1020EFC19D8A45FD192
:10060000020E346E0101D251010D000EF324D96E99
:10061000020EF420DA6E010EDF6E51D10101F951A4
:10062000D8B488D0D30E0001776F010E786FDC0E3E
:10063000796F010E7A6F7FEC0AF0030E0101F81951
:10064000D8A402D0010E01D0000E0001CD6F020E21
:100650000101E919D8A402D0010E01D0000E000159
:10066000CD15E8A02CD1E90E606F010E616F60EC32
:1006700008F00009D8B435D0000E0001FD6F090E56
:10068000FD6501D019D0FD51CD6FCE6B010ECD2788
:10069000000ECE23E90ECD25D96E010ECE21DA6EE5
:1006A000FD51010DC80EF324E16E010EF420E26E3F
:1006B000DFCFE7FFFD2BE3D7000EFD6F0F0EFD65CB
:1006C00001D00CD0FD51010DE90EF324D96E010EBD
:1006D000F420DA6E000EDF6EFD2BF0D7030E346EC1
:1006E000EED0D30E00017D6F010E7E6FDC0E7F6FAA
:1006F000010E806F640E816F61EC0CF0050E40EC12
:100700000CF0D30E0001776F010E786FDC0E796F5D
:10071000010E7A6F7FEC0AF0D30E0001776F010EA5
:10072000786FDC0E796F010E7A6F640E7B6F0BECC5
:100730000BF0C5D0010E0001FC6F010E346ED30E1C
:10074000776F010E786FDC0E796F010E7A6F640E91
:100750007B6F0BEC0BF0050E40EC0CF00101D2515D
:10076000010D000EF324D96E020EF420DA6E000E95
:10077000DF6ED251020D000EF324D96E010EF4206B
:10078000DA6E050EDE6E000EDD6E99D0010EF3EC12
:100790000CF0C80E0001666F010E676FC3EC0BF022
:1007A000020EF3EC0CF0390E0001666F030E676F5A
:1007B000C3EC0BF0D30E0001776F010E786FDC0EE7
:1007C000796F010E7A6F7FEC0AF00101D251010DB1
:1007D000000EF324D96E020EF420DA6EDF50D8A496
:1007E0001AD0D30E00017D6F010E7E6FDC0E7F6F7D
:1007F000010E806F640E816F61EC0CF00101D2512B
:10080000020D000EF324D96E010EF420DA6EDF50D3
:1008100040EC0CF050D00101D251010D000EF32438
:10082000D96E020EF420DA6EDE04D8A444D0D25180
:10083000020D000EF324D96E010EF420DA6E010EC3
:10084000DBBE20D0010EDB5003E1DE04D8A01AD0BD
:10085000D30E00017D6F010E7E6FDC0E7F6F010EE7
:10086000806F640E816F7FEC0CF00101D251020D9C
:10087000000EF324D96E010EF420DA6EDF5040EC46
:100880000CF019D0D30E00017D6F010E7E6FDC0ECF
:100890007F6F010E806F640E816F9DEC0CF0010183
:1008A000D251020D000EF324D96E010EF420DA6E3F
:1008B000DF5040EC0CF00101D20787D73468345088
:1008C000000AD8B4FBD5010AD8B41FD6030AD8B49D
:1008D000A5D6010AD8B45AD7FC0AD8B480D5EFD728
:1008E0002CC0C7F02DC0C8F02EC0C9F02FC0CAF070
:1008F000000E0001C56F000EC46F000ECC6F000E1D
:10090000CB6F000EC06F000EBF6F000EBE6F000EEB
:10091000BD6F000EC66F030EC26FE80EC16F280ECA
:10092000C36F8A4B8B2B8AC0D9FF8BC0DAFFDF5095
:10093000906F9051010DF3508C25D96EF4508D219C
:10094000DA6E020EDF6E8AC0D9FF8BC0DAFFDF508D
:10095000906F9051020DF3508825D96EF450892183
:10096000DA6EFD0EDE6EFF0EDD6E82C07DF083C09E
:100970007EF084C07FF085C080F0640E816F9DECB6
:100980000CF0030E40EC0CF082C077F083C078F0DE
:1009900084C079F085C07AF07FEC0AF082C07DF0E7
:1009A00083C07EF084C07FF085C080F0C3C081F03A
:1009B0007FEC0CF0000ED66E000ED76ED58E000EBA
:1009C0000001C06F010EBF6F46D186EC0BF060C016
:1009D000C7F061C0C8F049EC0BF060C0C9F061C05D
:1009E000CAF0000E696E000E686E000E676E000E93
:1009F000666E000E0001646F010EBBEC0CF0210E60
:100A0000E82EFED700F0000E0001646F020EBBEC72
:100A10000CF0060E0001906F300EE82EFED7902FDE
:100A2000FCD700F0010EF3EC0CF02D0E0001666F08
:100A3000030E676FC3EC0BF0020EF3EC0CF0950E97
:100A400000016C6F000E6D6F0C0E6E6F030E6F6FFA
:100A5000C7C070F0C8C071F0C9C072F0CAC073F0EE
:100A600070EC06F0950E0001666F000E676FC3EC28
:100A70000BF00001C951C15DCA51C259D8B009D0AB
:100A8000D750916F906BD6509025CB6F000E91216F
:100A9000CC6FC751C15DC851C259D8B009D0D75029
:100AA000916F906BD6509025C46F000E9121C56F49
:100AB000C451C511D8B4C3D0CB51CC11D8B474D063
:100AC000CB510008C425C66F000ED66E000ED76E3F
:100AD00082C077F083C078F084C079F085C07AF066
:100AE0007FEC0AF00CD082C07DF083C07EF084C021
:100AF0007FF085C080F0C3C081F09DEC0CF0000158
:100B0000D890C631906F916BD650D7CF92F0936B3F
:100B100092C093F0926B9227000E93239051925DB6
:100B20009351800A946F9151800A9459D8A0DBD7D1
:100B3000D59E82C077F083C078F084C079F085C0FC
:100B40007AF07FEC0AF000018A4B8B2B8AC0D9FF28
:100B50008BC0DAFFDF50906F9051010DF3508C2560
:100B6000D96EF4508D21DA6E010EDF6EC6C090F0A2
:100B7000D89090339051CB25916F000ECC21926F7D
:100B80008AC0D9FF8BC0DAFFDF50936F9351020DFB
:100B9000F3508825D96EF4508921DA6E91C0DEFFBA
:100BA00092C0DDFF020E12008A4B8B2B8AC0D9FF48
:100BB0008BC0DAFFDF50906F9051010DF3508C2500
:100BC000D96EF4508D21DA6E020EDF6E8AC0D9FF25
:100BD0008BC0DAFFDF50906F9051020DF3508825E3
:100BE000D96EF4508921DA6E010EDE6E000EDD6ED4
:100BF00082C077F083C078F084C079F085C07AF045
:100C00007FEC0AF082C07DF083C07EF084C07FF06C
:100C100085C080F0640E0001816F9DEC0CF0010E28
:100C200040EC0CF0D59E82C077F083C078F084C091
:100C300079F085C07AF07FEC0AF0020E12008EC0C7
:100C4000D9FF8FC0DAFFDE04D8A402D0020E120052
:100C50000001BF4BC02BBF51865DC0518759D8B032
:100C6000B4D68A4B8B2B8AC0D9FF8BC0DAFFDF50FA
:100C7000906F9051010DF3508C25D96EF4508D2159
:100C8000DA6E020EDF6E8AC0D9FF8BC0DAFFDF504A
:100C9000906F9051020DF3508825D96EF450892140
:100CA000DA6EFE0EDE6EFF0EDD6E82C07DF083C05A
:100CB0007EF084C07FF085C080F0640E816F7FEC91
:100CC0000CF0020E40EC0CF082C077F083C078F09C
:100CD00084C079F085C07AF07FEC0AF0FF0E120034
:100CE000700E0001786F000E796F37D1250E8019D4
:100CF000D8B409D06CC0D9FF6DC0DAFF80C0DFFF67
:100D00006C4B6D2B2AD1000E7F6F000E7E6F000E94
:100D10007D6F04D000017D856E4B6F2B6EC0F6FF9A
:100D20006FC0F7FF0800F550300AD8B4F3D76EC093
:100D3000F6FF6FC0F7FF0800F55075EC0DF0D8A076
:100D400035D0000E00017F6F000E7E6F7EC060F018
:100D50007FC061F0000E0001636F0A0E626F3DEC10
:100D60000DF060C07EF061C07FF0D00E0001746FA6
:100D7000FF0E756F6EC0F6FF6FC0F7FF0800F550ED
:100D8000766F776B745176277551772376517E276E
:100D900077517F236E4B6F2B6EC0F6FF6FC0F7FF4E
:100DA0000800F55075EC0DF0D8B0D0D76EC0F6FF46
:100DB0006FC0F7FF00016E4B6F2B0800F5CF80F07E
:100DC0008051000AD8B4D6D0640AD8B403D00D0A32
:100DD000D8A4C3D078C0D9FF79C0DAFFDECF7BF0CA
:100DE000DDCF7CF0020E00017827000E79237CAF66
:100DF00006D0030E7D137B6D7C1FD8B07C2B010EBB
:100E0000806F050E8019D8B412D08051020D010EEA
:100E1000F324F66E030EF420F76E0900F5507B5DA7
:100E20000900F5507C59D8A002D0802BEAD77E511A
:100E30007F11D8B409D07DC074F0030E7417D8B4F4
:100E400003D07E07D8A07F07800E80BF7F0E746F0F
:100E50007E51805D7F51800A7459D8B007D080518F
:100E60007E5F000E80BFFF0E7F5B04D0000E7F6FA1
:100E7000000E7E6F7DA51ED07DC074F0030E74172A
:100E8000D8B408D06CC0D9FF6DC0DAFF2D0EDF6E6C
:100E90006C4B6D2B7E517F11D8B42DD06CC0D9FF17
:100EA0006DC0DAFF300EDF6E6C4B6D2B7E07D8A065
:100EB0007F07F0D77E517F11D8B40FD06CC0D9FF17
:100EC0006DC0DAFF200EDF6E6C4B6D2B7E07D8A055
:100ED0007F077E517F11D8A4F1D77DC074F0030E37
:100EE0007417D8B408D06CC0D9FF6DC0DAFF2D0ECE
:100EF000DF6E6C4B6D2B80C07AF02BD07A51020DD7
:100F0000010EF324F66E030EF420F76E0900F5CF00
:100F100062F00A00F5CF63F07BC060F07CC061F046
:100F2000F4EC0BF060C067F061C068F0000E0001E7
:100F30006A6F0A0E696F1EEC0CF000016751300FEA
:100F4000806F6CC0D9FF6DC0DAFF80C0DFFF6C4BD3
:100F50006D2B7A077A29D8A4D1D76EC0F6FF6FC05F
:100F6000F7FF00016E4B6F2B0800F5CF80F080512A
:100F7000D8A4BCD66CC0D9FF6DC0DAFF000EDF6EFE
:100F800012006EC0D9FF6FC0DAFFDF500001706F32
:100F90007051606F616B20EE07F06E51D9266F5172
:100FA000DA22DECF62F0DDCF63F03DEC0DF060C001
:100FB00066F061C067F0000E0001696F640E686F33
:100FC000C8EC0AF066C075F067C076F0000120EE4C
:100FD00001F06E51D9266F51DA22DF50D8B42DD0EE
:100FE00020EE06F06E51D9266F51DA22DF50706F75
:100FF000010E716F702B02D0D8907137702FFCD713
:10100000000171518A108A6E20EE07F06E51D926C8
:101010006F51DA22DECF70F0DDCF71F075C072F063
:1010200076C073F0721F731F724B732B7051722551
:10103000756F71517321766F15D020EE06F06E51E9
:10104000D9266F51DA22DF50706F010E716F702B4D
:1010500002D0D8907137702FFCD700017151FF0A70
:101060008A148A6E20EE02F06E51D9266F51DA2270
:10107000DECF70F0DDCF71F070C0D9FF71C0DAFF44
:101080007545E846FC0BDF6E20EE04F06E51D92664
:101090006F51DA22DECF70F0DDCF71F070C0D9FF72
:1010A00071C0DAFF75C072F076C073F0060E746F0F
:1010B000733573337233742FFBD77251DF6E1200A6
:1010C000000E00016A6F000E696F000E686F000E5F
:1010D0006B6F20EE04F06051D9266151DA22DF50A7
:1010E000626F20EE03F06051D9266151DA22DF50A1
:1010F000636F6351656F646B62516425686F000EA6
:101100006521696F20EE02F06051D9266151DA2223
:10111000DF5068196A6F050E6B6F090E6B6501D0A1
:1011200028D06B51626F636B010E6227000E632340
:1011300062516025D96E63516121DA6EDF50646FB0
:101140006B51010DF3506025D96EF4506121DA6EB8
:10115000DF50656F6551676F666B64516625686F18
:10116000000E6721696F6A5168196A6F020E6B275A
:10117000D4D76A51626F636B20EE0BF06051D926B1
:101180006151DA22DF50646F6451666F656B20EE47
:101190000CF06051D9266151DA22DF50676F675138
:1011A0006527000E66236251651906E163516619D1
:1011B000D8A402D0010E1200000E120030C0B0F010
:1011C00031C0B1F032C0B2F033C0B3F0070E00014D
:1011D000AF6FD00EAE6F86EC0BF060C0B0F061C0A8
:1011E000B1F049EC0BF060C0B2F061C0B3F0000E9A
:1011F000696E000E686E000E676E000E666E000E61
:101200000001646F010EBBEC0CF0210EE82EFED73E
:1012100000F0000E0001646F020EBBEC0CF0060E35
:101220000001856F300EE82EFED7852FFCD700F029
:10123000010EF3EC0CF02D0E0001666F030E676FCC
:10124000C3EC0BF0020EF3EC0CF0860E00016C6F99
:10125000000E6D6F0C0E6E6F030E6F6FB0C070F0EE
:10126000B1C071F0B2C072F0B3C073F070EC06F0B0
:10127000860E0001666F000E676FC3EC0BF0000175
:10128000B051AE5DB151AF59D8B008D0B251AE5DDA
:10129000B351AF59D8B002D0020E120081C077F01E
:1012A00082C078F083C079F084C07AF07FEC0AF0D5
:1012B000000E1200929C9490949294949590959222
:1012C000270E0001666FF50EE82EFED7662FFCD7BD
:1012D000030EC1EC09F00D0E0001666FFB0EE82E47
:1012E000FED7662FFCD700D0030EC1EC09F0850EA7
:1012F000E82EFED700F0030EC1EC09F0210EE82E17
:10130000FED700F0020EC1EC09F0210EE82EFED748
:1013100000F0000E0001646F280EBBEC0CF0210EF3
:10132000E82EFED700F0000E0001646F080EBBEC43
:101330000CF0210EE82EFED700F0000E0001646FC5
:10134000010EBBEC0CF00D0E0001666FFB0EE82EDB
:10135000FED7662FFCD700D0000E0001646F060E8A
:10136000BBEC0CF0210EE82EFED700F0000E0001C1
:10137000646F0C0EBBEC0CF0210EE82EFED700F0D3
:1013800012000001636F00016351606F616B070E13
:10139000D89060376137E82EFBD7070E626F613552
:1013A00061336033622FFBD760478B506019FD0BB0
:1013B00060198B6E6351606F616B060ED890603759
:1013C0006137E82EFBD7070E626F613561336033FA
:1013D000622FFBD7604760478B506019FB0B601989
:1013E0008B6E6351606F616B050ED890603761370B
:1013F000E82EFBD7070E626F613561336033622FD1
:10140000FBD78C506019FE0B60198C6E6351606FB6
:10141000616B603B613BF00E611760510F0B611314
:10142000F00E6017070E626F613561336033622F13
:10143000FBD760478C506019FD0B60198C6E9DECDA
:101440000DF0030EE82EFED700F01200FACF05F0E3
:10145000FBCF06F0E9CF07F0EACF08F0E1CF09F0C3
:10146000E2CF0AF0D9CF0BF0DACF0CF0F3CF0DF0CA
:10147000F4CF0EF0F6CF0FF0F7CF10F0F8CF11F059
:10148000F5CF12F036C013F037C014F038C015F0A5
:1014900039C016F0F2A20DD03428D8A403D0010E22
:1014A000346E03D03450D8A43468020ED7EC0CF05C
:1014B000F29216C039F015C038F014C037F013C0DE
:1014C00036F012C0F5FF11C0F8FF10C0F7FF0FC0D3
:1014D000F6FF0EC0F4FF0DC0F3FF0CC0DAFF0BC027
:1014E000D9FF0AC0E2FF09C0E1FF08C0EAFF07C058
:1014F000E9FF06C0FBFF05C0FAFF3692110028D0B5
:1015000077C0D9FF78C0DAFFDF50D8B405D077C0F4
:10151000D9FF78C0DAFFDF0679C0D9FF7AC0DAFFD9
:10152000DF50D8B405D079C0D9FF7AC0DAFFDF0622
:1015300077C06EF078C06FF0C1EC07F079C06EF044
:101540007AC06FF0C1EC07F0210EE82EFED700F054
:1015500077C0D9FF78C0DAFFDF50D8A4D1D779C0DF
:10156000D9FF7AC0DAFFDF50D8A4CAD7000120EE35
:1015700001F07751D9267851DA22010EDF6E20EE84
:1015800001F07951D9267A51DA22010EDF6E12006C
:10159000000E00016B6F69AF06D0686D691FD8B08F
:1015A000692B010E6B6F67AF06D0666D671FD8B0F1
:1015B000672B010E6B1B000E6D6F000E6C6F685178
:1015C0006911D8B41CD0010E6A6F04D0D890683766
:1015D00069376A2B69AFFAD7D8906C376D37685185
:1015E000665D69516759D8A005D06851665F695139
:1015F000675B6C81D890693368336A2FEDD76B5184
:10160000D8B404D06C6D6D1FD8B06D2B6CC066F073
:101610006DC067F012002BD077C0D9FF78C0DAFF19
:1016200000017B51DE5CD8B005D077C0D9FF78C00F
:10163000DAFFDF2A79C0D9FF7AC0DAFF7B51DE5C9E
:10164000D8B005D079C0D9FF7AC0DAFFDF2A77C0D9
:101650006EF078C06FF0C1EC07F079C06EF07AC020
:101660006FF0C1EC07F0210EE82EFED700F077C036
:10167000D9FF78C0DAFF00017B51DE5CD8A0CCD75F
:1016800079C0D9FF7AC0DAFF7B51DE5CD8B0120096
:10169000C3D7000E0001666F000E656F000E676F06
:1016A000000E676F030E676501D021D06950626F2D
:1016B000636B070ED89062376337E82EFBD768CF8D
:1016C00064F0D890643364516213000E6313625166
:1016D000652763516623820E0001626FDD0EE82EDE
:1016E000FED7622FFCD700D00001672BDBD765C087
:1016F00062F066C063F0D89063336233D89063338E
:10170000623362C060F063C061F01200000E00013D
:10171000666F000E656F000E676F000E676F030E39
:10172000676501D021D06750626F636B070ED89058
:1017300062376337E82EFBD766CF64F0D890643306
:1017400064516213000E631362516527635166236F
:10175000820E0001626FDD0EE82EFED7622FFCD7ED
:1017600000D00001672BDBD765C062F066C063F074
:10177000D89063336233D8906333623362C060F0D1
:1017800063C061F012001CD0010E0001646F66C0DE
:10179000F6FF67C0F7FFF86A020EF76403D008008F
:1017A000F55005D0F6CFE1FFF7CFE2FFE750BBECF5
:1017B0000CF00001664B672B210EE82EFED700F0DF
:1017C00066C0F6FF67C0F7FFF86A020EF76403D041
:1017D0000800F55005D0F6CFE1FFF7CFE2FFE75064
:1017E0000009D8B41200D0D7000E0001666F000EB9
:1017F000656F62516311D8B41CD0010E646F04D0C0
:10180000D89062376337642B63AFFAD7D8906537C7
:1018100066376251605D63516159D8A005D062514D
:10182000605F6351615B6581D89063336233642F7D
:10183000EDD765C060F066C061F01200000169512B
:101840006A11D8B418D0010E6B6F04D0D8906937E4
:101850006A376B2B6AAFFAD76951675D6A5168596D
:10186000D8A004D06951675F6A51685BD8906A3329
:1018700069336B2FF1D767C067F068C068F012005A
:101880000001616F000E0001636F000E626F000EB9
:10189000636F010E626F0CD0820E0001606FDD0E6F
:1018A000E82EFED7602FFCD700D00001624B632BDF
:1018B0006151020D6251F35C6351F458D8A01200DB
:1018C000EBD7000120EE01F07D51D9267E51DA22BE
:1018D000000EDF6E20EE01F07F51D9268051DA2212
:1018E000000EDF6E7DC077F07EC078F07FC079F0AB
:1018F00080C07AF081C07BF00BEC0BF0120000018D
:1019000020EE01F07D51D9267E51DA22000EDF6EE5
:1019100020EE01F07F51D9268051DA22010EDF6ED0
:101920007DC077F07EC078F07FC079F080C07AF01B
:1019300081C07BF00BEC0BF01200000120EE01F0F7
:101940007D51D9267E51DA22010EDF6E20EE01F0A4
:101950007F51D9268051DA22000EDF6E7DC077F0EC
:101960007EC078F07FC079F080C07AF081C07BF0D3
:101970000BEC0BF012000001656F000164B102D0A6
:10198000899C01D0898C000165390F0B0F0BC1ECCC
:1019900009F0060EE82EFED700D0000165510F0BAE
:1019A000C1EC09F0210EE82EFED700F01200026E05
:1019B000000E046E000E036E000E046E010E036E28
:1019C00009D0820E016EDE0EE82EFED7012EFCD766
:1019D000034A042A0250020D0350F35C0450F458E9
:1019E000D8A01200EED70001666F00016605D8A4EA
:1019F00006D0000E646F800EBBEC0CF00AD0020E15
:101A000000016619D8A405D0000E646FC00EBBECAF
:101A10000CF0210EE82EFED700F01200000E7F6EB3
:101A2000800E7E6E6F0E6F6E000E6E6EC70E7B6E3A
:101A3000000E7A6E000E796E000E786E000E776ED4
:101A4000000E766E939093929394939612000001F9
:101A5000616F00016151D8A406D060B102D08D90B1
:101A600001D08D80120000016105D8A4120060B180
:101A700002D08D9201D08D8212000001605162036C
:101A8000F3CF64F0F4CF65F060516303F350652742
:101A900061516203F350652764C060F065C061F076
:101AA000120001EEE5F0150EEE6AE806FDE100EE2B
:101AB0002CF00A0EEE6AE806FDE136903692000E32
:101AC000F86E0001A8EF01F08994899692849286BD
:101AD000B894B896B89CB89E060E636E060E626EF9
:101AE00096909692590EB76E12000001626F000E2A
:101AF0000001616F3A0E626105D02F0E626502D05F
:101B0000010E616F61C060F0603112009450C00935
:101B1000946ECD0EAF6E000EB06EAA86AC84AB880C
:101B2000AB8EAC98AB9C1200D59ED59CD59AD59621
:101B3000D580D582D584F29A12008B80030EE82ED0
:081B4000FED700F08B901200AB
:020000040020DA
:08000000FFFFFFFFFFFFFFFF00
:020000040030CA
:0E000000FFC80F3E3C1D81FF0FC00FE00F40F8
:00000001FF
