:040000007BEF00F0A2
:060008003482B2EF0AF0A1
:100018003480D8CF17F0E8CF18F0E0CF19F0FACF36
:100028001AF0FBCF1BF0E9CF1CF0EACF1DF0E1CFAF
:100038001EF0E2CF1FF0D9CF20F0DACF21F0F3CFB6
:1000480022F0F4CF23F0F6CF24F0F7CF25F0F8CF45
:1000580026F0F5CF27F034C028F035C029F036C097
:100068002AF037C02BF09EAA16D03350010DE60EA9
:10007800F324D96E010EF420DA6EAECFDFFF010E45
:100088000101F66F0F0E3318D8A403D0000E336E9B
:1000980001D0332A9E9A2BC037F02AC036F029C0E7
:1000A80035F028C034F027C0F5FF26C0F8FF25C07A
:1000B800F7FF24C0F6FF23C0F4FF22C0F3FF21C0DE
:1000C800DAFF20C0D9FF1FC0E2FF1EC0E1FF1DC03C
:1000D800EAFF1CC0E9FF1BC0FBFF1AC0FAFF19C0EA
:1000E800E0FF18C0E8FF17C0D8FF3490100086EF73
:0200F8000DF009
:100300000001000A006400E80310272020202020BC
:1003100020253034642C2025303464002020202017
:100320002020496E657274204D6F64650020202086
:1003300020205363616E495200476F696E67204801
:0F0340006F6D6500536561726368696E670000D9
:10035000000E0101CE6F000ECD6F22EE00F011EE07
:100360005AF0630EDBCFE3FFE806FCE222EE64F016
:1003700011EE28F0310EDBCFE3FFE806FCE2000EC1
:10038000CF6FE2C1C9F1E3C1CAF1E4C1CBF1E5C16C
:10039000CCF13C0EC86FF28EF28CF28CD08E9F9A0C
:1003A0009D8A9486F2889E9AF292000ED06F010E7A
:1003B000D16F790ED26F0F0ED36F780ED46F0F0EF0
:1003C000D56F000ED66F000ED86FC70ED76F000E18
:1003D000D96F010EDA6F770EDB6F0F0EDC6F760EC2
:1003E000DD6F0F0EDE6F020EDF6F000EE16FC70EC6
:1003F000E06F720ED36ED3B404D3FDD7D00E0001DC
:10040000716F010E726FD90E736F010E746F0BEC6A
:100410000BF0000E0101F66F000ECF6F10EC0CF028
:100420002CC0C9F12DC0CAF1D5EC0BF02CC0CBF11A
:100430002DC0CCF1000E696E000E686E000E676E66
:10044000000E666E000E306E010ED5EC0DF0210E22
:10045000E82EFED700F0000E306E020ED5EC0DF047
:10046000060E0001C96F300EE82EFED7C92FFCD74B
:1004700000F0010EA1EC0DF01C0E0001606F030EE8
:10048000616F4BEC0CF0020EA1EC0DF00101F65186
:10049000D8B408D0BE0E0001606F010E616F4BEC46
:1004A0000CF0AFD2000E0001676F010E686F0B0EEB
:1004B000696F030E6A6FC9C16BF0CAC16CF0CBC122
:1004C0006DF0CCC16EF084EC07F0000E0001606F9F
:1004D000010E616F4BEC0CF094D2BCEC0DF041ECD2
:1004E0000EF033EC0EF050EC0AF013EC0EF0010EAF
:1004F0002C6E000EEDEC0DF0010E2C6E010EEDECED
:100500000DF0D00E0001716F010E726FD90E736F76
:10051000010E746F640E756F97EC0BF0010E4EECCC
:100520000DF06ED2010EA1EC0DF0440E0001606FD3
:10053000030E616F4BEC0CF00101CD29D8A434D02F
:10054000CF51010D280EF324D96E010EF420DA6E7E
:10055000000EDF6ECF51020D5A0EF324D96E010E3C
:10056000F420DA6E060EDE6E000EDD6ECF2BD00E9E
:100570000001716F010E726FD90E736F010E746FEF
:10058000640E756F97EC0BF0060E4EEC0DF0D00E6E
:100590000001716F010E726FD90E736F010E746FCF
:1005A0000BEC0BF0000E30D0CD51D8A41FD0D00EE4
:1005B00000017C6F010E7D6FD90E7E6F010E7F6F83
:1005C000C8C180F0816B5A0E826F010E836FCF0E0F
:1005D000846F010E856F280E866F010E876FF60EF1
:1005E000886F010E896F12EC05F00ED0CD05D8A4EE
:1005F0000ED0D00E00017C6F010E7D6FD90E7E6F84
:10060000010E7F6F73EC09F00101CD6FFAD1020E7C
:10061000CD19D8A4F6D1020E326ECF51010D280E9D
:10062000F324D96E010EF420DA6E010EDF6EE9D1EB
:100630000101F651D8B48AD0D00E0001716F010EBD
:10064000726FD90E736F010E746F0BEC0BF0030E0B
:100650000101F519D8A402D0010E01D0000E00014D
:10066000C96F020E0101E619D8A402D0010E01D013
:10067000000E0001C915E8A0C4D1E60E2C6E010ED3
:100680002D6E7BEC0CF00009D8B437D0000E0101C0
:10069000CE6F090ECE6501D01BD0CE510001C96FBF
:1006A000CA6B010EC927000ECA23E60EC925D96EF2
:1006B000010ECA21DA6E0101CE51010DBE0EF324E6
:1006C000E16E010EF420E26EDFCFE7FFCE2BE1D723
:1006D000000ECE6F0F0ECE6501D00CD0CE51010DA5
:1006E000E60EF324D96E010EF420DA6E000EDF6EF2
:1006F000CE2BF0D7030E326E84D1D00E0001776F6F
:10070000010E786FD90E796F010E7A6F640E7B6FD0
:10071000F4EC0CF0050E4EEC0DF0D00E0001716FF4
:10072000010E726FD90E736F010E746F0BEC0BF02C
:10073000D00E0001716F010E726FD90E736F010E32
:10074000746F640E756F97EC0BF05BD1010E0101B5
:10075000CD6F010E326ED00E0001716F010E726FFF
:10076000D90E736F010E746F640E756F97EC0BF0FA
:10077000010E4EEC0DF00101CF51010D280EF324B6
:10078000D96E010EF420DA6E000EDF6ECF51020D2D
:100790005A0EF324D96E010EF420DA6E050EDE6EC9
:1007A000000EDD6ECF2B2DD1010EA1EC0DF0BE0E93
:1007B0000001606F010E616F4BEC0CF0020EA1ECBA
:1007C0000DF0390E0001606F030E616F4BEC0CF001
:1007D0000101CFBF0AD1D00E0001716F010E726FFF
:1007E000D90E736F010E746F0BEC0BF00101CF513A
:1007F000010D280EF324D96E010EF420DA6EDF50BD
:10080000D8A41AD0D00E0001776F010E786FD90EE0
:10081000796F010E7A6F640E7B6FF4EC0CF00101BE
:10082000CF51020D5A0EF324D96E010EF420DA6E68
:10083000DF504EEC0DF0D6D00101CF51010D280E46
:10084000F324D96E010EF420DA6EDE04D8A479D038
:10085000D59E000ED66E000ED76ECF51020D5A0EE9
:10086000F324D96E010EF420DA6E010EDBBE33D014
:10087000010EDB5003E1DE04D8A02DD0D58ED00EC2
:100880000001776F010E786FD90E796F010E7A6FC4
:10089000280E7B6F12EC0DF00101CF51020D5A0EA4
:1008A000F324D96E010EF420DA6ED650D7CFCBF0F8
:1008B0000001CC6BCBC0CCF0CB6BCB27000ECC2394
:1008C000DE50CB5DCC51800ACD6FDE50800ACD5911
:1008D000D8A0E2D734D0D58ED00E0001776F010EAC
:1008E000786FD90E796F010E7A6F280E7B6F30EC1E
:1008F0000DF00101CF51020D5A0EF324D96E010EF5
:10090000F420DA6EDECFC9F0DDCFCAF00001C91FD6
:10091000CA1FC94BCA2BD650D7CFCBF0CC6BCBC09C
:10092000CCF0CB6BCB27000ECC23C951CB5DCC5187
:10093000800ACD6FCA51800ACD59D8A0DAD7D59E8A
:1009400051D00101CF51010D280EF324D96E010EB3
:10095000F420DA6E020EDE18D8A444D0CF51020D76
:100960005A0EF324D96E010EF420DA6E010EDBBEAE
:1009700020D0010EDB5003E1DE04D8A01AD0D00E47
:100980000001776F010E786FD90E796F010E7A6FC3
:10099000640E7B6F12EC0DF00101CF51020D5A0E67
:1009A000F324D96E010EF420DA6EDF504EEC0DF018
:1009B00019D0D00E0001776F010E786FD90E796FC4
:1009C000010E7A6F640E7B6F30EC0DF00101CF5198
:1009D000020D5A0EF324D96E010EF420DA6EDF50A8
:1009E0004EEC0DF00101CF07F4D6D00E0001716F6F
:1009F000010E726FD90E736F010E746F0BEC0BF05A
:100A000032683250000AD8B468D5010AD8B48AD501
:100A1000030AD8B40DD6010AD8B4C6D6FC0AD8B495
:100A2000EDD4EFD7CEC0C3F0CFC0C4F0D0C0C5F076
:100A3000D1C0C6F0000E0001C16F000EC06F000EE5
:100A4000C86F000EC76F000EBA6F000EB96F000EB0
:100A5000B86F000EB76F000EC26F030EBC6FE80ECA
:100A6000BB6F280EBD6F020EBE6F010EBF6F84C03C
:100A7000D9FF85C0DAFFDF508A6F8A51010DF3502C
:100A80008625D96EF4508721DA6E020EDF6EBE51D4
:100A90008A6F8B6B84C0D9FF85C0DAFFDF508C6F03
:100AA0008C51020DF3508225D96EF4508321DA6EF9
:100AB0008AC0DEFF8BC0DDFF84C0D9FF85C0DAFFAE
:100AC000DF508A6F8A2984C0D9FF85C0DAFFDF6EC4
:100AD0007CC077F07DC078F07EC079F07FC07AF07E
:100AE000640E7B6F30EC0DF00001BE514EEC0DF04A
:100AF0007CC071F07DC072F07EC073F07FC074F076
:100B00000BEC0BF07CC077F07DC078F07EC079F004
:100B10007FC07AF0BDC07BF012EC0DF0000ED66EF7
:100B2000000ED76ED58E000E0001BA6F010EB96FA0
:100B30009CD110EC0CF02CC0C3F02DC0C4F0D5EC4F
:100B40000BF02CC0C5F02DC0C6F0000E696E000E73
:100B5000686E000E676E000E666E000E306E010E3F
:100B6000D5EC0DF0210EE82EFED700F0000E306E11
:100B7000020ED5EC0DF0060E00018A6F300EE82E45
:100B8000FED78A2FFCD700F0010EA1EC0DF02D0E40
:100B90000001606F030E616F4BEC0CF0020EA1ECD4
:100BA0000DF08F0E0001676F000E686F0C0E696FFD
:100BB000030E6A6FC3C06BF0C4C06CF0C5C06DF0AB
:100BC000C6C06EF084EC07F08F0E0001606F000E5F
:100BD000616F4BEC0CF00001C551BB5DC651BC59B7
:100BE000D8B009D0D7508B6F8A6BD6508A25C76F83
:100BF000000E8B21C86FC351BB5DC451BC59D8B026
:100C000009D0D7508B6F8A6BD6508A25C06F000EE3
:100C10008B21C16FC051C111D8B41CD1C751C811AB
:100C2000D8B482D0C7510008C025C26F000ED66E5E
:100C3000000ED76E7CC071F07DC072F07EC073F084
:100C40007FC074F00BEC0BF00CD07CC077F07DC053
:100C500078F07EC079F07FC07AF0BDC07BF030ECD8
:100C60000DF00001D890C2318A6F8B6BD650D7CF70
:100C70008CF08D6B8CC08DF08C6B8C27000E8D23CF
:100C80008A518C5D8D51800A8E6F8B51800A8E59EE
:100C9000D8A0DBD7D59E7CC071F07DC072F07EC03D
:100CA00073F07FC074F00BEC0BF084C0D9FF85C0EB
:100CB000DAFFDF5000018A6F8A51010DF35086255B
:100CC000D96EF4508721DA6E010EDF6EC2C08AF051
:100CD000D8908A338A51C7258B6F000EC8218C6F3C
:100CE0008B1F8C1F8B4B8C2B84C0D9FF85C0DAFFE8
:100CF000DF508D6F8D51020DF3508225D96EF45067
:100D00008321DA6E8BC0DEFF8CC0DDFF84C0D9FF8B
:100D100085C0DAFFDF508A6F8A2984C0D9FF85C079
:100D2000DAFFDF6E020E1200D59E84C0D9FF85C0A7
:100D3000DAFFDF508A6F8A51010DF3508625D96E94
:100D4000F4508721DA6E010EDF6ED650D7CF8AF0CD
:100D50008B6B8AC08BF08A6B8A27000E8B238A1FCD
:100D60008B1F8A4B8B2B84C0D9FF85C0DAFFDF50E5
:100D70008C6F8C51020DF3508225D96EF450832173
:100D8000DA6E8AC0DEFF8BC0DDFF84C0D9FF85C06C
:100D9000DAFFDF508A6F8A2984C0D9FF85C0DAFF65
:100DA000DF6E7CC071F07DC072F07EC073F07FC0DA
:100DB00074F00BEC0BF07CC077F07DC078F07EC057
:100DC00079F07FC07AF0640E00017B6F30EC0DF09B
:100DD0000001BF514EEC0DF07CC071F07DC072F08F
:100DE0007EC073F07FC074F00BEC0BF084C0D9FFB1
:100DF00085C0DAFFDF5000018A6F8A51010DF35080
:100E00008625D96EF4508721DA6E020EDF6EBF514F
:100E10008A6F8B6B84C0D9FF85C0DAFFDF508C6F7F
:100E20008C51020DF3508225D96EF4508321DA6E75
:100E30008AC0DEFF8BC0DDFF84C0D9FF85C0DAFF2A
:100E4000DF508A6F8A2984C0D9FF85C0DAFFDF6E40
:100E5000020E120088C0D9FF89C0DAFFDE04D8A4D0
:100E600002D0020E1200B94BBA2BB951805DBA51B3
:100E70008159D8B05ED684C0D9FF85C0DAFFDF5073
:100E80008A6F8A51010DF3508625D96EF45087215F
:100E9000DA6E020EDF6E84C0D9FF85C0DAFFDF5044
:100EA0008A6F8A51020DF3508225D96EF450832146
:100EB000DA6EFE0EDE6EFF0EDD6E84C0D9FF85C0D9
:100EC000DAFFDF508A6F8A2984C0D9FF85C0DAFF34
:100ED000DF6E7CC077F07DC078F07EC079F07FC097
:100EE0007AF0640E7B6F12EC0DF0020E4EEC0DF0FA
:100EF0007CC071F07DC072F07EC073F07FC074F072
:100F00000BEC0BF0FF0E12006B0E0001736F000E66
:100F1000746F36D1250E7B19D8B409D067C0D9FFBC
:100F200068C0DAFF7BC0DFFF674B682B29D1000E5A
:100F30007A6F000E796F000E786F04D0000178850B
:100F4000694B6A2B69C0F6FF6AC0F7FF0800F550CD
:100F5000300AD8B4F3D769C0F6FF6AC0F7FF0800BB
:100F6000F55024EC0EF0D8A034D0000E00017A6FBA
:100F7000000E796F79C02CF07AC02DF0000E2F6E24
:100F80000A0E2E6E00EC0EF02CC079F02DC07AF017
:100F9000D00E00016F6FFF0E706F69C0F6FF6AC060
:100FA000F7FF0800F550716F726B6F517127705128
:100FB00072237151792772517A23694B6A2B69C068
:100FC000F6FF6AC0F7FF0800F55024EC0EF0D8B029
:100FD000D1D769C0F6FF6AC0F7FF0001694B6A2BE1
:100FE0000800F5CF7BF07B51000AD8B4D6D0640A54
:100FF000D8B403D00D0AD8A4C3D073C0D9FF74C02D
:10100000DAFFDECF76F0DDCF77F0020E0001732736
:10101000000E742377AF06D0030E7813766D771F1A
:10102000D8B0772B010E7B6F050E7B19D8B412D088
:101030007B51020D010EF324F66E030EF420F76EC1
:101040000900F550765D0900F5507759D8A002D017
:101050007B2BEAD779517A11D8B409D078C06FF0D8
:10106000030E6F17D8B403D07907D8A07A07800E83
:101070007BBF7F0E6F6F79517B5D7A51800A6F590C
:10108000D8B007D07B51795F000E7BBFFF0E7A5B33
:1010900004D0000E7A6F000E796F78A51ED078C04C
:1010A0006FF0030E6F17D8B408D067C0D9FF68C0BF
:1010B000DAFF2D0EDF6E674B682B79517A11D8B4A9
:1010C0002DD067C0D9FF68C0DAFF300EDF6E674BE6
:1010D000682B7907D8A07A07F0D779517A11D8B45C
:1010E0000FD067C0D9FF68C0DAFF200EDF6E674BF4
:1010F000682B7907D8A07A0779517A11D8A4F1D74B
:1011000078C06FF0030E6F17D8B408D067C0D9FF4E
:1011100068C0DAFF2D0EDF6E674B682B7BC075F061
:101120002BD07551020D010EF324F66E030EF42040
:10113000F76E0900F5CF2EF00A00F5CF2FF076C03C
:101140002CF077C02DF0A8EC0CF02CC063F02DC073
:1011500064F0000E0001666F0A0E656FD2EC0CF0B1
:1011600000016351300F7B6F67C0D9FF68C0DAFFA1
:101170007BC0DFFF674B682B75077529D8A4D1D7D3
:1011800069C0F6FF6AC0F7FF0001694B6A2B0800CF
:10119000F5CF7BF07B51D8A4BDD667C0D9FF68C01E
:1011A000DAFF000EDF6E120068C0D9FF69C0DAFFF7
:1011B000DF5000016A6F6A512C6E2D6A20EE07F035
:1011C0006851D9266951DA22DECF2EF0DDCF2FF01B
:1011D00000EC0EF02CC060F02DC061F0000E00019C
:1011E000636F640E626F54EC0BF060C06FF061C00F
:1011F00070F0000120EE01F06851D9266951DA2221
:10120000DF50D8B42DD020EE06F06851D9266951B0
:10121000DA22DF506A6F010E6B6F6A2B02D0D89012
:101220006B376A2FFCD700016B518A108A6E20EE53
:1012300007F06851D9266951DA22DECF6AF0DDCF96
:101240006BF06FC06CF070C06DF06C1F6D1F6C4B5D
:101250006D2B6A516C256F6F6B516D21706F15D0BE
:1012600020EE06F06851D9266951DA22DF506A6F04
:10127000010E6B6F6A2B02D0D8906B376A2FFCD7A8
:1012800000016B51FF0A8A148A6E20EE02F0685149
:10129000D9266951DA22DECF6AF0DDCF6BF06AC061
:1012A000D9FF6BC0DAFF6F45E846FC0BDF6E20EE1E
:1012B00004F06851D9266951DA22DECF6AF0DDCF19
:1012C0006BF06AC0D9FF6BC0DAFF6FC06CF070C002
:1012D0006DF0060E6E6F6D356D336C336E2FFBD770
:1012E0006C51DF6E1200D2C0ABF0D3C0ACF0D4C0F2
:1012F000ADF0D5C0AEF0030E0001AA6FE80EA96FE5
:1013000010EC0CF02CC0ABF02DC0ACF0D5EC0BF019
:101310002CC0ADF02DC0AEF0000E696E000E686EF0
:10132000000E676E000E666E000E306E010ED5EC7C
:101330000DF0210EE82EFED700F0000E306E020EEA
:10134000D5EC0DF0060E0001806F300EE82EFED7B2
:10135000802FFCD700F0010EA1EC0DF02D0E000146
:10136000606F030E616F4BEC0CF0020EA1EC0DF000
:10137000810E0001676F000E686F0C0E696F030E1F
:101380006A6FABC06BF0ACC06CF0ADC06DF0AEC0BE
:101390006EF084EC07F0810E0001606F000E616F4B
:1013A0004BEC0CF00001AB51A95DAC51AA59D8B07F
:1013B00008D0AD51A95DAE51AA59D8B002D0020EE5
:1013C00012007CC071F07DC072F07EC073F07FC0EF
:1013D00074F00BEC0BF0000E12002F6E2F502C6EE1
:1013E0002D6A070ED8902C362D36E82EFBD7070E27
:1013F0002E6E2D342D322C322E2EFBD72C468B50B8
:101400002C18FD0B2C188B6E2F502C6E2D6A060E8F
:10141000D8902C362D36E82EFBD7070E2E6E2D34A5
:101420002D322C322E2EFBD72C462C468B502C18CE
:10143000FB0B2C188B6E2F502C6E2D6A050ED8903E
:101440002C362D36E82EFBD7070E2E6E2D342D327E
:101450002C322E2EFBD78C502C18FE0B2C188C6E99
:101460002F502C6E2D6A2C3A2D3AF00E2D162C5042
:101470000F0B2D12F00E2C16070E2E6E2D342D3262
:101480002C322E2EFBD72C468C502C18FD0B2C18F2
:101490008C6E4AEC0EF0030EE82EFED700F0120020
:1014A000929C94909492949495909592270E00011A
:1014B000606FF50EE82EFED7602FFCD7030EEDEC23
:1014C00009F00D0E0001606FFB0EE82EFED7602FB5
:1014D000FCD700D0030EEDEC09F0850EE82EFED708
:1014E00000F0030EEDEC09F0210EE82EFED700F01F
:1014F000020EEDEC09F0210EE82EFED700F0000EF2
:10150000306E280ED5EC0DF0210EE82EFED700F03F
:10151000000E306E080ED5EC0DF0210EE82EFED731
:1015200000F0000E306E010ED5EC0DF00D0E000136
:10153000606FFB0EE82EFED7602FFCD700D0000EA8
:10154000306E060ED5EC0DF0210EE82EFED700F021
:10155000000E306E0C0ED5EC0DF0210EE82EFED7ED
:1015600000F01200FACF05F0FBCF06F0E9CF07F04C
:10157000EACF08F0E1CF09F0E2CF0AF0D9CF0BF0C3
:10158000DACF0CF0F3CF0DF0F4CF0EF0F6CF0FF072
:10159000F7CF10F0F8CF11F0F5CF12F034C013F000
:1015A00035C014F036C015F037C016F0F2A20DD0D9
:1015B0003228D8A403D0010E326E03D03250D8A402
:1015C0003268020E6AEC0DF0F29216C037F015C0C8
:1015D00036F014C035F013C034F012C0F5FF11C05E
:1015E000F8FF10C0F7FF0FC0F6FF0EC0F4FF0DC0EC
:1015F000F3FF0CC0DAFF0BC0D9FF0AC0E2FF09C03D
:10160000E1FF08C0EAFF07C0E9FF06C0FBFF05C015
:10161000FAFF3492110028D071C0D9FF72C0DAFFEE
:10162000DF50D8B405D071C0D9FF72C0DAFFDF0631
:1016300073C0D9FF74C0DAFFDF50D8B405D073C0CF
:10164000D9FF74C0DAFFDF0671C068F072C069F0BC
:10165000D4EC08F073C068F074C069F0D4EC08F002
:10166000210EE82EFED700F071C0D9FF72C0DAFF5C
:10167000DF50D8A4D1D773C0D9FF74C0DAFFDF50D0
:10168000D8A4CAD7000120EE01F07151D9267251B9
:10169000DA22010EDF6E20EE01F07351D92674516B
:1016A000DA22010EDF6E1200000E0001656F63AFDB
:1016B00006D0626D631FD8B0632B010E656F61AFFA
:1016C00006D0606D611FD8B0612B010E651B000E46
:1016D000676F000E666F62516311D8B41CD0010EA3
:1016E000646F04D0D89062376337642B63AFFAD746
:1016F000D890663767376251605D63516159D8A0F1
:1017000005D06251605F6351615B6681D89063333D
:101710006233642FEDD76551D8B404D0666D671F6E
:10172000D8B0672B66C060F067C061F012002BD0A4
:1017300071C0D9FF72C0DAFF00017551DE5CD8B00C
:1017400005D071C0D9FF72C0DAFFDF2A73C0D9FF9C
:1017500074C0DAFF7551DE5CD8B005D073C0D9FF14
:1017600074C0DAFFDF2A71C068F072C069F0D4EC8F
:1017700008F073C068F074C069F0D4EC08F0210E72
:10178000E82EFED700F071C0D9FF72C0DAFF000169
:101790007551DE5CD8A0CCD773C0D9FF74C0DAFF16
:1017A0007551DE5CD8B01200C3D7000E0001616F26
:1017B000000E606F000E626F000E626F030E6265B6
:1017C00001D01FD069502E6E2F6A070ED8902E368A
:1017D0002F36E82EFBD768CF30F0D890303230501B
:1017E0002E12000E2F122E5060272F506123820ED2
:1017F0002E6EDE0EE82EFED72E2EFCD70001622BB9
:10180000DDD760C02EF061C02FF0D8902F322E327D
:10181000D8902F322E322EC02CF02FC02DF0120077
:10182000000E0001616F000E606F000E626F000E0F
:10183000626F030E626501D01FD067502E6E2F6A53
:10184000070ED8902E362F36E82EFBD766CF30F015
:10185000D890303230502E12000E2F122E506027AA
:101860002F506123820E2E6EDE0EE82EFED72E2E16
:10187000FCD70001622BDDD760C02EF061C02FF0D5
:10188000D8902F322E32D8902F322E322EC02CF0FC
:101890002FC02DF012001BD0010E306E60C0F6FF7D
:1018A00061C0F7FFF86A020EF76403D00800F55034
:1018B00005D0F6CFE1FFF7CFE2FFE750D5EC0DF012
:1018C0000001604B612B210EE82EFED700F060C0B6
:1018D000F6FF61C0F7FFF86A020EF76403D0080054
:1018E000F55005D0F6CFE1FFF7CFE2FFE750000952
:1018F000D8B41200D1D7000E0001616F000E636FE3
:10190000000E626F000E606F20EE04F02C50D9269E
:101910002D50DA22DF502E6E20EE03F02C50D92607
:101920002D50DA22DF502F6E2F50316E306A2E503C
:101930003024626F000E3120636F20EE02F02C50D5
:10194000D9262D50DA22DF506219616F010E120084
:10195000000E0001626F000E616F2E502F10D8B480
:101960001CD0010E606F04D0D8902E362F36602B1D
:101970002FAEFAD7D890613762372E502C5C2F509B
:101980002D58D8A005D02E502C5E2F502D5A618195
:10199000D8902F322E32602FEDD761C02CF062C06C
:1019A0002DF01200000165516611D8B418D0010E57
:1019B000306E04D0D89065376637302A66AFFAD7D4
:1019C0006551635D66516459D8A004D06551635F69
:1019D0006651645BD89066336533302EF1D763C0AF
:1019E00063F064C064F01200000120EE01F0775152
:1019F000D9267851DA22000EDF6E20EE01F07951FF
:101A0000D9267A51DA22000EDF6E77C071F078C0E5
:101A100072F079C073F07AC074F07BC075F097EC07
:101A20000BF01200000120EE01F07751D926785119
:101A3000DA22000EDF6E20EE01F07951D9267A51BC
:101A4000DA22010EDF6E77C071F078C072F079C0D3
:101A500073F07AC074F07BC075F097EC0BF0120055
:101A6000000120EE01F07751D9267851DA22010EDB
:101A7000DF6E20EE01F07951D9267A51DA22000E7C
:101A8000DF6E77C071F078C072F079C073F07AC001
:101A900074F07BC075F097EC0BF012002D6E000E09
:101AA0002F6E000E2E6E000E2F6E010E2E6E09D0C0
:101AB000820E2C6EDE0EE82EFED72C2EFCD72E4A80
:101AC0002F2A2D50020D2E50F35C2F50F458D8A021
:101AD0001200EED7026E000E046E000E036E000EB2
:101AE000046E010E036E09D0820E016EDE0EE82E2A
:101AF000FED7012EFCD7034A042A0250020D0350E0
:101B0000F35C0450F458D8A01200EED702EE00F0B7
:101B1000960EEE6AE806FDE101EEE2F0150EEE6AC1
:101B2000E806FDE100EECEF0080EEE6AE806FDE103
:101B3000336A326A34903492000EF86E0001A8EFD6
:101B400001F00001606F00016005D8A406D0000E0E
:101B5000306E800ED5EC0DF00AD0020E0001601937
:101B6000D8A405D0000E306EC00ED5EC0DF0210EBD
:101B7000E82EFED700F01200000E7F6E800E7E6E03
:101B80006F0E6F6E000E6E6EC70E7B6E000E7A6E5D
:101B9000000E796E000E786E000E776E000E766E77
:101BA00093909392939493961200316E30B002D03A
:101BB000899C01D0898C31380F0B0F0BEDEC09F0AB
:101BC000060EE82EFED700D031500F0BEDEC09F0D9
:101BD000210EE82EFED700F012002D6E2D50D8A455
:101BE00006D02CB002D08D9001D08D8012002D0433
:101BF000D8A412002CB002D08D9201D08D82120098
:101C00002C502E02F3CF30F0F4CF31F02C502F02B5
:101C1000F35031262D502E02F350312630C02CF0D7
:101C200031C02DF012008994899692849286B894DE
:101C3000B896B89CB89E060E636E060E626E9690BD
:101C40009692590EB76E12002E6E000E2D6E3A0E41
:101C50002E6005D02F0E2E6402D0010E2D6E2DC0E9
:101C60002CF02C3012009450C009946ECD0EAF6E43
:101C7000000EB06EAA86AC84AB88AB8EAC98AB9CE1
:101C80001200D59ED59CD59AD596D580D582D5847F
:101C9000F29A12008B80030EE82EFED700F08B9094
:021CA000120030
:020000040020DA
:08000000FFFFFFFFFFFFFFFF00
:020000040030CA
:0E000000FFC80F3E3C1D81FF0FC00FE00F40F8
:00000001FF
