:040000006BEF00F0B2
:0E0008003C82FACF05F0FBCF06F0FEEF09F0C8
:100018003C80D8CF13F0E8CF14F0E0CF15F0FACF3A
:1000280016F0FBCF17F0E9CF18F0EACF19F0E1CFBF
:100038001AF0E2CF1BF0D9CF1CF0DACF1DF0F3CFC6
:100048001EF0F4CF1FF0F6CF20F0F7CF21F0F8CF55
:1000580022F0F5CF23F09EAA16D03A50010DC60E15
:10006800F324D96E000EF420DA6EAECFDFFF010E56
:100078000101FE6F0F0E3A18D8A403D0000E3A6E95
:1000880001D03A2A9E9A23C0F5FF22C0F8FF21C06A
:10009800F7FF20C0F6FF1FC0F4FF1EC0F3FF1DC00E
:1000A800DAFF1CC0D9FF1BC0E2FF1AC0E1FF19C06C
:1000B800EAFF18C0E9FF17C0FBFF16C0FAFF15C01A
:1000C800E0FF14C0E8FF13C0D8FF3C901000AAEF6F
:0200D8000CF02A
:100300000001000A006400E80310272020202020BC
:1003100020253034642C2025303464002020202017
:100320002020496E657274204D6F64650020202086
:1003300020205363616E495200476F696E67204801
:100340006F6D6500536561726368696E67000000D8
:10035000000E0001BD6F000E0001BB6F000E00011A
:10036000BC6FFAC1B7F0FBC1B8F0FCC1B9F0FDC178
:10037000BAF03C0E0001B66FF28EF28CF28CD08E89
:100380009F9A9D8A9486F2889E9AF292000E0201AC
:10039000646F010E0201656F790E0201666F0F0E28
:1003A0000201676F780E0201686F0F0E0201696F1C
:1003B000000E02016A6F000E02016C6FC70E6B6FB8
:1003C000000E02016D6F010E02016E6F770E0201C9
:1003D0006F6F0F0E0201706F760E0201716F0F0EBC
:1003E0000201726F020E0201736F000E0201756F3F
:1003F000C70E746F720ED36ED3B456D2FDD7640E8F
:100400000001626F020E0001636F6D0E0001646FE8
:10041000020E0001656FB4EC09F0000E0101FE6FE1
:10042000FEEC0AF024C0B7F025C0B8F0C5EC0AF025
:1004300024C0B9F025C0BAF0000E696E000E686ED7
:10044000000E676E000E666E000E286E010E92ECB6
:100450000CF0210EE82EFED700F0000E286E020EE2
:1004600092EC0CF0060E0001B46F300EE82EFED7B1
:10047000B42FFCD700D0010E7AEC0CF01C0E2A6EC3
:10048000030E2B6E37EC0BF0020E7AEC0CF0010130
:10049000FE51D8B407D0F00E2A6E010E2B6E37EC49
:1004A0000BF002D2C80E306E010E316E0B0E326EA2
:1004B000030E336EB7C034F0B8C035F0B9C036F0B3
:1004C000BAC037F0FCEC05F0C80E2A6E010E2B6E98
:1004D00037EC0BF0E9D161EC0CF013EC0DF005EC0E
:1004E0000DF0FCEC08F0E5EC0CF0010E246E000EB3
:1004F000BFEC0CF0010E246E010EBFEC0CF0640E8C
:100500000001626F020E0001636F6D0E0001646FE7
:10051000020E0001656F640E0001666F85EC0AF043
:10052000010E29EC0CF03B68BFD1010E7AEC0CF007
:10053000440E2A6E030E2B6E37EC0BF00001BB2924
:10054000D8A430D0640E0001626F020E0001636F08
:100550006D0E0001646F020E0001656F640E0001F4
:10056000666F85EC0AF0060E29EC0CF0640E0001B3
:10057000626F020E0001636F6D0E0001646F020E68
:100580000001656FB4EC09F0000E0001BB6F0001C3
:10059000BC51010D000EF324D96E020EF420DA6E68
:1005A000000E2BD00001BB510001D8A428D0640E4E
:1005B00000016D6F020E00016E6F6D0E00016F6F16
:1005C000020E0001706FB6C071F00001726B000185
:1005D000BC51020D000EF3240001736F010EF420D4
:1005E0000001746FFE0E0001756F010E0001766F41
:1005F00065EC04F00001BB6F30D0DF6E10D100015C
:10060000BB05D8A423D0640E00016D6F020E00015B
:100610006E6F6D0E00016F6F020E0001706FBC0EE9
:100620000001716F000E0001726F000E0001736F08
:10063000010E0001746F000E0001756F020E0001C3
:10064000766F1CEC08F00001BB6FE9D0020E0001D0
:10065000BB19D8A4E4D0020E3B6E0001BC51010DC1
:10066000000EF324D96E020EF420DA6E010EC5D707
:100670000101FE51D8B4A2D0640E0001626F020ED7
:100680000001636F6D0E0001646F020E0001656F63
:10069000B4EC09F0030E0001D519D8A402D0010E64
:1006A00001D0000E0001B46F020E0001C619D8A4DB
:1006B00002D0010E01D0000E0001B415E8A0F4D064
:1006C000C60E246E000E256E5AEC09F00009D8B44F
:1006D00041D0000E0001BD6F090E0001BD6501D0C3
:1006E00020D00001BD510001B46FB56B010E0001B7
:1006F000B427000EB523C60E0001B425D96E000E36
:100700000001B521DA6E0001BD51010DF00EF32498
:10071000E16E010EF420E26EDFCFE7FF0001BD2B9A
:10072000DBD7000E0001BD6F0F0E0001BD6501D0CB
:100730000ED00001BD51010DC60EF324D96E000E7E
:10074000F420DA6E000EDF6E0001BD2BEDD7030E34
:100750003B6EAAD0640E0001676F020E0001686F45
:100760006D0E0001696F020E00016A6F640E0001D8
:100770006B6FB0EC0BF0050E29EC0CF0640E000171
:10078000626F020E0001636F6D0E0001646F020E56
:100790000001656FB4EC09F0640E0001626F020E97
:1007A0000001636F6D0E0001646F020E0001656F42
:1007B000640E0001666F85EC0AF076D0010E000130
:1007C000BB6F010E3B6E640E0001626F020E0001F2
:1007D000636F6D0E0001646F020E0001656F640EA1
:1007E0000001666F85EC0AF0050E29EC0CF00001A3
:1007F000BC51010D000EF324D96E020EF420DA6E06
:10080000000EDF6E0001BC51020D000EF324D96E04
:10081000010EF420DA6E050EDE6E000EDD6E0001B4
:10082000BC2B42D0010E7AEC0CF0F00E2A6E010EB9
:100830002B6E37EC0BF0020E7AEC0CF0390E2A6EB0
:10084000030E2B6E37EC0BF0640E0001626F020E8C
:100850000001636F6D0E0001646F020E0001656F91
:10086000B4EC09F0640E0001676F020E0001686FBE
:100870006D0E0001696F020E00016A6F640E0001C7
:100880006B6FB0EC0BF0030E0DEC0CF0640E00017E
:10089000626F020E0001636F6D0E0001646F020E45
:1008A0000001656FB4EC09F03B50000AD8B413D6D0
:1008B000010AD8B43AD6030AD8B4DAD6010AD8B4B1
:1008C000B1D7FC0AD8B49BD5EFD7C2C0ACF0C3C037
:1008D000ADF0C4C0AEF0C5C0AFF0000E0001B16F06
:1008E000000EB06F000E0001B36F000EB26F000E6D
:1008F0000001A76F000EA66F000E0001A56F000E8D
:10090000A46F000E0001AB6F0B0E0001A96FB80EB3
:10091000A86F280E0001AA6F6DC067F06EC068F066
:100920006FC069F070C06AF0640E00016B6FEEEC8E
:100930000BF0030E29EC0CF06DC062F06EC063F09A
:100940006FC064F070C065F0B4EC09F06DC067F082
:100950006EC068F06FC069F070C06AF0AAC06BF03A
:10096000CFEC0BF0000ED66E000ED76ED58E000EBB
:100970000001A76F010EA66F19D1FEEC0AF024C08A
:10098000ACF025C0ADF0C5EC0AF024C0AEF025C037
:10099000AFF0000E696E000E686E000E676E000EFE
:1009A000666E000E286E010E92EC0CF0210EE82E01
:1009B000FED700F0000E286E020E92EC0CF0060E30
:1009C0000001776F300EE82EFED7772FFCD700D0CE
:1009D000010E7AEC0CF02D0E2A6E030E2B6E37EC06
:1009E0000BF0020E7AEC0CF07C0E306E000E316EC5
:1009F0000C0E326E030E336EACC034F0ADC035F069
:100A0000AEC036F0AFC037F0FCEC05F07C0E2A6EBD
:100A1000000E2B6E37EC0BF00001B2510001B31148
:100A2000D8A418D00001AE510001A85D0001AF515B
:100A30000001A959D8B00ED0D7500001786F776B5C
:100A4000D650000177250001B26F000E0001782119
:100A50000001B36F0001B0510001B111D8A418D04A
:100A60000001AC510001A85D0001AD510001A95980
:100A7000D8B00ED0D7500001786F776BD6500001F8
:100A800077250001B06F000E000178210001B16FE1
:100A90000001B0510001B111D8B47CD00001B251B5
:100AA0000001B311D8B46AD00001B25100080001AE
:100AB000B0250001AB6F000ED66E000ED76E6DC074
:100AC00062F06EC063F06FC064F070C065F0B4ECAB
:100AD00009F00CD06DC067F06EC068F06FC069F0AF
:100AE00070C06AF0AAC06BF0EEEC0BF00001D89079
:100AF000AB310001776F786BD650D7CF79F000011A
:100B00007A6B79C07AF00001796B00017927000EC9
:100B10007A23000177510001795D00017A51800A42
:100B200000017B6F00017851800A00017B59D8A039
:100B3000D1D7D59E6DC062F06EC063F06FC064F017
:100B400070C065F0B4EC09F0ABC077F00001D8904C
:100B50007733000177510001B2250001786F000E54
:100B60000001B3210001796F73C0D9FF74C0DAFFAF
:100B700078C0DEFF79C0DDFF020E1200D59E6DC089
:100B800062F06EC063F06FC064F070C065F0B4ECEA
:100B900009F0F2D775C0D9FF76C0DAFFDE04D8A419
:100BA00002D0020E12000001A64BA72B0001A65195
:100BB0000001715D0001A75100017259D8B0DDD666
:100BC0006DC067F06EC068F06FC069F070C06AF009
:100BD000640E00016B6FCFEC0BF0020E29EC0CF0F1
:100BE0006DC062F06EC063F06FC064F070C065F0FD
:100BF000B4EC09F0FF0E1200340E0001646F000E19
:100C00000001656F68D1250E00016C19D8B409D0B8
:100C100030C0D9FF31C0DAFF6CC0DFFF304A312A63
:100C20005AD1000E00016B6F000E6A6F000E0001BA
:100C3000696F04D000016985324A332A32C0F6FF59
:100C400033C0F7FF0800F550300AD8B4F3D732C0EC
:100C5000F6FF33C0F7FF0800F550F6EC0CF0D8A013
:100C60003ED0000E00016B6F000E6A6F6AC024F068
:100C70006BC025F0000E276E0A0E266ED2EC0CF02B
:100C800024C06AF025C06BF0D00E0001606FFF0E2B
:100C90000001616F32C0F6FF33C0F7FF0800F55066
:100CA0000001626F636B0001605100016227000167
:100CB0006151000163230001625100016A270001B4
:100CC000635100016B23324A332A32C0F6FF33C02E
:100CD000F7FF0800F550F6EC0CF0D8B0C7D732C0DB
:100CE000F6FF33C0F7FF324A332A0800F5CF6CF025
:100CF00000016C51000AD8B4FBD0640AD8B403D008
:100D00000D0AD8A4E8D064C0D9FF65C0DAFFDECFF1
:100D100067F0DDCF68F0020E00016427000E652346
:100D2000000168AF08D0030E000169130001676D70
:100D3000681FD8B0682B010E00016C6F050E000112
:100D40006C19D8B416D000016C51020D010EF324B9
:100D5000F66E030EF420F76E0900F5500001675D92
:100D60000900F55000016859D8A003D000016C2B90
:100D7000E5D700016A5100016B11D8B40BD069C0EE
:100D800060F0030E00016017D8B404D000016A07B8
:100D9000D8A06B07800E00016CBF7F0E0001606F52
:100DA00000016A5100016C5D00016B51800A000175
:100DB0006059D8B00BD000016C5100016A5F000E81
:100DC00000016CBFFF0E00016B5B05D0000E00013F
:100DD0006B6F000E6A6F000169A522D069C060F0D8
:100DE000030E00016017D8B408D030C0D9FF31C05D
:100DF000DAFF2D0EDF6E304A312A00016A51000100
:100E00006B11D8B434D030C0D9FF31C0DAFF300E06
:100E1000DF6E304A312A00016A07D8A06B07EDD790
:100E200000016A5100016B11D8B412D030C0D9FF53
:100E300031C0DAFF200EDF6E304A312A00016A0726
:100E4000D8A06B0700016A5100016B11D8A4EED73E
:100E500069C060F0030E00016017D8B408D030C03C
:100E6000D9FF31C0DAFF2D0EDF6E304A312A6CC057
:100E700066F02BD000016651020D010EF324F66ED0
:100E8000030EF420F76E0900F5CF26F00A00F5CF27
:100E900027F067C024F068C025F066EC0BF024C092
:100EA0002BF025C02CF0000E2E6E0A0E2D6E8FEC4E
:100EB0000BF02B50300F00016C6F30C0D9FF31C0E8
:100EC000DAFF6CC0DFFF304A312A000166070001FB
:100ED0006629D8A4CFD732C0F6FF33C0F7FF324A15
:100EE000332A0800F5CF6CF000016C51D8A48BD6E2
:100EF00030C0D9FF31C0DAFF000EDF6E120032C001
:100F0000D9FF33C0DAFFDF50346E3450246E256AC7
:100F100020EE07F03250D9263350DA22DECF26F009
:100F2000DDCF27F0D2EC0CF024C02AF025C02BF046
:100F3000000E2D6E640E2C6E43EC0AF02AC060F099
:100F40002BC061F020EE01F03250D9263350DA2266
:100F5000DF50D8B42ED020EE06F03250D9263350D0
:100F6000DA22DF50346E010E356E342A02D0D8906A
:100F70003536342EFCD735508A108A6E20EE07F0B5
:100F80003250D9263350DA22DECF34F0DDCF35F0BF
:100F900060C036F061C037F0361E371E364A372A39
:100FA000345036240001606F355037200001616FE6
:100FB00014D020EE06F03250D9263350DA22DF501A
:100FC000346E010E356E342A02D0D8903536342E68
:100FD000FCD73550FF0A8A148A6E20EE02F0325098
:100FE000D9263350DA22DECF34F0DDCF35F034C0ED
:100FF000D9FF35C0DAFF00016045E846FC0BDF6E23
:1010000020EE04F03250D9263350DA22DECF34F00D
:10101000DDCF35F034C0D9FF35C0DAFF60C036F01F
:1010200061C037F0060E386E373437323632382E1C
:10103000FBD73650DF6E1200BEC0A1F0BFC0A2F0D9
:10104000C0C0A3F0C1C0A4F0090E0001A06FC40E7F
:101050009F6FFEEC0AF024C0A1F025C0A2F0C5EC01
:101060000AF024C0A3F025C0A4F0000E696E000EA3
:10107000686E000E676E000E666E000E286E010E22
:1010800092EC0CF0210EE82EFED700F0000E286E38
:10109000020E92EC0CF0060E396E300EE82EFED7E2
:1010A000392EFCD700D0010E7AEC0CF02D0E2A6EF2
:1010B000030E2B6E37EC0BF0020E7AEC0CF0770E71
:1010C000306E000E316E0C0E326E030E336EA1C008
:1010D00034F0A2C035F0A3C036F0A4C037F0FCEC69
:1010E00005F0770E2A6E000E2B6E37EC0BF0000128
:1010F000A15100019F5D0001A2510001A059D8B08B
:101100000CD00001A35100019F5D0001A45100011A
:10111000A059D8B002D0020E12006DC062F06EC0AD
:1011200063F06FC064F070C065F0B4EC09F0000EBD
:101130001200276E2750246E256A070ED890243699
:101140002536E82EFBD7070E266E253425322432AD
:10115000262EFBD724468B502418FD0B24188B6EAB
:101160002750246E256A060ED89024362536E82EA0
:10117000FBD7070E266E253425322432262EFBD7C8
:10118000244624468B502418FB0B24188B6E2750C2
:10119000246E256A050ED89024362536E82EFBD716
:1011A000070E266E253425322432262EFBD78C508E
:1011B0002418FE0B24188C6E2750246E256A243ABE
:1011C000253AF00E251624500F0B2512F00E24168A
:1011D000070E266E253425322432262EFBD72446D0
:1011E0008C502418FD0B24188C6E1CEC0DF0030E93
:1011F000E82EFED700F01200929C94909492949462
:1012000095909592270E2A6EF50EE82EFED72A2E7F
:10121000FCD700F0030E99EC08F00D0E2A6EFC0EC0
:10122000E82EFED72A2EFCD7030E99EC08F0850E87
:10123000E82EFED700F0030E99EC08F0210EE82E00
:10124000FED700F0020E99EC08F0210EE82EFED732
:1012500000F0000E286E280E92EC0CF0210EE82E05
:10126000FED700F0000E286E080E92EC0CF0210E56
:10127000E82EFED700F0000E286E010E92EC0CF066
:101280000D0E2A6EFC0EE82EFED72A2EFCD7000E7D
:10129000286E060E92EC0CF0210EE82EFED700F020
:1012A000000E286E0C0E92EC0CF0210EE82EFED7EC
:1012B00000F01200000E2C6E000E2E6E000E2D6E31
:1012C000000E2F6E20EE04F02450D9262550DA228D
:1012D000DF50266E20EE03F02450D9262550DA2266
:1012E000DF50276E2750296E286A265028242D6E3D
:1012F000000E29202E6E20EE02F02450D926255013
:10130000DA22DF502D182C6E050E2F6E090E2F6479
:1013100001D028D02F50266E276A010E2626000EF7
:10132000272226502424D96E27502520DA6EDF503C
:10133000286E2F50010DF3502424D96EF45025202F
:10134000DA6EDF50296E29502B6E2A6A28502A2423
:101350002D6E000E2B202E6E2C502D182C6E020E92
:101360002F26D4D7010E120028D062C0D9FF63C047
:10137000DAFFDF50D8B405D062C0D9FF63C0DAFF0E
:10138000DF0664C0D9FF65C0DAFFDF50D8B405D0EE
:1013900064C0D9FF65C0DAFFDF0662C032F063C007
:1013A00033F07FEC07F064C032F065C033F07FECBF
:1013B00007F0210EE82EFED700F062C0D9FF63C00F
:1013C000DAFFDF50D8A4D1D764C0D9FF65C0DAFFF7
:1013D000DF50D8A4CAD7000120EE01F06251D9260F
:1013E0006351DA22010EDF6E000120EE01F064513C
:1013F000D9266551DA22010EDF6E1200E9CF07F01F
:10140000EACF08F0E1CF09F0E2CF0AF0D9CF0BF034
:10141000DACF0CF0F3CF0DF0F4CF0EF0F6CF0FF0E3
:10142000F7CF10F0F8CF11F0F5CF12F0F2A20DD0F7
:101430003B28D8A403D0010E3B6E03D03B50D8A468
:101440003B68020E45EC0CF0F29212C0F5FF11C0A1
:10145000F8FF10C0F7FF0FC0F6FF0EC0F4FF0DC07D
:10146000F3FF0CC0DAFF0BC0D9FF0AC0E2FF09C0CE
:10147000E1FF08C0EAFF07C0E9FF06C0FBFF05C0A7
:10148000FAFF3C921100000E2F6E2DAE06D02C6C90
:101490002D1ED8B02D2A010E2F6E2BAE06D02A6C31
:1014A0002B1ED8B02B2A010E2F1A000E316E000E03
:1014B000306E2C502D10D8B41CD0010E2E6E04D0DE
:1014C000D8902C362D362E2A2DAEFAD7D89030361D
:1014D00031362C502A5C2D502B58D8A005D02C50DA
:1014E0002A5E2D502B5A3080D8902D322C322E2E41
:1014F000EDD72F50D8B404D0306C311ED8B0312A7B
:1015000030C02AF031C02BF012002CD062C0D9FFBD
:1015100063C0DAFF00016651DE5CD8B005D062C05E
:10152000D9FF63C0DAFFDF2A64C0D9FF65C0DAFFE4
:1015300000016651DE5CD8B005D064C0D9FF65C03B
:10154000DAFFDF2A62C032F063C033F07FEC07F0CD
:1015500064C032F065C033F07FEC07F0210EE82E56
:10156000FED700F062C0D9FF63C0DAFF0001665108
:10157000DE5CD8A0CBD764C0D9FF65C0DAFF00011C
:101580006651DE5CD8B01200C1D7000E2A6E000E84
:10159000296E000E2B6E000E2B6E030E2B6401D0F5
:1015A0001ED06950266E276A070ED8902636273639
:1015B000E82EFBD768CF28F0D89028322850261282
:1015C000000E27122650292627502A22820E266E28
:1015D000DE0EE82EFED7262EFCD72B2ADED729C01A
:1015E00026F02AC027F0D89027322632D89027320A
:1015F000263226C024F027C025F01200000E2A6EE5
:10160000000E296E000E2B6E000E2B6E030E2B6447
:1016100001D01ED06750266E276A070ED890263656
:101620002736E82EFBD766CF28F0D89028322850EE
:101630002612000E27122650292627502A22820E13
:10164000266EDE0EE82EFED7262EFCD72B2ADED7FE
:1016500029C026F02AC027F0D89027322632D89009
:101660002732263226C024F027C025F012001AD0D7
:10167000010E286E2AC0F6FF2BC0F7FFF86A020E93
:10168000F76403D00800F55005D0F6CFE1FFF7CF9F
:10169000E2FFE75092EC0CF02A4A2B2A210EE82EAA
:1016A000FED700F02AC0F6FF2BC0F7FFF86A020E43
:1016B000F76403D00800F55005D0F6CFE1FFF7CF6F
:1016C000E2FFE7500009D8B41200D2D7000E296E0D
:1016D000000E286E26502710D8B41CD0010E2A6E9A
:1016E00004D0D890263627362A2A27AEFAD7D890A3
:1016F000283629362650245C27502558D8A005D0F6
:101700002650245E2750255A2880D890273226322A
:101710002A2EEDD728C024F029C025F012002D5024
:101720002E10D8B418D0010E2F6E04D0D8902D36BC
:101730002E362F2A2EAEFAD72D502B5C2E502C5839
:10174000D8A004D02D502B5E2E502C5AD8902E327B
:101750002D322F2EF1D72BC02BF02CC02CF01200E5
:10176000000120EE01F06751D9266851DA22000EFF
:10177000DF6E000120EE01F06951D9266A51DA22AC
:10178000000EDF6E67C062F068C063F069C064F08D
:101790006AC065F06BC066F085EC0AF012000001CB
:1017A00020EE01F06751D9266851DA22000EDF6E73
:1017B000000120EE01F06951D9266A51DA22010EAA
:1017C000DF6E67C062F068C063F069C064F06AC031
:1017D00065F06BC066F085EC0AF01200000120EEA7
:1017E00001F06751D9266851DA22010EDF6E00013F
:1017F00020EE01F06951D9266A51DA22000EDF6E1F
:1018000067C062F068C063F069C064F06AC065F0E8
:101810006BC066F085EC0AF01200256E000E276E94
:10182000000E266E000E276E010E266E09D0820E67
:10183000246EDE0EE82EFED7242EFCD7264A272A59
:101840002550140D2650F35C2750F458D8A01200F0
:10185000EED7256E000E276E000E266E000E276E48
:10186000010E266E09D0820E246EDE0EE82EFED703
:10187000242EFCD7264A272A2550020D2650F35C39
:101880002750F458D8A01200EED7026E000E046E56
:10189000000E036E000E046E010E036E09D0820E60
:1018A000016EDE0EE82EFED7012EFCD7034A042A75
:1018B0000250020D0350F35C0450F458D8A01200FB
:1018C000EED7000E7F6E800E7E6E6F0E6F6E000E76
:1018D0006E6EC70E7B6E000E7A6E000E796E000E75
:1018E000786E000E776E000E766E939093929394BE
:1018F000939612002A6E2A04D8A406D0000E286EF1
:10190000800E92EC0CF009D0020E2A18D8A405D053
:10191000000E286EC00E92EC0CF0210EE82EFED7C1
:1019200000F01200296E28B002D0899C01D0898C69
:1019300029380F0B0F0B99EC08F0060EE82EFED796
:1019400000D029500F0B99EC08F0210EE82EFED79D
:1019500000F012000101FE6BFD6BFC6BFB6BFA6B80
:1019600000EEBEF0180EEE6AE806FDE13B6A3A6A48
:101970003C903C92000EF86E0001A8EF01F0256E3D
:101980002550D8A406D024B002D08D9001D08D80EF
:1019900012002504D8A4120024B002D08D9201D0E8
:1019A0008D82120024502602F3CF28F0F4CF29F0C4
:1019B00024502702F350292625502602F3502926C9
:1019C00028C024F029C025F01200899489969284B9
:1019D0009286B894B896B89CB89E060E636E060EB2
:1019E000626E96909692590EB76E1200266E000E99
:1019F000256E3A0E266005D02F0E266402D0010E09
:101A0000256E25C024F0243012009450C009946E35
:101A1000CD0EAF6E000EB06EAA86AC84AB88AB8ED6
:101A2000AC98AB9C1200D59ED59CD59AD596D58006
:101A3000D582D584F29A12008B80030EE82EFED751
:061A400000F08B90120083
:020000040020DA
:08000000FFFFFFFFFFFFFFFF00
:020000040030CA
:0E000000FFC80F3E3C1D81FF0FC00FE00F40F8
:00000001FF
