:040000006BEF00F0B2
:0E0008003C82FACF05F0FBCF06F0BDEF09F009
:100018003C80D8CF13F0E8CF14F0E0CF15F0FACF3A
:1000280016F0FBCF17F0E9CF18F0EACF19F0E1CFBF
:100038001AF0E2CF1BF0D9CF1CF0DACF1DF0F3CFC6
:100048001EF0F4CF1FF0F6CF20F0F7CF21F0F8CF55
:1000580022F0F5CF23F09EAA16D03A50010DC00E1B
:10006800F324D96E000EF420DA6EAECFDFFF010E56
:100078000101FE6F0F0E3A18D8A403D0000E3A6E95
:1000880001D03A2A9E9A23C0F5FF22C0F8FF21C06A
:10009800F7FF20C0F6FF1FC0F4FF1EC0F3FF1DC00E
:1000A800DAFF1CC0D9FF1BC0E2FF1AC0E1FF19C06C
:1000B800EAFF18C0E9FF17C0FBFF16C0FAFF15C01A
:1000C800E0FF14C0E8FF13C0D8FF3C90100061EFB8
:0200D8000CF02A
:100300000001000A006400E80310272020202020BC
:1003100020253034642C2025303464002020202017
:100320002020496E657274204D6F646500505554ED
:10033000204D455353414745002020202020536342
:10034000616E495200476F696E6720486F6D6500A6
:10035000536561726368696E67000000000E0001FA
:10036000B76F000E0001B56F000E0001B46F000EF4
:100370000001B66FFAC1B0F0FBC1B1F0FCC1B2F040
:10038000FDC1B3F03C0E0001AF6FF28EF28CF28C27
:10039000D08E9F9A9D8A9486F2889E9AF292000E41
:1003A0000201006F010E0201016F790E0201026F5E
:1003B0000F0E0201036F780E0201046F0F0E02018F
:1003C000056F000E0201066F000E0201086FC70ED6
:1003D000076F000E0201096F010E02010A6F770E0E
:1003E00002010B6F0F0E02010C6F760E02010D6FF2
:1003F0000F0E02010E6F020E02010F6F000E0201BE
:10040000116FC70E106F720ED36ED3B421D2FDD709
:10041000000E0001626F020E0001636F090E000101
:10042000646F020E0001656F73EC09F0000E0101AC
:10043000FE6FBDEC0AF024C0B0F025C0B1F084EC32
:100440000AF024C0B2F025C0B3F0000E696E000EB1
:10045000686E000E676E000E666E000E286E010E4E
:1004600049EC0CF0210EE82EFED700F0000E286EAD
:10047000020E49EC0CF0060E0001AD6F300EE82EB6
:10048000FED7AD2FFCD700D0010E31EC0CF01C0EC6
:100490002A6E030E2B6EF6EC0AF0020E31EC0CF015
:1004A000C80E306E010E316E0B0E326E030E336EBF
:1004B000B0C034F0B1C035F0B2C036F0B3C037F0E0
:1004C00039EC04F0C80E2A6E010E2B6EF6EC0AF021
:1004D000BFD118EC0CF0BCEC0CF0BBEC08F09CECC1
:1004E0000CF0010E246E000E76EC0CF0010E246E62
:1004F000010E76EC0CF0000E0001626F020E00019E
:10050000636F090E0001646F020E0001656F640ED7
:100510000001666F44EC0AF0010EE0EC0BF097D19D
:10052000010E31EC0CF0500E2A6E030E2B6EF6EC21
:100530000AF00001B529D8A430D0000E0001626F86
:10054000020E0001636F090E0001646F020E0001CC
:10055000656F640E0001666F44EC0AF0060EE0EC75
:100560000BF0000E0001626F020E0001636F090EB6
:100570000001646F020E0001656F73EC09F0000E5C
:100580000001B56F0001B651010D640EF324D96E60
:10059000010EF420DA6E000E36D10001B5510001D3
:1005A000D8A422D0000E00016D6F020E00016E6F04
:1005B000090E00016F6F020E0001706FAFC071F085
:1005C0000001726BB4C073F00001B651010D000E52
:1005D000F3240001746F010EF4200001756FBCEC70
:1005E00005F00001B56F30D00001B505D8A425D0C5
:1005F000000E00016D6F020E00016E6F090E00010A
:100600006F6F020E0001706FB4C071F0B60E000182
:10061000726F000E0001736F000E0001746F010E07
:100620000001756F640E0001766F010E0001776F97
:10063000DBEC07F00001B56FE7D0020E0001B51941
:10064000D8A4E2D0020E3B6E0001B651010D640E3B
:10065000F324D96E010EF420DA6E010ED4D001011C
:10066000FE51D8B4A2D0000E0001626F020E00014C
:10067000636F090E0001646F020E0001656F73EC79
:1006800009F0030E0001CF19D8A402D0010E01D049
:10069000000E0001AD6F020E0001C019D8A402D0F7
:1006A000010E01D0000E0001AD15E8A0D1D0C00EA2
:1006B000246E000E256E19EC09F00009D8B441D063
:1006C000000E0001B76F090E0001B76501D020D000
:1006D0000001B7510001AD6FAE6B010E0001AD27F7
:1006E000000EAE23C00E0001AD25D96E000E000134
:1006F000AE21DA6E0001B751010DF00EF324E16E68
:10070000010EF420E26EDFCFE7FF0001B72BDBD74D
:10071000000E0001B76F0F0E0001B76501D00ED0BB
:100720000001B751010DC00EF324D96E000EF42064
:10073000DA6E000EDF6E0001B72BEDD7030E3B6EB5
:1007400087D0000E0001676F020E0001686F090E6E
:100750000001696F020E00016A6F640E00016B6F89
:10076000C1EC0BF0050EE0EC0BF0000E0001626F27
:10077000020E0001636F090E0001646F020E00019A
:10078000656F73EC09F0000E0001626F020E00014C
:10079000636F090E0001646F020E0001656F640E45
:1007A0000001666F44EC0AF053D0010E0001B56FF2
:1007B000010E3B6E000E0001626F020E0001636FBE
:1007C000090E0001646F020E0001656F640E0001E6
:1007D000666F44EC0AF0050EE0EC0BF00001B65138
:1007E000010D640EF324D96E010EF420DA6E000EB2
:1007F000DF6E0001B651010D000EF324D96E010E1B
:10080000F420DA6E050EDF6E0001B62B21D0010E4A
:1008100031EC0CF02D0E2A6E030E2B6EF6EC0AF066
:10082000020E31EC0CF0450E2A6E030E2B6EF6EC28
:100830000AF0000E0001626F020E0001636F090EE4
:100840000001646F020E0001656F73EC09F03B68F4
:100850003B50000AD8B43DD6010AD8B461D6030A89
:10086000D8B4FDD6010AD8B4D2D7FC0AD8B4D0D5B2
:10087000EFD7340E0001646F000E0001656F68D180
:10088000250E00016C19D8B409D030C0D9FF31C091
:10089000DAFF6CC0DFFF304A312A5AD1000E000166
:1008A0006B6F000E6A6F000E0001696F04D00001CB
:1008B0006985324A332A32C0F6FF33C0F7FF080099
:1008C000F550300AD8B4F3D732C0F6FF33C0F7FF83
:1008D0000800F550ADEC0CF0D8A03ED0000E0001A1
:1008E0006B6F000E6A6F6AC024F06BC025F0000EBB
:1008F000276E0A0E266E89EC0CF024C06AF025C023
:100900006BF0D00E0001606FFF0E0001616F32C00E
:10091000F6FF33C0F7FF0800F5500001626F636B0C
:100920000001605100016227000161510001632351
:100930000001625100016A270001635100016B232D
:10094000324A332A32C0F6FF33C0F7FF0800F550B1
:10095000ADEC0CF0D8B0C7D732C0F6FF33C0F7FF0C
:10096000324A332A0800F5CF6CF000016C51000ABE
:10097000D8B4FBD0640AD8B403D00D0AD8A4E8D008
:1009800064C0D9FF65C0DAFFDECF67F0DDCF68F065
:10099000020E00016427000E6523000168AF08D035
:1009A000030E000169130001676D681FD8B0682B42
:1009B000010E00016C6F050E00016C19D8B416D041
:1009C00000016C51020D010EF324F66E030EF420AB
:1009D000F76E0900F5500001675D0900F550000150
:1009E0006859D8A003D000016C2BE5D700016A51EB
:1009F00000016B11D8B40BD069C060F0030E000188
:100A00006017D8B404D000016A07D8A06B07800E25
:100A100000016CBF7F0E0001606F00016A51000190
:100A20006C5D00016B51800A00016059D8B00BD099
:100A300000016C5100016A5F000E00016CBFFF0EE7
:100A400000016B5B05D0000E00016B6F000E6A6F3A
:100A5000000169A522D069C060F0030E0001601793
:100A6000D8B408D030C0D9FF31C0DAFF2D0EDF6E08
:100A7000304A312A00016A5100016B11D8B434D0D8
:100A800030C0D9FF31C0DAFF300EDF6E304A312A74
:100A900000016A07D8A06B07EDD700016A51000179
:100AA0006B11D8B412D030C0D9FF31C0DAFF200E9C
:100AB000DF6E304A312A00016A07D8A06B070001B7
:100AC0006A5100016B11D8A4EED769C060F0030E23
:100AD00000016017D8B408D030C0D9FF31C0DAFFA8
:100AE0002D0EDF6E304A312A6CC066F02BD000012B
:100AF0006651020D010EF324F66E030EF420F76E1C
:100B00000900F5CF26F00A00F5CF27F067C024F0E2
:100B100068C025F077EC0BF024C02BF025C02CF03A
:100B2000000E2E6E0A0E2D6EA0EC0BF02B50300F27
:100B300000016C6F30C0D9FF31C0DAFF6CC0DFFF3D
:100B4000304A312A0001660700016629D8A4CFD7B0
:100B500032C0F6FF33C0F7FF324A332A0800F5CF20
:100B60006CF000016C51D8A48BD630C0D9FF31C0D5
:100B7000DAFF000EDF6E1200BCC0A5F0BDC0A6F00B
:100B8000BEC0A7F0BFC0A8F0000E0001AB6F000E02
:100B90000001AC6F000E0001A16F000EA06F000EEF
:100BA0000001AA6F000EA96F000E0001A46F0F0EC6
:100BB0000001A36FA00EA26F6DC067F06EC068F059
:100BC0006FC069F070C06AF0640E00016B6F4EEC8C
:100BD0000BF0050EE0EC0BF06DC062F06EC063F040
:100BE0006FC064F070C065F073EC09F0000E000196
:100BF000736F000E0001A16F010EA06F19D1BDEC43
:100C00000AF024C0A5F025C0A6F084EC0AF024C0A8
:100C1000A7F025C0A8F0000E696E000E686E000EE9
:100C2000676E000E666E000E286E010E49EC0CF029
:100C3000210EE82EFED700F0000E286E020E49ECC1
:100C40000CF0060E0001766F300EE82EFED7762FE0
:100C5000FCD700D0010E31EC0CF0390E2A6E030ED9
:100C60002B6EF6EC0AF0020E31EC0CF0780E306EC2
:100C7000000E316E0C0E326E030E336EA5C034F0D2
:100C8000A6C035F0A7C036F0A8C037F039EC04F0A4
:100C9000780E2A6E000E2B6EF6EC0AF06DC067F02F
:100CA0006EC068F06FC069F070C06AF0640E000139
:100CB0006B6F25EC0BF0030E0001766F980EE82E9B
:100CC000FED7762FFCD76DC062F06EC063F06FC0A8
:100CD00064F070C065F073EC09F00001A7510001E9
:100CE000A25D0001A8510001A359D8B003D0010EA4
:100CF0000001AC6F0001A5510001A25D0001A651E9
:100D00000001A359D8B003D0010E0001AB6F000160
:100D1000AB05D8B404D00001AC05D8A402D00001C2
:100D2000A42B0001AB05D8A43ED00001AC05D8A48B
:100D30003AD0000E0001AA6F010EA96F22D06DC03B
:100D400067F06EC068F06FC069F070C06AF0640E42
:100D500000016B6F4EEC0BF0030E0001766F980EE6
:100D6000E82EFED7762FFCD76DC062F06EC063F020
:100D70006FC064F070C065F073EC09F00001A94B1E
:100D8000AA2B0001D890A4310001766F776B000187
:100D9000A9510001765D0001AA5100017759D8B030
:100DA000CED7020E12000001AB05D8A43ED0000140
:100DB000AC510001D8A439D0000E0001AA6F010E79
:100DC000A96F22D06DC067F06EC068F06FC069F087
:100DD00070C06AF0640E00016B6F4EEC0BF0030EF6
:100DE0000001766F980EE82EFED7762FFCD76DC0E7
:100DF00062F06EC063F06FC064F070C065F073ECB9
:100E000009F00001A94BAA2B0001A4510001766F43
:100E1000776B0001A9510001765D0001AA51000124
:100E20007759D8B0CFD7020E12000001A04BA12BEA
:100E30000001A0510001715D0001A1510001725932
:100E4000D8B0DDD66DC067F06EC068F06FC069F0D5
:100E500070C06AF0640E00016B6F25EC0BF0050E9C
:100E6000E0EC0BF06DC062F06EC063F06FC064F038
:100E700070C065F073EC09F0FF0E120032C0D9FFAC
:100E800033C0DAFFDF50346E3450246E256A20EE12
:100E900007F03250D9263350DA22DECF26F0DDCFEC
:100EA00027F089EC0CF024C02AF025C02BF0000EAE
:100EB0002D6E640E2C6E02EC0AF02AC060F02BC07E
:100EC00061F020EE01F03250D9263350DA22DF50A3
:100ED000D8B42ED020EE06F03250D9263350DA2284
:100EE000DF50346E010E356E342A02D0D89035367C
:100EF000342EFCD735508A108A6E20EE07F032501F
:100F0000D9263350DA22DECF34F0DDCF35F060C0A1
:100F100036F061C037F0361E371E364A372A345055
:100F200036240001606F355037200001616F14D006
:100F300020EE06F03250D9263350DA22DF50346EDC
:100F4000010E356E342A02D0D8903536342EFCD7B7
:100F50003550FF0A8A148A6E20EE02F03250D926EC
:100F60003350DA22DECF34F0DDCF35F034C0D9FF94
:100F700035C0DAFF00016045E846FC0BDF6E20EE6D
:100F800004F03250D9263350DA22DECF34F0DDCFF0
:100F900035F034C0D9FF35C0DAFF60C036F061C02B
:100FA00037F0060E386E373437323632382EFBD7EC
:100FB0003650DF6E1200B8C0A2F0B9C0A3F0BAC0BC
:100FC000A4F0BBC0A5F0090E0001A16FC40EA06F74
:100FD000BDEC0AF024C0A2F025C0A3F084EC0AF016
:100FE00024C0A4F025C0A5F0000E696E000E686E46
:100FF000000E676E000E666E000E286E010E49EC44
:101000000CF0210EE82EFED700F0000E286E020E26
:1010100049EC0CF0060E396E300EE82EFED7392E54
:10102000FCD700D0010E31EC0CF0390E2A6E030E05
:101030002B6EF6EC0AF0020E31EC0CF0780E306EEE
:10104000000E316E0C0E326E030E336EA2C034F001
:10105000A3C035F0A4C036F0A5C037F039EC04F0D9
:10106000780E2A6E000E2B6EF6EC0AF00001A251EB
:101070000001A05D0001A3510001A159D8B00CD01E
:101080000001A4510001A05D0001A5510001A1597A
:10109000D8B002D0020E12006DC062F06EC063F0D4
:1010A0006FC064F070C065F073EC09F0000E1200C0
:1010B000276E2750246E256A070ED89024362536D1
:1010C000E82EFBD7070E266E253425322432262E35
:1010D000FBD724468B502418FD0B24188B6E275009
:1010E000246E256A060ED89024362536E82EFBD7C6
:1010F000070E266E253425322432262EFBD72446B1
:1011000024468B502418FB0B24188B6E2750246E1A
:10111000256A050ED89024362536E82EFBD7070E13
:10112000266E253425322432262EFBD78C502418E7
:10113000FE0B24188C6E2750246E256A243A253A1B
:10114000F00E251624500F0B2512F00E2416070E54
:10115000266E253425322432262EFBD724468C5089
:101160002418FD0B24188C6ECAEC0CF0030EE82E2C
:10117000FED700F01200929C9490949294949590D3
:101180009592270E2A6EF50EE82EFED72A2EFCD752
:1011900000F0030E58EC08F00D0E2A6EFC0EE82E3F
:1011A000FED72A2EFCD7030E58EC08F0850EE82E49
:1011B000FED700F0030E58EC08F0210EE82EFED703
:1011C00000F0020E58EC08F0210EE82EFED700F0D9
:1011D000000E286E280E49EC0CF0210EE82EFED7EA
:1011E00000F0000E286E080E49EC0CF0210EE82EDF
:1011F000FED700F0000E286E010E49EC0CF00D0E2B
:101200002A6EFC0EE82EFED72A2EFCD7000E286E82
:10121000060E49EC0CF0210EE82EFED700F0000E71
:10122000286E0C0E49EC0CF0210EE82EFED700F0D3
:101230001200000E2C6E000E2E6E000E2D6E000E93
:101240002F6E20EE04F02450D9262550DA22DF50EC
:10125000266E20EE03F02450D9262550DA22DF50E6
:10126000276E2750296E286A265028242D6E000EDE
:1012700029202E6E20EE02F02450D9262550DA22A5
:10128000DF502D182C6E050E2F6E090E2F6401D025
:1012900028D02F50266E276A010E2626000E272200
:1012A00026502424D96E27502520DA6EDF50286E70
:1012B0002F50010DF3502424D96EF4502520DA6EFE
:1012C000DF50296E29502B6E2A6A28502A242D6E51
:1012D000000E2B202E6E2C502D182C6E020E2F2659
:1012E000D4D7010E120028D062C0D9FF63C0DAFF44
:1012F000DF50D8B405D062C0D9FF63C0DAFFDF0683
:1013000064C0D9FF65C0DAFFDF50D8B405D064C02F
:10131000D9FF65C0DAFFDF0662C032F063C033F088
:101320003EEC07F064C032F065C033F03EEC07F0ED
:10133000210EE82EFED700F062C0D9FF63C0DAFFAD
:10134000DF50D8A4D1D764C0D9FF65C0DAFFDF5021
:10135000D8A4CAD7000120EE01F06251D92663510A
:10136000DA22010EDF6E000120EE01F06451D92671
:101370006551DA22010EDF6E1200E9CF07F0EACFE5
:1013800008F0E1CF09F0E2CF0AF0D9CF0BF0DACFC5
:101390000CF0F3CF0DF0F4CF0EF0F6CF0FF0F7CF47
:1013A00010F0F8CF11F0F5CF12F0F2A20DD03B28DB
:1013B000D8A403D0010E3B6E03D03B50D8A43B68A9
:1013C000020EFCEC0BF0F29212C0F5FF11C0F8FF18
:1013D00010C0F7FF0FC0F6FF0EC0F4FF0DC0F3FF03
:1013E0000CC0DAFF0BC0D9FF0AC0E2FF09C0E1FF61
:1013F00008C0EAFF07C0E9FF06C0FBFF05C0FAFF0F
:101400003C921100000E2F6E2DAE06D02C6C2D1EBE
:10141000D8B02D2A010E2F6E2BAE06D02A6C2B1EB3
:10142000D8B02B2A010E2F1A000E316E000E306E2E
:101430002C502D10D8B41CD0010E2E6E04D0D89094
:101440002C362D362E2A2DAEFAD7D890303631369E
:101450002C502A5C2D502B58D8A005D02C502A5E39
:101460002D502B5A3080D8902D322C322E2EEDD785
:101470002F50D8B404D0306C311ED8B0312A30C0CF
:101480002AF031C02BF012002CD062C0D9FF63C00B
:10149000DAFF00016651DE5CD8B005D062C0D9FF2A
:1014A00063C0DAFFDF2A64C0D9FF65C0DAFF00013C
:1014B0006651DE5CD8B005D064C0D9FF65C0DAFFE4
:1014C000DF2A62C032F063C033F03EEC07F064C044
:1014D00032F065C033F03EEC07F0210EE82EFED767
:1014E00000F062C0D9FF63C0DAFF00016651DE5C24
:1014F000D8A0CBD764C0D9FF65C0DAFF0001665120
:10150000DE5CD8B01200C1D7000E2A6E000E296E24
:10151000000E2B6E000E2B6E030E2B6401D01ED01E
:101520006950266E276A070ED89026362736E82E91
:10153000FBD768CF28F0D890283228502612000E0A
:1015400027122650292627502A22820E266EDE0ECA
:10155000E82EFED7262EFCD72B2ADED729C026F070
:101560002AC027F0D89027322632D8902732263248
:1015700026C024F027C025F01200000E2A6E000EAF
:10158000296E000E2B6E000E2B6E030E2B6401D005
:101590001ED06750266E276A070ED890263627364B
:1015A000E82EFBD766CF28F0D89028322850261294
:1015B000000E27122650292627502A22820E266E38
:1015C000DE0EE82EFED7262EFCD72B2ADED729C02A
:1015D00026F02AC027F0D89027322632D89027321A
:1015E000263226C024F027C025F012001AD0010EA2
:1015F000286E2AC0F6FF2BC0F7FFF86A020EF764C8
:1016000003D00800F55005D0F6CFE1FFF7CFE2FF99
:10161000E75049EC0CF02A4A2B2A210EE82EFED77F
:1016200000F02AC0F6FF2BC0F7FFF86A020EF7643D
:1016300003D00800F55005D0F6CFE1FFF7CFE2FF69
:10164000E7500009D8B41200D2D767C062F068C072
:1016500063F069C064F06AC065F073EC09F00001E2
:1016600020EE01F06751D9266851DA22000EDF6EB4
:10167000000120EE01F06951D9266A51DA22010EEB
:10168000DF6E67C062F068C063F069C064F06AC072
:1016900065F06BC066F044EC0AF0120067C062F0BF
:1016A00068C063F069C064F06AC065F073EC09F06B
:1016B000000120EE01F06751D9266851DA22010EAF
:1016C000DF6E000120EE01F06951D9266A51DA225D
:1016D000000EDF6E67C062F068C063F069C064F03E
:1016E0006AC065F06BC066F044EC0AF01200000EB0
:1016F000296E000E286E26502710D8B41CD0010E7B
:101700002A6E04D0D890263627362A2A27AEFAD752
:10171000D890283629362650245C27502558D8A042
:1017200005D02650245E2750255A2880D89027328D
:1017300026322A2EEDD728C024F029C025F0120029
:101740002D502E10D8B418D0010E2F6E04D0D89082
:101750002D362E362F2A2EAEFAD72D502B5C2E503A
:101760002C58D8A004D02D502B5E2E502C5AD89037
:101770002E322D322F2EF1D72BC02BF02CC02CF077
:101780001200000120EE01F06751D9266851DA22DB
:10179000000EDF6E000120EE01F06951D9266A517A
:1017A000DA22000EDF6E67C062F068C063F069C0C5
:1017B00064F06AC065F06BC066F044EC0AF0120099
:1017C000256E000E276E000E266E000E276E010E8F
:1017D000266E09D0820E246EDE0EE82EFED7242E51
:1017E000FCD7264A272A2550020D2650F35C2750A5
:1017F000F458D8A01200EED7026E000E046E000E50
:10180000036E000E046E010E036E09D0820E016E8F
:10181000DE0EE82EFED7012EFCD7034A042A025022
:10182000020D0350F35C0450F458D8A01200EED718
:10183000000E7F6E800E7E6E6F0E6F6E000E6E6EEF
:10184000C70E7B6E000E7A6E000E796E000E786EFB
:10185000000E776E000E766E93909392939493960B
:1018600012002A6E2A04D8A406D0000E286E800E1C
:1018700049EC0CF009D0020E2A18D8A405D0000EAD
:10188000286EC00E49EC0CF0210EE82EFED700F0B9
:101890001200296E28B002D0899C01D0898C293889
:1018A0000F0B0F0B58EC08F0060EE82EFED700D0F9
:1018B00029500F0B58EC08F0210EE82EFED700F04F
:1018C00012000101FE6BFD6BFC6BFB6BFA6B00EE13
:1018D000B8F0180EEE6AE806FDE13B6A3A6A3C9001
:1018E0003C92000EF86E0001AEEF01F0256E25501F
:1018F000D8A406D024B002D08D9001D08D801200E3
:101900002504D8A4120024B002D08D9201D08D827B
:10191000120024502602F3CF28F0F4CF29F02450EF
:101920002702F350292625502602F350292628C0E5
:1019300024F029C025F01200899489969284928619
:10194000B894B896B89CB89E060E636E060E626E8A
:1019500096909692590EB76E1200266E000E256E66
:101960003A0E266005D02F0E266402D0010E256E99
:1019700025C024F0243012009450C009946ECD0E7E
:10198000AF6E000EB06EAA86AC84AB88AB8EAC98FE
:10199000AB9C12008B80030EE82EFED700F08B90DC
:0219A000120033
:020000040020DA
:08000000FFFFFFFFFFFFFFFF00
:020000040030CA
:0E000000FFC80F3E3C9D85FF0FC00FE00F4074
:00000001FF
