:040000006BEF00F0B2
:0E0008003C82FACF05F0FBCF06F08DEF09F039
:100018003C80D8CF13F0E8CF14F0E0CF15F0FACF3A
:1000280016F0FBCF17F0E9CF18F0EACF19F0E1CFBF
:100038001AF0E2CF1BF0D9CF1CF0DACF1DF0F3CFC6
:100048001EF0F4CF1FF0F6CF20F0F7CF21F0F8CF55
:1000580022F0F5CF23F09EAA16D03A50010DBE0E1D
:10006800F324D96E000EF420DA6EAECFDFFF010E56
:100078000101FE6F0F0E3A18D8A403D0000E3A6E95
:1000880001D03A2A9E9A23C0F5FF22C0F8FF21C06A
:10009800F7FF20C0F6FF1FC0F4FF1EC0F3FF1DC00E
:1000A800DAFF1CC0D9FF1BC0E2FF1AC0E1FF19C06C
:1000B800EAFF18C0E9FF17C0FBFF16C0FAFF15C01A
:1000C800E0FF14C0E8FF13C0D8FF3C90100031EFE8
:0200D8000CF02A
:100300000001000A006400E80310272020202020BC
:1003100020253034642C2025303464002020202017
:100320002020496E657274204D6F64650020202086
:1003300020205363616E495200476F696E67204801
:100340006F6D6500536561726368696E67000000D8
:10035000000E0001B56F000E0001B36F000E00012A
:10036000B46FFAC1AFF0FBC1B0F0FCC1B1F0FDC198
:10037000B2F03C0E0001AE6FF28EF28CF28CD08E99
:100380009F9A9D8A9486F2889E9AF292000E0201AC
:10039000006F010E0201016F790E0201026F0F0E54
:1003A0000201036F780E0201046F0F0E0201056F48
:1003B000000E0201066F000E0201086FC70E076FE4
:1003C000000E0201096F010E02010A6F770E020191
:1003D0000B6F0F0E02010C6F760E02010D6F0F0EE8
:1003E00002010E6F020E02010F6F000E0201116F6B
:1003F000C70E106F720ED36ED3B42AD2FDD7000E83
:100400000001626F020E0001636F090E0001646F4C
:10041000020E0001656F43EC09F0000E0101FE6F52
:100420008DEC0AF024C0AFF025C0B0F054EC0AF017
:1004300024C0B1F025C0B2F0000E696E000E686EE7
:10044000000E676E000E666E000E286E010E19EC2F
:100450000CF0210EE82EFED700F0000E286E020EE2
:1004600019EC0CF0060E0001AC6F300EE82EFED732
:10047000AC2FFCD700D0010E01EC0CF01C0E2A6E44
:10048000030E2B6EC6EC0AF0020E01EC0CF001011B
:10049000FE51D8B407D0F00E2A6E010E2B6EC6ECBA
:1004A0000AF0D6D1C80E306E010E316E0B0E326ED0
:1004B000030E336EAFC034F0B0C035F0B1C036F0CB
:1004C000B2C037F039EC04F0C80E2A6E010E2B6E64
:1004D000C6EC0AF0BDD1E8EC0BF09AEC0CF08CEC19
:1004E0000CF08BEC08F06CEC0CF0010E246E000E9E
:1004F00046EC0CF0010E246E010E46EC0CF0000EE2
:100500000001626F020E0001636F090E0001646F4B
:10051000020E0001656F640E0001666F14EC0AF0B4
:10052000010EB0EC0BF03B6893D1010E01EC0CF026
:10053000440E2A6E030E2B6EC6EC0AF00001B3299E
:10054000D8A430D0000E0001626F020E0001636F6C
:10055000090E0001646F020E0001656F640E000158
:10056000666F14EC0AF0060EB0EC0BF0000E000102
:10057000626F020E0001636F090E0001646F020ECC
:100580000001656F43EC09F0000E0001B36F00013C
:10059000B451010D640EF324D96E010EF420DA6E0D
:1005A000000E32D10001B3510001D8A420D0000EBA
:1005B00000016D6F020E00016E6F090E00016F6F7A
:1005C000020E0001706FAEC071F00001726B00018D
:1005D000B451010D000EF3240001736F010EF420DD
:1005E0000001746FBCEC05F00001B36F2ED0000168
:1005F000B305D8A423D0000E00016D6F020E0001D8
:100600006E6F090E00016F6F020E0001706FB40E65
:100610000001716F000E0001726F000E0001736F18
:10062000010E0001746F640E0001756F010E000170
:10063000766FABEC07F00001B36FE7D0020E00015C
:10064000B319D8A4E2D0020E3B6E0001B451010DE3
:10065000640EF324D96E010EF420DA6E010ED4D0AC
:100660000101FE51D8B4A2D0000E0001626F020E4B
:100670000001636F090E0001646F020E0001656FD7
:1006800043EC09F0030E0001CD19D8A402D0010EED
:1006900001D0000E0001AC6F020E0001BE19D8A4FB
:1006A00002D0010E01D0000E0001AC15E8A0D0D0A0
:1006B000BE0E246E000E256EE9EC08F00009D8B4D9
:1006C00041D0000E0001B56F090E0001B56501D0E3
:1006D00020D00001B5510001AC6FAD6B010E0001DF
:1006E000AC27000EAD23BE0E0001AC25D96E000E66
:1006F0000001AD21DA6E0001B551010DF00EF324B9
:10070000E16E010EF420E26EDFCFE7FF0001B52BB2
:10071000DBD7000E0001B56F0F0E0001B56501D0EB
:100720000ED00001B551010DBE0EF324D96E000E9E
:10073000F420DA6E000EDF6E0001B52BEDD7030E4C
:100740003B6E86D0000E0001676F020E0001686FDD
:10075000090E0001696F020E00016A6F640E00014C
:100760006B6F91EC0BF0050EB0EC0BF0000E00017E
:10077000626F020E0001636F090E0001646F020ECA
:100780000001656F43EC09F0000E0001626F020E7C
:100790000001636F090E0001646F020E0001656FB6
:1007A000640E0001666F14EC0AF052D0010E0001D5
:1007B000B36F010E3B6E000E0001626F020E00016E
:1007C000636F090E0001646F020E0001656F640E15
:1007D0000001666F14EC0AF0050EB0EC0BF000019E
:1007E000B451010D640EF324D96E010EF420DA6EBB
:1007F000000EDF6E0001B451010D000EF324D96E1E
:10080000010EF420DA6E050EDF6E0001B42B20D04D
:10081000010E01EC0CF0F00E2A6E010E2B6EC6ECF0
:100820000AF0020E01EC0CF0390E2A6E030E2B6E4C
:10083000C6EC0AF0000E0001626F020E0001636F49
:10084000090E0001646F020E0001656F43EC09F0B0
:100850003B50000AD8B43FD6010AD8B466D6030A82
:10086000D8B4FED6010AD8B4D3D7FC0AD8B4C7D5B9
:10087000EFD7340E0001646F000E0001656F68D180
:10088000250E00016C19D8B409D030C0D9FF31C091
:10089000DAFF6CC0DFFF304A312A5AD1000E000166
:1008A0006B6F000E6A6F000E0001696F04D00001CB
:1008B0006985324A332A32C0F6FF33C0F7FF080099
:1008C000F550300AD8B4F3D732C0F6FF33C0F7FF83
:1008D0000800F5507DEC0CF0D8A03ED0000E0001D1
:1008E0006B6F000E6A6F6AC024F06BC025F0000EBB
:1008F000276E0A0E266E59EC0CF024C06AF025C053
:100900006BF0D00E0001606FFF0E0001616F32C00E
:10091000F6FF33C0F7FF0800F5500001626F636B0C
:100920000001605100016227000161510001632351
:100930000001625100016A270001635100016B232D
:10094000324A332A32C0F6FF33C0F7FF0800F550B1
:100950007DEC0CF0D8B0C7D732C0F6FF33C0F7FF3C
:10096000324A332A0800F5CF6CF000016C51000ABE
:10097000D8B4FBD0640AD8B403D00D0AD8A4E8D008
:1009800064C0D9FF65C0DAFFDECF67F0DDCF68F065
:10099000020E00016427000E6523000168AF08D035
:1009A000030E000169130001676D681FD8B0682B42
:1009B000010E00016C6F050E00016C19D8B416D041
:1009C00000016C51020D010EF324F66E030EF420AB
:1009D000F76E0900F5500001675D0900F550000150
:1009E0006859D8A003D000016C2BE5D700016A51EB
:1009F00000016B11D8B40BD069C060F0030E000188
:100A00006017D8B404D000016A07D8A06B07800E25
:100A100000016CBF7F0E0001606F00016A51000190
:100A20006C5D00016B51800A00016059D8B00BD099
:100A300000016C5100016A5F000E00016CBFFF0EE7
:100A400000016B5B05D0000E00016B6F000E6A6F3A
:100A5000000169A522D069C060F0030E0001601793
:100A6000D8B408D030C0D9FF31C0DAFF2D0EDF6E08
:100A7000304A312A00016A5100016B11D8B434D0D8
:100A800030C0D9FF31C0DAFF300EDF6E304A312A74
:100A900000016A07D8A06B07EDD700016A51000179
:100AA0006B11D8B412D030C0D9FF31C0DAFF200E9C
:100AB000DF6E304A312A00016A07D8A06B070001B7
:100AC0006A5100016B11D8A4EED769C060F0030E23
:100AD00000016017D8B408D030C0D9FF31C0DAFFA8
:100AE0002D0EDF6E304A312A6CC066F02BD000012B
:100AF0006651020D010EF324F66E030EF420F76E1C
:100B00000900F5CF26F00A00F5CF27F067C024F0E2
:100B100068C025F047EC0BF024C02BF025C02CF06A
:100B2000000E2E6E0A0E2D6E70EC0BF02B50300F57
:100B300000016C6F30C0D9FF31C0DAFF6CC0DFFF3D
:100B4000304A312A0001660700016629D8A4CFD7B0
:100B500032C0F6FF33C0F7FF324A332A0800F5CF20
:100B60006CF000016C51D8A48BD630C0D9FF31C0D5
:100B7000DAFF000EDF6E1200BAC0A6F0BBC0A7F00D
:100B8000BCC0A8F0BDC0A9F0000E0001AA6F000E05
:100B90000001AB6F000E0001A16F000EA06F000EF0
:100BA0000001A36F000EA26F000E00019F6F0F0ED9
:100BB0000001A56FA00EA46F6DC067F06EC068F055
:100BC0006FC069F070C06AF0640E00016B6F1EECBC
:100BD0000BF0050EB0EC0BF06DC062F06EC063F070
:100BE0006FC064F070C065F043EC09F0000E0001C6
:100BF000A16F010EA06FECD08DEC0AF024C0A6F01E
:100C000025C0A7F054EC0AF024C0A8F025C0A9F034
:100C1000000E696E000E686E000E676E000E666E46
:100C2000000E286E010E19EC0CF0210EE82EFED7F6
:100C300000F0000E286E020E19EC0CF0060E0001FA
:100C4000756F300EE82EFED7752FFCD700D0010E41
:100C500001EC0CF02D0E2A6E030E2B6EC6EC0AF082
:100C6000020E01EC0CF0770E306E000E316E0C0EA1
:100C7000326E030E336EA6C034F0A7C035F0A8C0A4
:100C800036F0A9C037F039EC04F0770E2A6E000E6A
:100C90002B6EC6EC0AF06DC067F06EC068F06FC0D6
:100CA00069F070C06AF0460E00016B6FF5EC0AF057
:100CB000030E0001756F980EE82EFED7752FFCD736
:100CC0000001A8510001A45D0001A9510001A5592E
:100CD000D8B003D0010E0001AB6F0001A651000196
:100CE000A45D0001A7510001A559D8B003D0010EA1
:100CF0000001AA6F0001AA05D8B404D00001AB0519
:100D0000D8A402D000019F2B0001AA05D8A448D086
:100D10000001AB05D8A444D0000E0001A36F010E62
:100D2000A26F2CD06DC062F06EC063F06FC064F033
:100D300070C065F043EC09F06DC067F06EC068F0FC
:100D40006FC069F070C06AF0640E00016B6F1EEC3A
:100D50000BF0030E0001756F980EE82EFED7752F6D
:100D6000FCD76DC062F06EC063F06FC064F070C0FD
:100D700065F043EC09F00001A24BA32B0001D890D1
:100D80009F310001756F766B0001A2510001755D06
:100D90000001A35100017659D8B0C4D7020E120049
:100DA0000001AA05D8A411D00001AB510001D8A4BC
:100DB0000CD06DC062F06EC063F06FC064F070C0A4
:100DC00065F043EC09F0020E12000001A04BA12BCC
:100DD0000001A0510001715D0001A1510001725993
:100DE000D8B00AD76DC067F06EC068F06FC069F008
:100DF00070C06AF0640E00016B6FF5EC0AF0050E2E
:100E0000B0EC0BF06DC062F06EC063F06FC064F0C8
:100E100070C065F043EC09F0FF0E120032C0D9FF3C
:100E200033C0DAFFDF50346E3450246E256A20EE72
:100E300007F03250D9263350DA22DECF26F0DDCF4C
:100E400027F059EC0CF024C02AF025C02BF0000E3E
:100E50002D6E640E2C6ED2EC09F02AC060F02BC00F
:100E600061F020EE01F03250D9263350DA22DF5003
:100E7000D8B42ED020EE06F03250D9263350DA22E4
:100E8000DF50346E010E356E342A02D0D8903536DC
:100E9000342EFCD735508A108A6E20EE07F032507F
:100EA000D9263350DA22DECF34F0DDCF35F060C002
:100EB00036F061C037F0361E371E364A372A3450B6
:100EC00036240001606F355037200001616F14D067
:100ED00020EE06F03250D9263350DA22DF50346E3D
:100EE000010E356E342A02D0D8903536342EFCD718
:100EF0003550FF0A8A148A6E20EE02F03250D9264D
:100F00003350DA22DECF34F0DDCF35F034C0D9FFF4
:100F100035C0DAFF00016045E846FC0BDF6E20EECD
:100F200004F03250D9263350DA22DECF34F0DDCF50
:100F300035F034C0D9FF35C0DAFF60C036F061C08B
:100F400037F0060E386E373437323632382EFBD74C
:100F50003650DF6E1200B6C0A1F0B7C0A2F0B8C024
:100F6000A3F0B9C0A4F0090E0001A06FC40E9F6FDA
:100F70008DEC0AF024C0A1F025C0A2F054EC0AF0D8
:100F800024C0A3F025C0A4F0000E696E000E686EA8
:100F9000000E676E000E666E000E286E010E19ECD4
:100FA0000CF0210EE82EFED700F0000E286E020E87
:100FB00019EC0CF0060E396E300EE82EFED7392EE5
:100FC000FCD700D0010E01EC0CF02D0E2A6E030EA2
:100FD0002B6EC6EC0AF0020E01EC0CF0770E306EB0
:100FE000000E316E0C0E326E030E336EA1C034F063
:100FF000A2C035F0A3C036F0A4C037F039EC04F03D
:10100000770E2A6E000E2B6EC6EC0AF00001A1517D
:1010100000019F5D0001A2510001A059D8B00CD081
:101020000001A35100019F5D0001A4510001A059DE
:10103000D8B002D0020E12006DC062F06EC063F034
:101040006FC064F070C065F043EC09F0000E120050
:10105000276E2750246E256A070ED8902436253631
:10106000E82EFBD7070E266E253425322432262E95
:10107000FBD724468B502418FD0B24188B6E275069
:10108000246E256A060ED89024362536E82EFBD726
:10109000070E266E253425322432262EFBD7244611
:1010A00024468B502418FB0B24188B6E2750246E7B
:1010B000256A050ED89024362536E82EFBD7070E74
:1010C000266E253425322432262EFBD78C50241848
:1010D000FE0B24188C6E2750246E256A243A253A7C
:1010E000F00E251624500F0B2512F00E2416070EB5
:1010F000266E253425322432262EFBD724468C50EA
:101100002418FD0B24188C6EA3EC0CF0030EE82EB3
:10111000FED700F01200929C949094929494959033
:101120009592270E2A6EF50EE82EFED72A2EFCD7B2
:1011300000F0030E28EC08F00D0E2A6EFC0EE82ECF
:10114000FED72A2EFCD7030E28EC08F0850EE82ED9
:10115000FED700F0030E28EC08F0210EE82EFED793
:1011600000F0020E28EC08F0210EE82EFED700F069
:10117000000E286E280E19EC0CF0210EE82EFED77A
:1011800000F0000E286E080E19EC0CF0210EE82E6F
:10119000FED700F0000E286E010E19EC0CF00D0EBB
:1011A0002A6EFC0EE82EFED72A2EFCD7000E286EE3
:1011B000060E19EC0CF0210EE82EFED700F0000E02
:1011C000286E0C0E19EC0CF0210EE82EFED700F064
:1011D0001200000E2C6E000E2E6E000E2D6E000EF4
:1011E0002F6E20EE04F02450D9262550DA22DF504D
:1011F000266E20EE03F02450D9262550DA22DF5047
:10120000276E2750296E286A265028242D6E000E3E
:1012100029202E6E20EE02F02450D9262550DA2205
:10122000DF502D182C6E050E2F6E090E2F6401D085
:1012300028D02F50266E276A010E2626000E272260
:1012400026502424D96E27502520DA6EDF50286ED0
:101250002F50010DF3502424D96EF4502520DA6E5E
:10126000DF50296E29502B6E2A6A28502A242D6EB1
:10127000000E2B202E6E2C502D182C6E020E2F26B9
:10128000D4D7010E120028D062C0D9FF63C0DAFFA4
:10129000DF50D8B405D062C0D9FF63C0DAFFDF06E3
:1012A00064C0D9FF65C0DAFFDF50D8B405D064C090
:1012B000D9FF65C0DAFFDF0662C032F063C033F0E9
:1012C0000EEC07F064C032F065C033F00EEC07F0AE
:1012D000210EE82EFED700F062C0D9FF63C0DAFF0E
:1012E000DF50D8A4D1D764C0D9FF65C0DAFFDF5082
:1012F000D8A4CAD7000120EE01F06251D92663516B
:10130000DA22010EDF6E000120EE01F06451D926D1
:101310006551DA22010EDF6E1200E9CF07F0EACF45
:1013200008F0E1CF09F0E2CF0AF0D9CF0BF0DACF25
:101330000CF0F3CF0DF0F4CF0EF0F6CF0FF0F7CFA7
:1013400010F0F8CF11F0F5CF12F0F2A20DD03B283B
:10135000D8A403D0010E3B6E03D03B50D8A43B6809
:10136000020ECCEC0BF0F29212C0F5FF11C0F8FFA8
:1013700010C0F7FF0FC0F6FF0EC0F4FF0DC0F3FF63
:101380000CC0DAFF0BC0D9FF0AC0E2FF09C0E1FFC1
:1013900008C0EAFF07C0E9FF06C0FBFF05C0FAFF6F
:1013A0003C921100000E2F6E2DAE06D02C6C2D1E1F
:1013B000D8B02D2A010E2F6E2BAE06D02A6C2B1E14
:1013C000D8B02B2A010E2F1A000E316E000E306E8F
:1013D0002C502D10D8B41CD0010E2E6E04D0D890F5
:1013E0002C362D362E2A2DAEFAD7D89030363136FF
:1013F0002C502A5C2D502B58D8A005D02C502A5E9A
:101400002D502B5A3080D8902D322C322E2EEDD7E5
:101410002F50D8B404D0306C311ED8B0312A30C02F
:101420002AF031C02BF012002CD062C0D9FF63C06B
:10143000DAFF00016651DE5CD8B005D062C0D9FF8A
:1014400063C0DAFFDF2A64C0D9FF65C0DAFF00019C
:101450006651DE5CD8B005D064C0D9FF65C0DAFF44
:10146000DF2A62C032F063C033F00EEC07F064C0D4
:1014700032F065C033F00EEC07F0210EE82EFED7F7
:1014800000F062C0D9FF63C0DAFF00016651DE5C84
:10149000D8A0CBD764C0D9FF65C0DAFF0001665180
:1014A000DE5CD8B01200C1D7000E2A6E000E296E85
:1014B000000E2B6E000E2B6E030E2B6401D01ED07F
:1014C0006950266E276A070ED89026362736E82EF2
:1014D000FBD768CF28F0D890283228502612000E6B
:1014E00027122650292627502A22820E266EDE0E2B
:1014F000E82EFED7262EFCD72B2ADED729C026F0D1
:101500002AC027F0D89027322632D89027322632A8
:1015100026C024F027C025F01200000E2A6E000E0F
:10152000296E000E2B6E000E2B6E030E2B6401D065
:101530001ED06750266E276A070ED89026362736AB
:10154000E82EFBD766CF28F0D890283228502612F4
:10155000000E27122650292627502A22820E266E98
:10156000DE0EE82EFED7262EFCD72B2ADED729C08A
:1015700026F02AC027F0D89027322632D89027327A
:10158000263226C024F027C025F012001AD0010E02
:10159000286E2AC0F6FF2BC0F7FFF86A020EF76428
:1015A00003D00800F55005D0F6CFE1FFF7CFE2FFFA
:1015B000E75019EC0CF02A4A2B2A210EE82EFED710
:1015C00000F02AC0F6FF2BC0F7FFF86A020EF7649E
:1015D00003D00800F55005D0F6CFE1FFF7CFE2FFCA
:1015E000E7500009D8B41200D2D767C062F068C0D3
:1015F00063F069C064F06AC065F043EC09F0000173
:1016000020EE01F06751D9266851DA22000EDF6E14
:10161000000120EE01F06951D9266A51DA22010E4B
:10162000DF6E67C062F068C063F069C064F06AC0D2
:1016300065F06BC066F014EC0AF0120067C062F04F
:1016400068C063F069C064F06AC065F043EC09F0FB
:10165000000120EE01F06751D9266851DA22010E0F
:10166000DF6E000120EE01F06951D9266A51DA22BD
:10167000000EDF6E67C062F068C063F069C064F09E
:101680006AC065F06BC066F014EC0AF01200000E40
:10169000296E000E286E26502710D8B41CD0010EDB
:1016A0002A6E04D0D890263627362A2A27AEFAD7B3
:1016B000D890283629362650245C27502558D8A0A3
:1016C00005D02650245E2750255A2880D8902732EE
:1016D00026322A2EEDD728C024F029C025F012008A
:1016E0002D502E10D8B418D0010E2F6E04D0D890E3
:1016F0002D362E362F2A2EAEFAD72D502B5C2E509B
:101700002C58D8A004D02D502B5E2E502C5AD89097
:101710002E322D322F2EF1D72BC02BF02CC02CF0D7
:101720001200000120EE01F06751D9266851DA223B
:10173000000EDF6E000120EE01F06951D9266A51DA
:10174000DA22000EDF6E67C062F068C063F069C025
:1017500064F06AC065F06BC066F014EC0AF0120029
:10176000256E000E276E000E266E000E276E010EEF
:10177000266E09D0820E246EDE0EE82EFED7242EB1
:10178000FCD7264A272A2550020D2650F35C275005
:10179000F458D8A01200EED7026E000E046E000EB0
:1017A000036E000E046E010E036E09D0820E016EF0
:1017B000DE0EE82EFED7012EFCD7034A042A025083
:1017C000020D0350F35C0450F458D8A01200EED779
:1017D000000E7F6E800E7E6E6F0E6F6E000E6E6E50
:1017E000C70E7B6E000E7A6E000E796E000E786E5C
:1017F000000E776E000E766E93909392939493966C
:1018000012002A6E2A04D8A406D0000E286E800E7C
:1018100019EC0CF009D0020E2A18D8A405D0000E3D
:10182000286EC00E19EC0CF0210EE82EFED700F049
:101830001200296E28B002D0899C01D0898C2938E9
:101840000F0B0F0B28EC08F0060EE82EFED700D089
:1018500029500F0B28EC08F0210EE82EFED700F0DF
:1018600012000101FE6BFD6BFC6BFB6BFA6B00EE73
:10187000B6F0180EEE6AE806FDE13B6A3A6A3C9063
:101880003C92000EF86E0001A8EF01F0256E255085
:10189000D8A406D024B002D08D9001D08D80120043
:1018A0002504D8A4120024B002D08D9201D08D82DC
:1018B000120024502602F3CF28F0F4CF29F0245050
:1018C0002702F350292625502602F350292628C046
:1018D00024F029C025F0120089948996928492867A
:1018E000B894B896B89CB89E060E636E060E626EEB
:1018F00096909692590EB76E1200266E000E256EC7
:101900003A0E266005D02F0E266402D0010E256EF9
:1019100025C024F0243012009450C009946ECD0EDE
:10192000AF6E000EB06EAA86AC84AB88AB8EAC985E
:10193000AB9C1200D59ED59CD59AD596D580D582E4
:10194000D584F29A12008B80030EE82EFED700F0A9
:041950008B90120066
:020000040020DA
:08000000FFFFFFFFFFFFFFFF00
:020000040030CA
:0E000000FFC80F3E3C1D81FF0FC00FE00F40F8
:00000001FF
