:040000006BEF00F0B2
:0E0008003C82FACF05F0FBCF06F0F4EF0BF0D0
:100018003C80D8CF13F0E8CF14F0E0CF15F0FACF3A
:1000280016F0FBCF17F0E9CF18F0EACF19F0E1CFBF
:100038001AF0E2CF1BF0D9CF1CF0DACF1DF0F3CFC6
:100048001EF0F4CF1FF0F6CF20F0F7CF21F0F8CF55
:1000580022F0F5CF23F09EAA16D03A50010DE60EF5
:10006800F324D96E010EF420DA6EAECFDFFF010E55
:100078000101F66F0F0E3A18D8A403D0000E3A6E9D
:1000880001D03A2A9E9A23C0F5FF22C0F8FF21C06A
:10009800F7FF20C0F6FF1FC0F4FF1EC0F3FF1DC00E
:1000A800DAFF1CC0D9FF1BC0E2FF1AC0E1FF19C06C
:1000B800EAFF18C0E9FF17C0FBFF16C0FAFF15C01A
:1000C800E0FF14C0E8FF13C0D8FF3C901000B7EF62
:0200D8000EF028
:100300000001000A006400E80310272020202020BC
:1003100020253034642C2025303464002020202017
:100320002020496E657274204D6F64650020202086
:1003300020205363616E495200476F696E67204801
:100340006F6D6500536561726368696E67000000D8
:10035000000E0101836F000E0101826F21EE97F004
:1003600011EE4BF0310EDBCFE3FFE806FCE221EEAD
:10037000C9F011EE32F0180EDBCFE3FFE806FCE225
:10038000000E0101846FE2C17EF1E3C17FF1E4C19F
:1003900080F1E5C181F13C0E01017D6FF28EF28C9E
:1003A000F28CD08E9F9A9D8A9486F2889E9AF292C1
:1003B000000E0101856F010E0101866F790E0101AA
:1003C000876F0F0E0101886F780E0101896F0F0E84
:1003D00001018A6F000E01018B6F000E01018D6F0C
:1003E000C70E8C6F000E01018E6F010E01018F6F21
:1003F000770E0101906F0F0E0101916F760E0101D2
:10040000926F0F0E0101936F020E0101946F000EA7
:100410000101966FC70E956F520ED36ED3B46AD397
:10042000FDD7850E0001626F010E0001636F8E0E15
:100430000001646F010E0001656FAAEC0BF0000E65
:100440000101F66F000E0101846FF5EC0CF024C081
:100450007EF125C07FF1BBEC0CF024C080F125C0FB
:1004600081F1000E696E000E686E000E676E000E60
:10047000666E000E286E010EA0EC0EF0080EE82E3F
:10048000FED700F0000E286E020EA0EC0EF0FA0E61
:1004900000F0E82EFDD7010E88EC0EF01C0E2A6E3F
:1004A000030E2B6E2FEC0DF0020E88EC0EF0010106
:1004B000F651D8B407D0280E2A6E010E2B6E2FEC01
:1004C0000DF018D3000E306E010E316E0B0E326E31
:1004D000030E336E7EC134F07FC135F080C136F03B
:1004E00081C137F053EC08F0000E2A6E010E2B6E1E
:1004F0002FEC0DF0FFD231EC0EF020EC0FF012ECEF
:100500000FF04CEC0BF0F2EC0EF0010E246E000E2E
:10051000CCEC0EF0010E246E010ECCEC0EF0850E2C
:100520000001626F010E0001636F8E0E0001646FA7
:10053000010E0001656F640E0001666F7BEC0CF02C
:10054000010E4EEC0EF0D5D2010E88EC0EF0440EEA
:100550002A6E030E2B6E2FEC0DF001018229D8A418
:100560003ED001018451010D320EF324D96E010EEB
:10057000F420DA6E000EDF6E01018451020D4B0E85
:10058000F324D96E010EF420DA6E060EDE6E000E34
:10059000DD6E0101842B850E0001626F010E0001EA
:1005A000636F8E0E0001646F010E0001656F640EB3
:1005B0000001666F7BEC0CF0060E4EEC0EF0850E23
:1005C0000001626F010E0001636F8E0E0001646F07
:1005D000010E0001656FAAEC0BF0000E42D0010184
:1005E00082510101D8A42BD0850E00016D6F010E40
:1005F00000016E6F8E0E00016F6F010E0001706FB3
:100600007DC171F00001726B4B0E0001736F010E22
:100610000001746F840E0001756F010E0001766F8A
:10062000320E0001776F010E0001786FF60E0001A7
:10063000796F010E00017A6F8BEC05F012D0010189
:100640008205D8A411D0850E00016D6F010E000146
:100650006E6F8E0E00016F6F010E0001706F73ECF4
:100660000AF00101826F46D2020E01018219D8A45C
:1006700041D2020E3B6E01018451010D320EF32472
:10068000D96E010EF420DA6E010EDF6E33D2010155
:10069000F651D8B4A2D0850E0001626F010E0001A0
:1006A000636F8E0E0001646F010E0001656FAAEC8E
:1006B0000BF0030E0101F519D8A402D0010E01D0F0
:1006C000000E0001BA6F020E0101E619D8A402D093
:1006D000010E01D0000E0001BA15E8A00BD2E60E03
:1006E000246E010E256E5EEC0DF00009D8B441D0E9
:1006F000000E0101836F090E0101836501D020D036
:10070000010183510001BA6FBB6B010E0001BA27D2
:10071000000EBB23E60E0001BA25D96E010E0001C2
:10072000BB21DA6E01018351010D280EF324E16E25
:10073000010EF420E26EDFCFE7FF0101832BDBD750
:10074000000E0101836F0F0E0101836501D00ED0F1
:1007500001018351010DE60EF324D96E010EF42040
:10076000DA6E000EDF6E0101832BEDD7030E3B6EB8
:10077000C1D1850E0001676F010E0001686F8E0EFA
:100780000001696F010E00016A6F640E00016B6F5A
:10079000D4EC0DF0050E4EEC0EF0850E0001626FEC
:1007A000010E0001636F8E0E0001646F010E0001E7
:1007B000656FAAEC0BF0850E0001626F010E00015F
:1007C000636F8E0E0001646F010E0001656F640E91
:1007D0000001666F7BEC0CF08DD1010E0101826F80
:1007E000010E3B6E850E0001626F010E0001636F0A
:1007F0008E0E0001646F010E0001656F640E000132
:10080000666F7BEC0CF0010E4EEC0EF00101845192
:10081000010D320EF324D96E010EF420DA6E000EB3
:10082000DF6E01018451020D4B0EF324D96E010ECF
:10083000F420DA6E050EDE6E000EDD6E0101842BF3
:1008400059D1010E88EC0EF0280E2A6E010E2B6E87
:100850002FEC0DF0020E88EC0EF0390E2A6E030E0E
:100860002B6E2FEC0DF0010184BF35D1850E0001F8
:10087000626F010E0001636F8E0E0001646F010E46
:100880000001656FAAEC0BF001018451010D320EDD
:10089000F324D96E010EF420DA6EDF50D8A41ED0F6
:1008A000850E0001676F010E0001686F8E0E00015A
:1008B000696F010E00016A6F640E00016B6FD4EC6A
:1008C0000DF001018451020D4B0EF324D96E010E7F
:1008D000F420DA6EDF504EEC0EF0F7D001018451B7
:1008E000010D320EF324D96E010EF420DA6EDE040F
:1008F000D8A491D0D59E000ED66E000ED76E010101
:100900008451020D4B0EF324D96E010EF420DA6EE1
:10091000010EDBBE3DD0010EDB5003E1DE04D8A0AA
:1009200037D0D58E850E0001676F010E0001686F0C
:100930008E0E0001696F010E00016A6F280E000122
:100940006B6FF3EC0DF001018451020D4B0EF3249B
:10095000D96E010EF420DA6ED650D7CFBCF000016C
:10096000BD6BBCC0BDF00001BC6B0001BC27000E1C
:10097000BD23DE500001BC5D0001BD51800A0001B5
:10098000BE6FDE50800A0001BE59D8A0DCD741D02E
:10099000D58E850E0001676F010E0001686F8E0E07
:1009A0000001696F010E00016A6F280E00016B6F74
:1009B00012EC0EF001018451020D4B0EF324D96E9E
:1009C000010EF420DA6EDECFBAF0DDCFBBF000010D
:1009D000BA1FBB1FBA4BBB2BD650D7CFBCF0000100
:1009E000BD6BBCC0BDF00001BC6B0001BC27000E9C
:1009F000BD230001BA510001BC5D0001BD51800A58
:100A00000001BE6F0001BB51800A0001BE59D8A091
:100A1000D1D7D59E5AD001018451010D320EF32455
:100A2000D96E010EF420DA6E020EDE18D8A44DD075
:100A300001018451020D4B0EF324D96E010EF420F6
:100A4000DA6E010EDBBE24D0010EDB5003E1DE04C2
:100A5000D8A01ED0850E0001676F010E0001686FDF
:100A60008E0E0001696F010E00016A6F640E0001B5
:100A70006B6FF3EC0DF001018451020D4B0EF3246A
:100A8000D96E010EF420DA6EDF504EEC0EF01DD060
:100A9000850E0001676F010E0001686F8E0E000168
:100AA000696F010E00016A6F640E00016B6F12EC3A
:100AB0000EF001018451020D4B0EF324D96E010E8C
:100AC000F420DA6EDF504EEC0EF03B28D8B403D0A1
:100AD00001018407C8D6850E0001626F010E000176
:100AE000636F8E0E0001646F010E0001656FAAEC4A
:100AF0000BF03B683B50000AD8B4FDD4010AD8B4CF
:100B000023D5030AD8B4C3D5010AD8B49AD6FC0AAF
:100B1000D8B487D4EFD7C3C0B3F0C4C0B4F0C5C055
:100B2000B5F0C6C0B6F0000E0001B06F000EAF6F9A
:100B3000000E0001B96F000EB86F000E0001AA6F21
:100B4000000EA96F000E0001B26F000EB16F030E10
:100B50000001AC6FE80EAB6F280E0001AD6F020E06
:100B60000001B76F010E0001AE6F75C0D9FF76C0EE
:100B7000DAFFDF5000017B6F00017B51010DF35064
:100B800000017725D96EF45000017821DA6E020E4B
:100B9000DF6EB7C07BF000017C6B7BBF7C0775C04C
:100BA000D9FF76C0DAFFDF5000017D6F00017D5173
:100BB000020DF35000017325D96EF4500001742129
:100BC000DA6E7BC0DEFF7CC0DDFF75C0D9FF76C06A
:100BD000DAFFDF5000017B6F00017B2975C0D9FF70
:100BE00076C0DAFFDF6E6DC067F06EC068F06FC070
:100BF00069F070C06AF0640E00016B6F12EC0EF0C9
:100C00000001B7514EEC0EF06DC062F06EC063F0A3
:100C10006FC064F070C065F0AAEC0BF06DC067F0B7
:100C20006EC068F06FC069F070C06AF0ADC06BF064
:100C3000F3EC0DF0000ED66E000ED76ED58E000EC2
:100C40000001AA6F010EA96FCFD1F5EC0CF024C002
:100C5000B3F025C0B4F0BBEC0CF024C0B5F025C057
:100C6000B6F0000E696E000E686E000E676E000E24
:100C7000666E000E286E010EA0EC0EF0080EE82E37
:100C8000FED700F0000E286E020EA0EC0EF0FA0E59
:100C900000F0E82EFDD7010E88EC0EF02D0E2A6E26
:100CA000030E2B6E2FEC0DF0020E88EC0EF0810E71
:100CB000306E000E316E0C0E326E030E336EB3C00A
:100CC00034F0B4C035F0B5C036F0B6C037F053ECF0
:100CD00008F0810E2A6E000E2B6E2FEC0DF0000135
:100CE000B5510001AB5D0001B6510001AC59D8B05F
:100CF0000ED0D75000017C6F7B6BD65000017B2556
:100D00000001B86F000E00017C210001B96F0001E5
:100D1000B3510001AB5D0001B4510001AC59D8B032
:100D20000ED0D75000017C6F7B6BD65000017B2525
:100D30000001AF6F000E00017C210001B06F0001C7
:100D4000AF510001B011D8B443D10001B851000136
:100D5000B911D8B4A1D0B8C07BF0B9C07CF0000103
:100D60007B1F7C1F7B4B7C2B0001AF5100017B253F
:100D70000001B16F0001B05100017C210001B26F90
:100D8000000ED66E000ED76E6DC062F06EC063F0BE
:100D90006FC064F070C065F0AAEC0BF00CD06DC0B1
:100DA00067F06EC068F06FC069F070C06AF0ADC0E7
:100DB0006BF012EC0EF0D8900001B23100017C6FA4
:100DC0000001B13100017B6FD75000017E6F7D6B58
:100DD000D65000017F6F806B00017D5100017F279D
:100DE00000017E510001802300017B5100017F5DE5
:100DF00000017C5100018059D8A0D1D7D59E6DC08B
:100E000062F06EC063F06FC064F070C065F0AAEC71
:100E10000BF075C0D9FF76C0DAFFDF5000017B6FA1
:100E200000017B51010DF35000017725D96EF4507C
:100E300000017821DA6E010EDF6ED8900001B23128
:100E400000017C6F0001B13100017B6F0001B851DE
:100E500000017B270001B95100017C2300017B1FA9
:100E60007C1F7B4B7C2B75C0D9FF76C0DAFFDF502F
:100E700000017D6F00017D51020DF35000017325CB
:100E8000D96EF45000017421DA6E7BC0DEFF7CC0A5
:100E9000DDFF8FD0020E1200D59E75C0D9FF76C03F
:100EA000DAFFDF5000017B6F00017B51010DF35031
:100EB00000017725D96EF45000017821DA6E010E19
:100EC000DF6ED75000017C6F7B6BD65000017D6FC9
:100ED0007E6B00017B5100017D2700017C510001E8
:100EE0007E2300017D1F7E1F7D4B7E2B75C0D9FFA9
:100EF00076C0DAFFDF5000017F6F00017F51020DE5
:100F0000F35000017325D96EF45000017421DA6E9C
:100F10007DC0DEFF7EC0DDFF75C0D9FF76C0DAFF81
:100F2000DF5000017B6F00017B2975C0D9FF76C0BF
:100F3000DAFFDF6E6DC062F06EC063F06FC064F008
:100F400070C065F0AAEC0BF06DC067F06EC068F081
:100F50006FC069F070C06AF0640E00016B6F12EC34
:100F60000EF00001AE514EEC0EF06DC062F06EC09E
:100F700063F06FC064F070C065F0AAEC0BF075C050
:100F8000D9FF76C0DAFFDF5000017B6F00017B5193
:100F9000010DF35000017725D96EF450000178213E
:100FA000DA6E020EDF6E0001AE5100017B6F7C6BCA
:100FB0005AD775C0D9FF76C0DAFFDF5000017B6FCA
:100FC00000017B2975C0D9FF76C0DAFFDF6E62D7DA
:100FD00079C0D9FF7AC0DAFFDE04D8A402D0020EAD
:100FE00012000001A94BAA2B0001A9510001715D5B
:100FF0000001AA5100017259D8B027D675C0D9FF97
:1010000076C0DAFFDF5000017B6F00017B51010DDC
:10101000F35000017725D96EF45000017821DA6E83
:10102000020EDF6E75C0D9FF76C0DAFFDF50000117
:101030007B6F00017B51020DF35000017325D96EC7
:10104000F45000017421DA6EFE0EDE6EFF0EDD6ECE
:1010500075C0D9FF76C0DAFFDF5000017B6F000159
:101060007B2975C0D9FF76C0DAFFDF6E6DC067F0EF
:101070006EC068F06FC069F070C06AF0640E000165
:101080006B6FF3EC0DF00001B7514EEC0EF06DC03C
:1010900062F06EC063F06FC064F070C065F0AAECDF
:1010A0000BF0FF0E1200340E0001646F000E000101
:1010B000656F68D1250E00016C19D8B409D030C015
:1010C000D9FF31C0DAFF6CC0DFFF304A312A5AD174
:1010D000000E00016B6F000E6A6F000E0001696F59
:1010E00004D000016985324A332A32C0F6FF33C08A
:1010F000F7FF0800F550300AD8B4F3D732C0F6FF36
:1011000033C0F7FF0800F55003EC0FF0D8A03ED035
:10111000000E00016B6F000E6A6F6AC024F06BC096
:1011200025F0000E276E0A0E266EDFEC0EF024C0AE
:101130006AF025C06BF0D00E0001606FFF0E000159
:10114000616F32C0F6FF33C0F7FF0800F5500001B1
:10115000626F636B00016051000162270001615101
:10116000000163230001625100016A2700016351FD
:1011700000016B23324A332A32C0F6FF33C0F7FF37
:101180000800F55003EC0FF0D8B0C7D732C0F6FF17
:1011900033C0F7FF324A332A0800F5CF6CF0000164
:1011A0006C51000AD8B4FBD0640AD8B403D00D0A3D
:1011B000D8A4E8D064C0D9FF65C0DAFFDECF67F0FD
:1011C000DDCF68F0020E00016427000E65230001E8
:1011D00068AF08D0030E000169130001676D681F36
:1011E000D8B0682B010E00016C6F050E00016C1960
:1011F000D8B416D000016C51020D010EF324F66E26
:10120000030EF420F76E0900F5500001675D090038
:10121000F55000016859D8A003D000016C2BE5D728
:1012200000016A5100016B11D8B40BD069C060F0A5
:10123000030E00016017D8B404D000016A07D8A0DB
:101240006B07800E00016CBF7F0E0001606F000114
:101250006A5100016C5D00016B51800A0001605908
:10126000D8B00BD000016C5100016A5F000E000184
:101270006CBFFF0E00016B5B05D0000E00016B6FB1
:10128000000E6A6F000169A522D069C060F0030EEC
:1012900000016017D8B408D030C0D9FF31C0DAFFE0
:1012A0002D0EDF6E304A312A00016A5100016B11A8
:1012B000D8B434D030C0D9FF31C0DAFF300EDF6E81
:1012C000304A312A00016A07D8A06B07EDD7000128
:1012D0006A5100016B11D8B412D030C0D9FF31C0AF
:1012E000DAFF200EDF6E304A312A00016A07D8A0EB
:1012F0006B0700016A5100016B11D8A4EED769C0D9
:1013000060F0030E00016017D8B408D030C0D9FFD8
:1013100031C0DAFF2D0EDF6E304A312A6CC066F024
:101320002BD000016651020D010EF324F66E030E60
:10133000F420F76E0900F5CF26F00A00F5CF27F06C
:1013400067C024F068C025F08AEC0DF024C02BF0B3
:1013500025C02CF0000E2E6E0A0E2D6EB3EC0DF093
:101360002B50300F00016C6F30C0D9FF31C0DAFF55
:101370006CC0DFFF304A312A000166070001662990
:10138000D8A4CFD732C0F6FF33C0F7FF324A332A92
:101390000800F5CF6CF000016C51D8A48BD630C09A
:1013A000D9FF31C0DAFF000EDF6E120032C0D9FF64
:1013B00033C0DAFFDF50346E3450246E256A20EEDD
:1013C00007F03250D9263350DA22DECF26F0DDCFB7
:1013D00027F0DFEC0EF024C02AF025C02BF0000E21
:1013E0002D6E640E2C6E39EC0CF02AC060F02BC010
:1013F00061F020EE01F03250D9263350DA22DF506E
:10140000D8B42ED020EE06F03250D9263350DA224E
:10141000DF50346E010E356E342A02D0D890353646
:10142000342EFCD735508A108A6E20EE07F03250E9
:10143000D9263350DA22DECF34F0DDCF35F060C06C
:1014400036F061C037F0361E371E364A372A345020
:1014500036240001606F355037200001616F14D0D1
:1014600020EE06F03250D9263350DA22DF50346EA7
:10147000010E356E342A02D0D8903536342EFCD782
:101480003550FF0A8A148A6E20EE02F03250D926B7
:101490003350DA22DECF34F0DDCF35F034C0D9FF5F
:1014A00035C0DAFF00016045E846FC0BDF6E20EE38
:1014B00004F03250D9263350DA22DECF34F0DDCFBB
:1014C00035F034C0D9FF35C0DAFF60C036F061C0F6
:1014D00037F0060E386E373437323632382EFBD7B7
:1014E0003650DF6E1200BFC09BF0C0C09CF0C1C080
:1014F0009DF0C2C09EF0030E00019A6FE80E996F36
:10150000F5EC0CF024C09BF025C09CF0BBEC0CF07B
:1015100024C09DF025C09EF0000E696E000E686E1E
:10152000000E676E000E666E000E286E010EA0ECB7
:101530000EF0080EE82EFED700F0000E286E020E08
:10154000A0EC0EF0FA0E00F0E82EFDD7010E88ECAC
:101550000EF02D0E2A6E030E2B6E2FEC0DF0020EE8
:1015600088EC0EF0710E306E000E316E0C0E326E85
:10157000030E336E9BC034F09CC035F09DC036F036
:101580009EC037F053EC08F0710E2A6E000E2B6EE1
:101590002FEC0DF000019B510001995D00019C5161
:1015A00000019A59D8B00CD000019D510001995DFD
:1015B00000019E5100019A59D8B002D0020E1200CB
:1015C0006DC062F06EC063F06FC064F070C065F013
:1015D000AAEC0BF0000E1200276E2750246E256A2D
:1015E000070ED89024362536E82EFBD7070E266E38
:1015F000253425322432262EFBD724468B5024183E
:10160000FD0B24188B6E2750246E256A060ED89089
:1016100024362536E82EFBD7070E266E25342532D4
:101620002432262EFBD7244624468B502418FB0B4D
:1016300024188B6E2750246E256A050ED890243608
:101640002536E82EFBD7070E266E253425322432A8
:10165000262EFBD78C502418FE0B24188C6E275096
:10166000246E256A243A253AF00E251624500F0BD5
:101670002512F00E2416070E266E2534253224324C
:10168000262EFBD724468C502418FD0B24188C6E74
:1016900029EC0FF000D01200929C949094929494B4
:1016A000959095920A0E2A6EBC0EE82EFED72A2E31
:1016B000FCD700D0030EECEC0AF0040E2A6E3E0EAE
:1016C000E82EFED72A2EFCD7030EECEC0AF0210EF2
:1016D000E82EFED700F0030EECEC0AF0080EE82E20
:1016E000FED700F0020EECEC0AF0080EE82EFED752
:1016F00000F0000E286E280EA0EC0EF0080EE82E6A
:10170000FED700F0000E286E080EA0EC0EF0080EBA
:10171000E82EFED700F0000E286E010EA0EC0EF0B1
:10172000040E2A6E3E0EE82EFED72A2EFCD7000E9F
:10173000286E060EA0EC0EF0080EE82EFED700F084
:10174000000E286E0C0EA0EC0EF0080EE82EFED750
:1017500000F0120028D062C0D9FF63C0DAFFDF506A
:10176000D8B405D062C0D9FF63C0DAFFDF0664C019
:10177000D9FF65C0DAFFDF50D8B405D064C0D9FF07
:1017800065C0DAFFDF0662C032F063C033F0D6EC2A
:1017900009F064C032F065C033F0D6EC09F0080EF1
:1017A000E82EFED700F062C0D9FF63C0DAFFDF5039
:1017B000D8A4D1D764C0D9FF65C0DAFFDF50D8A460
:1017C000CAD7000120EE01F06251D9266351DA2216
:1017D000010EDF6E000120EE01F06451D926655143
:1017E000DA22010EDF6E1200E9CF07F0EACF08F02F
:1017F000E1CF09F0E2CF0AF0D9CF0BF0DACF0CF04D
:10180000F3CF0DF0F4CF0EF0F6CF0FF0F7CF10F0CE
:10181000F8CF11F0F5CF12F0F2A20DD03B28D8A4EA
:1018200003D0010E3B6E03D03B50D8A43B68020EA0
:101830006BEC0EF0F29212C0F5FF11C0F8FF10C071
:10184000F7FF0FC0F6FF0EC0F4FF0DC0F3FF0CC092
:10185000DAFF0BC0D9FF0AC0E2FF09C0E1FF08C0F0
:10186000EAFF07C0E9FF06C0FBFF05C0FAFF3C9294
:101870001100000E2F6E2DAE06D02C6C2D1ED8B090
:101880002D2A010E2F6E2BAE06D02A6C2B1ED8B03F
:101890002B2A010E2F1A000E316E000E306E2C50C6
:1018A0002D10D8B41CD0010E2E6E04D0D8902C363A
:1018B0002D362E2A2DAEFAD7D890303631362C5010
:1018C0002A5C2D502B58D8A005D02C502A5E2D50C4
:1018D0002B5A3080D8902D322C322E2EEDD72F500F
:1018E000D8B404D0306C311ED8B0312A30C02AF0C0
:1018F00031C02BF012002CD062C0D9FF63C0DAFFD8
:1019000000016651DE5CD8B005D062C0D9FF63C06B
:10191000DAFFDF2A64C0D9FF65C0DAFF0001665133
:10192000DE5CD8B005D064C0D9FF65C0DAFFDF2A1D
:1019300062C032F063C033F0D6EC09F064C032F01C
:1019400065C033F0D6EC09F0080EE82EFED700F0A3
:1019500062C0D9FF63C0DAFF00016651DE5CD8A027
:10196000CBD764C0D9FF65C0DAFF00016651DE5CE9
:10197000D8B01200C1D7000E2A6E000E296E000EDC
:101980002B6E000E2B6E030E2B6401D01FD06950FE
:10199000266E276A070ED89026362736E82EFBD704
:1019A00068CF28F0D890283228502612000E27122F
:1019B0002650292627502A22210E266E760EE82E42
:1019C000FED7262EFCD700D02B2ADDD729C026F043
:1019D0002AC027F0D89027322632D89027322632D4
:1019E00026C024F027C025F01200000E2A6E000E3B
:1019F000296E000E2B6E000E2B6E030E2B6401D091
:101A00001FD06750266E276A070ED89026362736D5
:101A1000E82EFBD766CF28F0D8902832285026121F
:101A2000000E27122650292627502A22210E266E24
:101A3000760EE82EFED7262EFCD700D02B2ADDD737
:101A400029C026F02AC027F0D89027322632D89015
:101A50002732263226C024F027C025F012001AD0E3
:101A6000010E286E2AC0F6FF2BC0F7FFF86A020E9F
:101A7000F76403D00800F55005D0F6CFE1FFF7CFAB
:101A8000E2FFE750A0EC0EF02A4A2B2A080EE82EBF
:101A9000FED700F02AC0F6FF2BC0F7FFF86A020E4F
:101AA000F76403D00800F55005D0F6CFE1FFF7CF7B
:101AB000E2FFE7500009D8B41200D2D7000E2B6E17
:101AC000000E2D6E000E2C6E000E2A6E20EE04F01D
:101AD0002450D9262550DA22DF50266E20EE03F05E
:101AE0002450D9262550DA22DF50276E2750296E40
:101AF000286A265028242C6E000E29202D6E20EEF8
:101B000002F02450D9262550DA22DF502C182B6EF3
:101B1000010E1200000E296E000E286E26502710AE
:101B2000D8B41CD0010E2A6E04D0D89026362736A1
:101B30002A2A27AEFAD7D890283629362650245C90
:101B400027502558D8A005D02650245E2750255A66
:101B50002880D890273226322A2EEDD728C024F0AC
:101B600029C025F012002D502E10D8B418D0010E27
:101B70002F6E04D0D8902D362E362F2A2EAEFAD7BF
:101B80002D502B5C2E502C58D8A004D02D502B5EFD
:101B90002E502C5AD8902E322D322F2EF1D72BC00A
:101BA0002BF02CC02CF01200000120EE01F0675148
:101BB000D9266851DA22000EDF6E000120EE01F016
:101BC0006951D9266A51DA22000EDF6E67C062F0D1
:101BD00068C063F069C064F06AC065F06BC066F00D
:101BE0007BEC0CF01200000120EE01F06751D926C9
:101BF0006851DA22000EDF6E000120EE01F069511B
:101C0000D9266A51DA22010EDF6E67C062F068C021
:101C100063F069C064F06AC065F06BC066F07BEC8D
:101C20000CF01200000120EE01F06751D926685136
:101C3000DA22010EDF6E000120EE01F06951D92693
:101C40006A51DA22000EDF6E67C062F068C063F08E
:101C500069C064F06AC065F06BC066F07BEC0CF0A4
:101C60001200000E7F6E800E7E6E6F0E6F6E000E85
:101C70006E6EC70E7B6E000E7A6E000E796E000ED1
:101C8000786E000E776E000E766E9390939293941A
:101C900093968A908A928A948A961200256E000EF4
:101CA000276E000E266E000E276E010E266E0AD0DD
:101CB000210E246E760EE82EFED7242EFCD700D0FF
:101CC000264A272A2550020D2650F35C2750F45847
:101CD000D8A01200EDD7026E000E046E000E036E47
:101CE000000E046E010E036E0AD0210E016E760EF8
:101CF000E82EFED7012EFCD700D0034A042A02505A
:101D0000020D0350F35C0450F458D8A01200EDD734
:101D10002A6E2A04D8A406D0000E286E800EA0ECED
:101D20000EF009D0020E2A18D8A405D0000E286E95
:101D3000C00EA0EC0EF0080EE82EFED700F0120048
:101D4000296E28B002D0899C01D0898C29380F0BCC
:101D50000F0BECEC0AF000F000D000D029500F0B74
:101D6000ECEC0AF0080EE82EFED700F0120001EEAF
:101D700097F0600EEE6AE806FDE100EEBFF0080E97
:101D8000EE6AE806FDE13B6A3A6A3C903C92000E3E
:101D9000F86E0001A8EF01F0256E2550D8A406D0FA
:101DA00024B002D08D9001D08D8012002504D8A4DB
:101DB000120024B002D08D9201D08D8212002450E6
:101DC0002602F3CF28F0F4CF29F024502702F35055
:101DD000292625502602F350292628C024F029C0A0
:101DE00025F012008994899692849286B894B896C8
:101DF000B89CB89E060E636E060E626E9690969222
:101E0000590EB76E1200266E000E256E3A0E266031
:101E100005D02F0E266402D0010E256E25C024F0B9
:101E2000243012009450C009946ECD0EAF6E000E97
:101E3000B06EAA86AC84AB88AB8EAC98AB9C12001B
:101E4000D59ED59CD59AD596D580D582D584F29A43
:0A1E500012008B8000D08B9012006E
:020000040020DA
:08000000FFFFFFFFFFFFFFFF00
:020000040030CA
:0E000000FFC80F3E3C1D81FF0FC00FE00F40F8
:00000001FF
