:040000006BEF00F0B2
:0E0008003C82FACF05F0FBCF06F0E2EF09F0E4
:100018003C80D8CF13F0E8CF14F0E0CF15F0FACF3A
:1000280016F0FBCF17F0E9CF18F0EACF19F0E1CFBF
:100038001AF0E2CF1BF0D9CF1CF0DACF1DF0F3CFC6
:100048001EF0F4CF1FF0F6CF20F0F7CF21F0F8CF55
:1000580022F0F5CF23F09EAA16D03A50010DC80E13
:10006800F324D96E000EF420DA6EAECFDFFF010E56
:100078000101FE6F0F0E3A18D8A403D0000E3A6E95
:1000880001D03A2A9E9A23C0F5FF22C0F8FF21C06A
:10009800F7FF20C0F6FF1FC0F4FF1EC0F3FF1DC00E
:1000A800DAFF1CC0D9FF1BC0E2FF1AC0E1FF19C06C
:1000B800EAFF18C0E9FF17C0FBFF16C0FAFF15C01A
:1000C800E0FF14C0E8FF13C0D8FF3C90100072EFA7
:0200D8000CF02A
:100300000001000A006400E80310272020202020BC
:1003100020253034642C2025303464002020202017
:100320002020496E657274204D6F64650020202086
:1003300020205363616E495200476F696E67204801
:100340006F6D6500536561726368696E67000000D8
:10035000000E0001BF6F000E0001BD6F000E000116
:10036000BE6FFAC1B9F0FBC1BAF0FCC1BBF0FDC170
:10037000BCF03C0E0001B86FF28EF28CF28CD08E85
:100380009F9A9D8A9486F2889E9AF292000E0201AC
:10039000646F010E0201656F790E0201666F0F0E28
:1003A0000201676F780E0201686F0F0E0201696F1C
:1003B000000E02016A6F000E02016C6FC70E6B6FB8
:1003C000000E02016D6F010E02016E6F770E0201C9
:1003D0006F6F0F0E0201706F760E0201716F0F0EBC
:1003E0000201726F020E0201736F000E0201756F3F
:1003F000C70E746F720ED36ED3B43AD2FDD7640EAB
:100400000001626F020E0001636F6D0E0001646FE8
:10041000020E0001656F98EC09F0000E0101FE6FFD
:10042000E2EC0AF024C0B9F025C0BAF0A9EC0AF059
:1004300024C0BBF025C0BCF0000E696E000E686ED3
:10044000000E676E000E666E000E286E010E5AECEE
:100450000CF0210EE82EFED700F0000E286E020EE2
:100460005AEC0CF0060E0001B66F300EE82EFED7E7
:10047000B62FFCD700D0010E42EC0CF01C0E2A6EF9
:10048000030E2B6E1BEC0BF0020E42EC0CF0010184
:10049000FE51D8B407D0F00E2A6E010E2B6E1BEC65
:1004A0000BF0E6D1C80E306E010E316E0B0E326EBF
:1004B000030E336EB9C034F0BAC035F0BBC036F0AD
:1004C000BCC037F0E0EC05F0C80E2A6E010E2B6EB2
:1004D0001BEC0BF0CDD129EC0CF0DBEC0CF0CDECEF
:1004E0000CF0E0EC08F0ADEC0CF0010E246E000E08
:1004F00087EC0CF0010E246E010E87EC0CF0640EFC
:100500000001626F020E0001636F6D0E0001646FE7
:10051000020E0001656F640E0001666F69EC0AF05F
:10052000010EF1EC0BF03B68A3D1010E42EC0CF094
:10053000440E2A6E030E2B6E1BEC0BF00001BD293E
:10054000D8A430D0640E0001626F020E0001636F08
:100550006D0E0001646F020E0001656F640E0001F4
:10056000666F69EC0AF0060EF1EC0BF0640E000108
:10057000626F020E0001636F6D0E0001646F020E68
:100580000001656F98EC09F0000E0001BD6F0001DD
:10059000BE51010D000EF324D96E020EF420DA6E66
:1005A000000E31D00001BD510001D8A42ED0640E40
:1005B00000016D6F020E00016E6F6D0E00016F6F16
:1005C000020E0001706FB8C071F00001726B000183
:1005D000BE51020D000EF3240001736F010EF420D2
:1005E0000001746FFE0E0001756F010E0001766F41
:1005F0003B0E0001776F000E0001786F49EC04F0AC
:100600000001BD6F30D0DF6E10D10001BD05D8A450
:1006100023D0640E00016D6F020E00016E6F6D0E2F
:1006200000016F6F020E0001706FBE0E0001716F4E
:10063000000E0001726F000E0001736F010E0001C9
:10064000746F000E0001756F020E0001766F00ECF2
:1006500008F00001BD6FE9D0020E0001BD19D8A459
:10066000E4D0020E3B6E0001BE51010D000EF324DA
:10067000D96E020EF420DA6E010EC5D70101FE51CB
:10068000D8B4A2D0640E0001626F020E0001636F45
:100690006D0E0001646F020E0001656F98EC09F0A9
:1006A000030E0001D719D8A402D0010E01D0000E0C
:1006B0000001B66F020E0001C819D8A402D0010EC5
:1006C00001D0000E0001B615E8A0D2D0C80E246EED
:1006D000000E256E3EEC09F00009D8B441D0000EA2
:1006E0000001BF6F090E0001BF6501D020D00001DD
:1006F000BF510001B66FB76B010E0001B627000EA7
:10070000B723C80E0001B625D96E000E0001B7212F
:10071000DA6E0001BF51010DF00EF324E16E010EFF
:10072000F420E26EDFCFE7FF0001BF2BDBD7000E26
:100730000001BF6F0F0E0001BF6501D00ED0000198
:10074000BF51010DC80EF324D96E000EF420DA6EED
:10075000000EDF6E0001BF2BEDD7030E3B6E88D07D
:10076000640E0001676F020E0001686F6D0E0001DC
:10077000696F020E00016A6F640E00016B6F94ECEA
:100780000BF0050EF1EC0BF0640E0001626F020E2F
:100790000001636F6D0E0001646F020E0001656F52
:1007A00098EC09F0640E0001626F020E0001636FA5
:1007B0006D0E0001646F020E0001656F640E000192
:1007C000666F69EC0AF054D0010E0001BD6F010E96
:1007D0003B6E640E0001626F020E0001636F6D0ECE
:1007E0000001646F020E0001656F640E0001666F08
:1007F00069EC0AF0050EF1EC0BF00001BE51010DA1
:10080000000EF324D96E020EF420DA6E000EDF6EB5
:100810000001BE51020D000EF324D96E010EF4202A
:10082000DA6E050EDE6E000EDD6E0001BE2B20D0EE
:10083000010E42EC0CF0F00E2A6E010E2B6E1BEC3A
:100840000BF0020E42EC0CF0390E2A6E030E2B6EEA
:100850001BEC0BF0640E0001626F020E0001636F6F
:100860006D0E0001646F020E0001656F98EC09F0D7
:100870003B50000AD8B42FD6010AD8B456D6030A82
:10088000D8B4FCD6010AD8B4D3D7FC0AD8B4B7D5AB
:10089000EFD7C4C0AEF0C5C0AFF0C6C0B0F0C7C09F
:1008A000B1F0000E0001B36F000EB26F000E000138
:1008B000B56F000EB46F000E0001A96F000EA86F97
:1008C000000E0001A76F000EA66F000E0001AD6FB5
:1008D0000B0E0001AB6FB80EAA6F2A0E0001AC6FB1
:1008E0006DC067F06EC068F06FC069F070C06AF0EC
:1008F000640E00016B6FD2EC0BF0030EF1EC0BF009
:100900006DC062F06EC063F06FC064F070C065F0DF
:1009100098EC09F06DC067F06EC068F06FC069F0C8
:1009200070C06AF0ACC06BF0B3EC0BF0000ED66E8A
:10093000000ED76ED58E000E0001A96F010EA86FB4
:1009400019D1E2EC0AF024C0AEF025C0AFF0A9EC5A
:100950000AF024C0B0F025C0B1F0000E696E000EA0
:10096000686E000E676E000E666E000E286E010E39
:100970005AEC0CF0210EE82EFED700F0000E286E87
:10098000020E5AEC0CF0060E0001796F300EE82EC4
:10099000FED7792FFCD700D0010E42EC0CF02D0EC3
:1009A0002A6E030E2B6E1BEC0BF0020E42EC0CF0C9
:1009B0007E0E306E000E316E0C0E326E030E336EF4
:1009C000AEC034F0AFC035F0B0C036F0B1C037F0D3
:1009D000E0EC05F07E0E2A6E000E2B6E1BEC0BF089
:1009E0000001B4510001B511D8A418D00001B051D4
:1009F0000001AA5D0001B1510001AB59D8B00ED081
:100A0000D75000017A6F796BD6500001792500012B
:100A1000B46F000E00017A210001B56F0001B251E0
:100A20000001B311D8A418D00001AE510001AA5D95
:100A30000001AF510001AB59D8B00ED0D750000122
:100A40007A6F796BD650000179250001B26F000EE4
:100A500000017A210001B36F0001B2510001B3110E
:100A6000D8B47CD00001B4510001B511D8B46AD01B
:100A70000001B45100080001B2250001AD6F000E65
:100A8000D66E000ED76E6DC062F06EC063F06FC0A0
:100A900064F070C065F098EC09F00CD06DC067F0A0
:100AA0006EC068F06FC069F070C06AF0ACC06BF0E7
:100AB000D2EC0BF00001D890AD310001796F7A6B68
:100AC000D650D7CF7BF000017C6B7BC07CF000015F
:100AD0007B6B00017B27000E7C2300017951000114
:100AE0007B5D00017C51800A00017D6F00017A511D
:100AF000800A00017D59D8A0D1D7D59E6DC062F083
:100B00006EC063F06FC064F070C065F098EC09F0DF
:100B1000ADC079F00001D89079330001795100011E
:100B2000B42500017A6F000E0001B52100017B6F32
:100B300073C0D9FF74C0DAFF7AC0DEFF7BC0DDFF6F
:100B4000020E1200D59E6DC062F06EC063F06FC0E1
:100B500064F070C065F098EC09F0F2D775C0D9FF69
:100B600076C0DAFFDE04D8A402D0020E1200000123
:100B7000A84BA92B0001A8510001715D0001A951EA
:100B800000017259D8B0DDD66DC067F06EC068F054
:100B90006FC069F070C06AF0640E00016B6FB3EC57
:100BA0000BF0020EF1EC0BF06DC062F06EC063F062
:100BB0006FC064F070C065F098EC09F0FF0E120091
:100BC000340E0001646F000E0001656F68D1250EC0
:100BD00000016C19D8B409D030C0D9FF31C0DAFF98
:100BE0006CC0DFFF304A312A5AD1000E00016B6F12
:100BF000000E6A6F000E0001696F04D00001698564
:100C0000324A332A32C0F6FF33C0F7FF0800F550EE
:100C1000300AD8B4F3D732C0F6FF33C0F7FF08006C
:100C2000F550BEEC0CF0D8A03ED0000E00016B6F6A
:100C3000000E6A6F6AC024F06BC025F0000E276EAC
:100C40000A0E266E9AEC0CF024C06AF025C06BF0F8
:100C5000D00E0001606FFF0E0001616F32C0F6FF21
:100C600033C0F7FF0800F5500001626F636B0001AD
:100C700060510001622700016151000163230001FE
:100C8000625100016A270001635100016B23324A5F
:100C9000332A32C0F6FF33C0F7FF0800F550BEEC30
:100CA0000CF0D8B0C7D732C0F6FF33C0F7FF324AD6
:100CB000332A0800F5CF6CF000016C51000AD8B45B
:100CC000FBD0640AD8B403D00D0AD8A4E8D064C01D
:100CD000D9FF65C0DAFFDECF67F0DDCF68F0020E26
:100CE00000016427000E6523000168AF08D0030EE1
:100CF000000169130001676D681FD8B0682B010EF1
:100D000000016C6F050E00016C19D8B416D00001FB
:100D10006C51020D010EF324F66E030EF420F76EF3
:100D20000900F5500001675D0900F55000016859A0
:100D3000D8A003D000016C2BE5D700016A51000157
:100D40006B11D8B40BD069C060F0030E00016017BE
:100D5000D8B404D000016A07D8A06B07800E000148
:100D60006CBF7F0E0001606F00016A5100016C5D75
:100D700000016B51800A00016059D8B00BD000010E
:100D80006C5100016A5F000E00016CBFFF0E000194
:100D90006B5B05D0000E00016B6F000E6A6F0001E7
:100DA00069A522D069C060F0030E00016017D8B4B5
:100DB00008D030C0D9FF31C0DAFF2D0EDF6E304AC7
:100DC000312A00016A5100016B11D8B434D030C00F
:100DD000D9FF31C0DAFF300EDF6E304A312A000110
:100DE0006A07D8A06B07EDD700016A5100016B11AB
:100DF000D8B412D030C0D9FF31C0DAFF200EDF6E78
:100E0000304A312A00016A07D8A06B0700016A51F5
:100E100000016B11D8A4EED769C060F0030E000189
:100E20006017D8B408D030C0D9FF31C0DAFF2D0E1A
:100E3000DF6E304A312A6CC066F02BD0000166515B
:100E4000020D010EF324F66E030EF420F76E090076
:100E5000F5CF26F00A00F5CF27F067C024F068C070
:100E600025F04AEC0BF024C02BF025C02CF0000E2E
:100E70002E6E0A0E2D6E73EC0BF02B50300F00010E
:100E80006C6F30C0D9FF31C0DAFF6CC0DFFF304A71
:100E9000312A0001660700016629D8A4CFD732C0E5
:100EA000F6FF33C0F7FF324A332A0800F5CF6CF063
:100EB00000016C51D8A48BD630C0D9FF31C0DAFF05
:100EC000000EDF6E120032C0D9FF33C0DAFFDF50F0
:100ED000346E3450246E256A20EE07F03250D92645
:100EE0003350DA22DECF26F0DDCF27F09AEC0CF07B
:100EF00024C02AF025C02BF0000E2D6E640E2C6E3F
:100F000027EC0AF02AC060F02BC061F020EE01F05F
:100F10003250D9263350DA22DF50D8B42ED020EE0A
:100F200006F03250D9263350DA22DF50346E010EEB
:100F3000356E342A02D0D8903536342EFCD7355051
:100F40008A108A6E20EE07F03250D9263350DA220A
:100F5000DECF34F0DDCF35F060C036F061C037F061
:100F6000361E371E364A372A345036240001606F49
:100F7000355037200001616F14D020EE06F032505A
:100F8000D9263350DA22DF50346E010E356E342A02
:100F900002D0D8903536342EFCD73550FF0A8A144B
:100FA0008A6E20EE02F03250D9263350DA22DECF9C
:100FB00034F0DDCF35F034C0D9FF35C0DAFF0001A1
:100FC0006045E846FC0BDF6E20EE04F03250D92677
:100FD0003350DA22DECF34F0DDCF35F034C0D9FF24
:100FE00035C0DAFF60C036F061C037F0060E386EEB
:100FF000373437323632382EFBD73650DF6E120098
:10100000C0C0A1F0C1C0A2F0C2C0A3F0C3C0A4F090
:10101000090E0001A06FC40E9F6FE2EC0AF024C01D
:10102000A1F025C0A2F0A9EC0AF024C0A3F025C0CD
:10103000A4F0000E696E000E686E000E676E000E62
:10104000666E000E286E010E5AEC0CF0210EE82E92
:10105000FED700F0000E286E020E5AEC0CF0060EC1
:10106000396E300EE82EFED7392EFCD700D0010E97
:1010700042EC0CF02D0E2A6E030E2B6E1BEC0BF0C7
:10108000020E42EC0CF0770E306E000E316E0C0E3C
:10109000326E030E336EA1C034F0A2C035F0A3C08F
:1010A00036F0A4C037F0E0EC05F0770E2A6E000EA3
:1010B0002B6E1BEC0BF00001A15100019F5D0001A4
:1010C000A2510001A059D8B00CD00001A3510001D9
:1010D0009F5D0001A4510001A059D8B002D0020EBA
:1010E00012006DC062F06EC063F06FC064F070C03B
:1010F00065F098EC09F0000E1200276E2750246E60
:10110000256A070ED89024362536E82EFBD7070E21
:10111000266E253425322432262EFBD724468B50CA
:101120002418FD0B24188B6E2750246E256A060E9A
:10113000D89024362536E82EFBD7070E266E2534A8
:1011400025322432262EFBD7244624468B502418E1
:10115000FB0B24188B6E2750246E256A050ED89041
:1011600024362536E82EFBD7070E266E2534253289
:101170002432262EFBD78C502418FE0B24188C6E9C
:101180002750246E256A243A253AF00E251624505D
:101190000F0B2512F00E2416070E266E253425326D
:1011A0002432262EFBD724468C502418FD0B2418FD
:1011B0008C6EE4EC0CF0030EE82EFED700F012006B
:1011C000929C94909492949495909592270E2A6E66
:1011D000F50EE82EFED72A2EFCD700F0030E7DEC8C
:1011E00008F00D0E2A6EFC0EE82EFED72A2EFCD734
:1011F000030E7DEC08F0850EE82EFED700F0030EFE
:101200007DEC08F0210EE82EFED700F0020E7DECFA
:1012100008F0210EE82EFED700F0000E286E280EF2
:101220005AEC0CF0210EE82EFED700F0000E286ECE
:10123000080E5AEC0CF0210EE82EFED700F0000E3E
:10124000286E010E5AEC0CF00D0E2A6EFC0EE82EE4
:10125000FED72A2EFCD7000E286E060E5AEC0CF094
:10126000210EE82EFED700F0000E286E0C0E5AEC70
:101270000CF0210EE82EFED700F01200000E2C6EAE
:10128000000E2E6E000E2D6E000E2F6E20EE04F05E
:101290002450D9262550DA22DF50266E20EE03F0A6
:1012A0002450D9262550DA22DF50276E2750296E88
:1012B000286A265028242D6E000E29202E6E20EE3E
:1012C00002F02450D9262550DA22DF502D182C6E3A
:1012D000050E2F6E090E2F6401D028D02F50266ED8
:1012E000276A010E2626000E272226502424D96EB6
:1012F00027502520DA6EDF50286E2F50010DF35055
:101300002424D96EF4502520DA6EDF50296E29503E
:101310002B6E2A6A28502A242D6E000E2B202E6E4A
:101320002C502D182C6E020E2F26D4D7010E120031
:1013300028D062C0D9FF63C0DAFFDF50D8B405D02F
:1013400062C0D9FF63C0DAFFDF0664C0D9FF65C0A1
:10135000DAFFDF50D8B405D064C0D9FF65C0DAFF2A
:10136000DF0662C032F063C033F063EC07F064C0A4
:1013700032F065C033F063EC07F0210EE82EFED7A3
:1013800000F062C0D9FF63C0DAFFDF50D8A4D1D724
:1013900064C0D9FF65C0DAFFDF50D8A4CAD7000106
:1013A00020EE01F06251D9266351DA22010EDF6E80
:1013B000000120EE01F06451D9266551DA22010EB8
:1013C000DF6E1200E9CF07F0EACF08F0E1CF09F0B5
:1013D000E2CF0AF0D9CF0BF0DACF0CF0F3CF0DF05B
:1013E000F4CF0EF0F6CF0FF0F7CF10F0F8CF11F0EA
:1013F000F5CF12F0F2A20DD03B28D8A403D0010EF5
:101400003B6E03D03B50D8A43B68020E0DEC0CF0B1
:10141000F29212C0F5FF11C0F8FF10C0F7FF0FC025
:10142000F6FF0EC0F4FF0DC0F3FF0CC0DAFF0BC0D7
:10143000D9FF0AC0E2FF09C0E1FF08C0EAFF07C008
:10144000E9FF06C0FBFF05C0FAFF3C921100000E49
:101450002F6E2DAE06D02C6C2D1ED8B02D2A010E6D
:101460002F6E2BAE06D02A6C2B1ED8B02B2A010E65
:101470002F1A000E316E000E306E2C502D10D8B485
:101480001CD0010E2E6E04D0D8902C362D362E2A6C
:101490002DAEFAD7D890303631362C502A5C2D50EC
:1014A0002B58D8A005D02C502A5E2D502B5A3080B6
:1014B000D8902D322C322E2EEDD72F50D8B404D008
:1014C000306C311ED8B0312A30C02AF031C02BF038
:1014D00012002CD062C0D9FF63C0DAFF0001665150
:1014E000DE5CD8B005D062C0D9FF63C0DAFFDF2A66
:1014F00064C0D9FF65C0DAFF00016651DE5CD8B078
:1015000005D064C0D9FF65C0DAFFDF2A62C032F0BF
:1015100063C033F063EC07F064C032F065C033F0B1
:1015200063EC07F0210EE82EFED700F062C0D9FF71
:1015300063C0DAFF00016651DE5CD8A0CBD764C07F
:10154000D9FF65C0DAFF00016651DE5CD8B0120039
:10155000C1D7000E2A6E000E296E000E2B6E000EF3
:101560002B6E030E2B6401D01ED06950266E276AA5
:10157000070ED89026362736E82EFBD768CF28F0FE
:10158000D890283228502612000E271226502926DD
:1015900027502A22820E266EDE0EE82EFED7262E39
:1015A000FCD72B2ADED729C026F02AC027F0D890F6
:1015B00027322632D8902732263226C024F027C080
:1015C00025F01200000E2A6E000E296E000E2B6E02
:1015D000000E2B6E030E2B6401D01ED06750266EBA
:1015E000276A070ED89026362736E82EFBD766CF17
:1015F00028F0D890283228502612000E27122650A4
:10160000292627502A22820E266EDE0EE82EFED7CD
:10161000262EFCD72B2ADED729C026F02AC027F099
:10162000D89027322632D8902732263226C024F08E
:1016300027C025F012001AD0010E286E2AC0F6FF2E
:101640002BC0F7FFF86A020EF76403D00800F550CC
:1016500005D0F6CFE1FFF7CFE2FFE7505AEC0CF0F0
:101660002A4A2B2A210EE82EFED700F02AC0F6FFC8
:101670002BC0F7FFF86A020EF76403D00800F5509C
:1016800005D0F6CFE1FFF7CFE2FFE7500009D8B46D
:101690001200D2D7000E296E000E286E2650271099
:1016A000D8B41CD0010E2A6E04D0D8902636273626
:1016B0002A2A27AEFAD7D890283629362650245C15
:1016C00027502558D8A005D02650245E2750255AEB
:1016D0002880D890273226322A2EEDD728C024F031
:1016E00029C025F012002D502E10D8B418D0010EAC
:1016F0002F6E04D0D8902D362E362F2A2EAEFAD744
:101700002D502B5C2E502C58D8A004D02D502B5E81
:101710002E502C5AD8902E322D322F2EF1D72BC08E
:101720002BF02CC02CF01200000120EE01F06751CC
:10173000D9266851DA22000EDF6E000120EE01F09A
:101740006951D9266A51DA22000EDF6E67C062F055
:1017500068C063F069C064F06AC065F06BC066F091
:1017600069EC0AF01200000120EE01F06751D92661
:101770006851DA22000EDF6E000120EE01F069519F
:10178000D9266A51DA22010EDF6E67C062F068C0A6
:1017900063F069C064F06AC065F06BC066F069EC24
:1017A0000AF01200000120EE01F06751D9266851BD
:1017B000DA22010EDF6E000120EE01F06951D92618
:1017C0006A51DA22000EDF6E67C062F068C063F013
:1017D00069C064F06AC065F06BC066F069EC0AF03D
:1017E0001200256E000E276E000E266E000E276E6C
:1017F000010E266E09D0820E246EDE0EE82EFED774
:10180000242EFCD7264A272A2550020D2650F35CA9
:101810002750F458D8A01200EED7026E000E046EC6
:10182000000E036E000E046E010E036E09D0820ED0
:10183000016EDE0EE82EFED7012EFCD7034A042AE5
:101840000250020D0350F35C0450F458D8A012006B
:10185000EED7000E7F6E800E7E6E6F0E6F6E000EE6
:101860006E6EC70E7B6E000E7A6E000E796E000EE5
:10187000786E000E776E000E766E9390939293942E
:10188000939612002A6E2A04D8A406D0000E286E61
:10189000800E5AEC0CF009D0020E2A18D8A405D0FC
:1018A000000E286EC00E5AEC0CF0210EE82EFED76A
:1018B00000F01200296E28B002D0899C01D0898CDA
:1018C00029380F0B0F0B7DEC08F0060EE82EFED723
:1018D00000D029500F0B7DEC08F0210EE82EFED72A
:1018E00000F012000101FE6BFD6BFC6BFB6BFA6BF1
:1018F00000EEC0F0180EEE6AE806FDE13B6A3A6AB7
:101900003C903C92000EF86E0001A8EF01F0256EAD
:101910002550D8A406D024B002D08D9001D08D805F
:1019200012002504D8A4120024B002D08D9201D058
:101930008D82120024502602F3CF28F0F4CF29F034
:1019400024502702F350292625502602F350292639
:1019500028C024F029C025F0120089948996928429
:101960009286B894B896B89CB89E060E636E060E22
:10197000626E96909692590EB76E1200266E000E09
:10198000256E3A0E266005D02F0E266402D0010E79
:10199000256E25C024F0243012009450C009946EA6
:1019A000CD0EAF6E000EB06EAA86AC84AB88AB8E47
:1019B000AC98AB9C1200D59ED59CD59AD596D58077
:1019C000D582D584F29A12008B80030EE82EFED7C2
:0619D00000F08B901200F4
:020000040020DA
:08000000FFFFFFFFFFFFFFFF00
:020000040030CA
:0E000000FFC80F3E3C1D81FF0FC00FE00F40F8
:00000001FF
