:040000007BEF00F0A2
:060008003482BDEF0AF096
:100018003480D8CF17F0E8CF18F0E0CF19F0FACF36
:100028001AF0FBCF1BF0E9CF1CF0EACF1DF0E1CFAF
:100038001EF0E2CF1FF0D9CF20F0DACF21F0F3CFB6
:1000480022F0F4CF23F0F6CF24F0F7CF25F0F8CF45
:1000580026F0F5CF27F034C028F035C029F036C097
:100068002AF037C02BF09EAA16D03350010DE70EA8
:10007800F324D96E010EF420DA6EAECFDFFF010E45
:100088000101F96F0F0E3318D8A403D0000E336E98
:1000980001D0332A9E9A2BC037F02AC036F029C0E7
:1000A80035F028C034F027C0F5FF26C0F8FF25C07A
:1000B800F7FF24C0F6FF23C0F4FF22C0F3FF21C0DE
:1000C800DAFF20C0D9FF1FC0E2FF1EC0E1FF1DC03C
:1000D800EAFF1CC0E9FF1BC0FBFF1AC0FAFF19C0EA
:1000E800E0FF18C0E8FF17C0D8FF3490100087EF72
:0200F8000DF009
:100300000001000A006400E80310272020202020BC
:1003100020253034642C2025303464002020202017
:100320002020496E657274204D6F64650020202086
:1003300020205363616E495200476F696E67204801
:0F0340006F6D6500536561726368696E670000D9
:10035000000E0101CF6F000ECE6F22EE00F011EE05
:100360005AF0630EDBCFE3FFE806FCE222EE64F016
:1003700011EE28F0310EDBCFE3FFE806FCE2000EC1
:10038000D06FE3C1C9F1E4C1CAF1E5C1CBF1E6C167
:10039000CCF13C0EC86F280ECD6FF28EF28CF28C31
:1003A000D08E9F9A9D8A9486F2889E9AF292000E31
:1003B000D16F010ED26F790ED36F0F0ED46F780EFE
:1003C000D56F0F0ED66F000ED76F000ED96FC70E08
:1003D000D86F000EDA6F010EDB6F770EDC6F0F0E39
:1003E000DD6F760EDE6F0F0EDF6F020EE06F000E18
:1003F000E26FC70EE16F720ED36ED3B400D3FDD798
:10040000D10E0001716F010E726FDA0E736F010E63
:10041000746F1CEC0BF0000E0101F96F000ED06F31
:1004200021EC0CF02CC0C9F12DC0CAF1E6EC0BF0A8
:100430002CC0CBF12DC0CCF1000E696E000E686EA1
:10044000000E676E000E666E000E306E010EBDEC83
:100450000DF0210EE82EFED700F0000E306E020ED9
:10046000BDEC0DF0060E0001C96F300EE82EFED770
:10047000C92FFCD700F0010EA2EC0DF00101BE5116
:10048000D8A408D01C0E0001606F030E616F5CECF5
:100490000CF007D0BE0E0001606F010E616F5CECC6
:1004A0000CF0020EA2EC0DF00101F951D8B408D005
:1004B000BE0E0001606F010E616F5CEC0CF09FD20C
:1004C000000E0001676F010E686F0B0E696F030E5F
:1004D0006A6FC9C16BF0CAC16CF0CBC16DF0CCC101
:1004E0006EF08FEC07F0000E0001606F010E616F7F
:1004F0005CEC0CF084D232EC0DF029EC0EF01BEC2D
:100500000EF05BEC0AF0FBEC0DF0010E2C6E000E11
:10051000D5EC0DF0010E2C6E010ED5EC0DF0D10EC8
:100520000001716F010E726FDA0E736F010E746F3E
:10053000640E756FA8EC0BF0010E4FEC0DF05ED25F
:10054000010EA2EC0DF0440E0001606F030E616F0E
:100550005CEC0CF00101CE29D8A434D0D051010DAF
:10056000280EF324D96E010EF420DA6E000EDF6E31
:10057000D051020D5A0EF324D96E010EF420DA6E1A
:10058000060EDE6E000EDD6ED02BD10E0001716FF7
:10059000010E726FDA0E736F010E746F640E756F59
:1005A000A8EC0BF0060E4FEC0DF0D10E0001716FB0
:1005B000010E726FDA0E736F010E746F1CEC0BF08C
:1005C000000E34D0CE51D8A423D0D10E00017C6FC0
:1005D000010E7D6FDA0E7E6F010E7F6FC8C180F055
:1005E000816B5A0E826F010E836FD00E846F010EE5
:1005F000856F280E866F010E876FF90E886F010ECA
:10060000896FF70E8A6F010E8B6F10EC05F00ED01C
:10061000CE05D8A40ED0D10E00017C6F010E7D6FE7
:10062000DA0E7E6F010E7F6F7EEC09F00101CE6F56
:10063000E6D1020ECE19D8A4E2D1020E326ED0510C
:10064000010D280EF324D96E010EF420DA6E010E8E
:10065000DF6ED5D10101F951D8B48AD0D10E000195
:10066000716F010E726FDA0E736F010E746F1CECF6
:100670000BF0030E0101F619D8A402D0010E01D02F
:10068000000E0001C96F020E0101E719D8A402D0C3
:10069000010E01D0000E0001C915E8A0B0D1E70E8F
:1006A0002C6E010E2D6E33EC0EF00009D8B437D04D
:1006B000000E0101CF6F090ECF6501D01BD0CF51C5
:1006C0000001C96FCA6B010EC927000ECA23E70ECD
:1006D000C925D96E010ECA21DA6E0101CF51010D73
:1006E000BE0EF324E16E010EF420E26EDFCFE7FFD1
:1006F000CF2BE1D7000ECF6F0F0ECF6501D00CD0FE
:10070000CF51010DE70EF324D96E010EF420DA6EFD
:10071000000EDF6ECF2BF0D7030E326E70D1D10EEC
:100720000001776F010E786FDA0E796F010E7A6F24
:10073000640E7B6FD8EC0CF0050E4FEC0DF0D10E73
:100740000001716F010E726FDA0E736F010E746F1C
:100750001CEC0BF0D10E0001716F010E726FDA0EFE
:10076000736F010E746F640E756FA8EC0BF047D1B8
:10077000010E0101CE6F010E326ED10E0001716FBC
:10078000010E726FDA0E736F010E746F640E756F67
:10079000A8EC0BF0010E4FEC0DF00101D051010D52
:1007A000280EF324D96E010EF420DA6E000EDF6EEF
:1007B000D051020D5A0EF324D96E010EF420DA6ED8
:1007C000050EDE6E000EDD6ED02B19D1010EA2ECEF
:1007D0000DF0BE0E0001606F010E616F5CEC0CF05D
:1007E000020EA2EC0DF0390E0001606F030E616F76
:1007F0005CEC0CF00101D0BFF6D0D10E0001716F9E
:10080000010E726FDA0E736F010E746F1CEC0BF039
:100810000101D051010D280EF324D96E010EF420F0
:10082000DA6EDF50D8A41AD0D10E0001776F010E16
:10083000786FDA0E796F010E7A6F640E7B6FD8ECE9
:100840000CF00101D051020D5A0EF324D96E010EA5
:10085000F420DA6EDF504FEC0DF0BFD00101D05123
:10086000010D280EF324D96E010EF420DA6EDE0499
:10087000D8A463D0D59E000ED66E000ED76E000EA3
:10088000F86F000EF76FD051020D5A0EF324D96E97
:10089000010EF420DA6E010EDBBE24D0010EDB5017
:1008A00003E1DE04D8A01ED0D58ED10E0001776FF3
:1008B000010E786FDA0E796F010E7A6FCDC17BF081
:1008C000F6EC0CF00101D051020D5A0EF324D96E52
:1008D000010EF420DA6EDE50F75DDE50F859D8A034
:1008E000F1D729D0D58ED10E0001776F010E786F28
:1008F000DA0E796F010E7A6FCDC17BF014EC0DF03A
:100900000101D051020D5A0EF324D96E010EF420CC
:10091000DA6EDECFC9F0DDCFCAF00001C91FCA1FF1
:10092000C94BCA2BC9510101F75D0001CA51010130
:10093000F859D8A0E5D7D59E50D0D051010D280E3A
:10094000F324D96E010EF420DA6E020EDE18D8A45C
:1009500044D0D051020D5A0EF324D96E010EF4206A
:10096000DA6E010EDBBE20D0010EDB5003E1DE04A7
:10097000D8A01AD0D10E0001776F010E786FDA0E71
:10098000796F010E7A6F4E0E7B6FF6EC0CF0010161
:10099000D051020D5A0EF324D96E010EF420DA6EF6
:1009A000DF504FEC0DF019D0D10E0001776F010E22
:1009B000786FDA0E796F010E7A6F640E7B6F14EC2C
:1009C0000DF00101D051020D5A0EF324D96E010E23
:1009D000F420DA6EDF504FEC0DF03228D8B403D09B
:1009E0000101D00708D7D10E0001716F010E726F9F
:1009F000DA0E736F010E746F1CEC0BF0326832501C
:100A0000000AD8B478D5010AD8B49AD5030AD8B464
:100A100021D6010AD8B4DAD6FC0AD8B4F1D4EFD77B
:100A2000CBC0C2F0CCC0C3F0CDC0C4F0CEC0C5F0C6
:100A3000000E0001BF6F000EBE6F000EC86F000EEB
:100A4000C76F000EB96F000EB86F000EC16F000EB9
:100A5000C06F010EBB6FF40EBA6F280EBC6F020E92
:100A6000C66F010EBD6F84C0D9FF85C0DAFFDF50AD
:100A70008C6F8C51010DF3508625D96EF45087216F
:100A8000DA6E020EDF6EC6C08CF08D6B8CBF8D07E8
:100A900084C0D9FF85C0DAFFDF508E6F8E51020D02
:100AA000F3508225D96EF4508321DA6E8CC0DEFFBC
:100AB0008DC0DDFF84C0D9FF85C0DAFFDF508C6FA9
:100AC0008C2984C0D9FF85C0DAFFDF6E7CC077F047
:100AD0007DC078F07EC079F07FC07AF0640E7B6FC5
:100AE00014EC0DF00001C6514FEC0DF07CC071F01C
:100AF0007DC072F07EC073F07FC074F01CEC0BF010
:100B00007CC077F07DC078F07EC079F07FC07AF04D
:100B1000BCC07BF0F6EC0CF0000ED66E000ED76E6B
:100B20008AC0D9FF8BC0DAFF000EDE6E000EDD6ECC
:100B3000D58E000E0001B96F010EB86FA0D121EC67
:100B40000CF02CC0C2F02DC0C3F0E6EC0BF02CC0B2
:100B5000C4F02DC0C5F0000E696E000E686E000E68
:100B6000676E000E666E000E306E010EBDEC0DF06D
:100B7000210EE82EFED700F0000E306E020EBDEC06
:100B80000DF0060E00018C6F300EE82EFED78C2F74
:100B9000FCD700F0010EA2EC0DF02D0E0001606FED
:100BA000030E616F5CEC0CF0020EA2EC0DF0900EE7
:100BB0000001676F000E686F0C0E696F030E6A6F9D
:100BC000C2C06BF0C3C06CF0C4C06DF0C5C06EF0A5
:100BD0008FEC07F0900E0001606F000E616F5CEC0F
:100BE0000CF00001C451BA5DC551BB59D8B008D052
:100BF0008AC0D9FF8BC0DAFFDECFC7F0DDCFC8F0E7
:100C0000C251BA5DC351BB59D8B008D08AC0D9FF10
:100C10008BC0DAFFDECFBEF0DDCFBFF0BE51BF111B
:100C2000D8B422D1C751C811D8B48AD0C7C08CF06B
:100C3000C8C08DF08C1F8D1F8C4B8D2BBE518C2509
:100C4000C06FBF518D21C16F000ED66E000ED76EE2
:100C50008AC0D9FF8BC0DAFF000EDE6E000EDD6E9B
:100C60007CC071F07DC072F07EC073F07FC074F004
:100C70001CEC0BF00CD07CC077F07DC078F07EC00F
:100C800079F07FC07AF0BCC07BF014EC0DF0D89006
:100C90000001C1318D6FC0318C6F8AC0D9FF8BC00C
:100CA000DAFF8C51DE5C8D51DE58D8A0E4D7D59E9A
:100CB0007CC071F07DC072F07EC073F07FC074F0B4
:100CC0001CEC0BF084C0D9FF85C0DAFFDF500001B7
:100CD0008C6F8C51010DF3508625D96EF45087210D
:100CE000DA6E010EDF6ED890C1318D6FC0318C6F1E
:100CF000C7518C27C8518D238C1F8D1F8C4B8D2B7A
:100D000084C0D9FF85C0DAFFDF508E6F8E51020D8F
:100D1000F3508225D96EF4508321DA6E8CC0DEFF49
:100D20008DC0DDFF84C0D9FF85C0DAFFDF508C6F36
:100D30008C2984C0D9FF85C0DAFFDF6E020E120055
:100D4000D59E84C0D9FF85C0DAFFDF508C6F8C51EF
:100D5000010DF3508625D96EF4508721DA6E010E0D
:100D6000DF6E8AC0D9FF8BC0DAFFDECF8CF0DDCF1B
:100D70008DF08C1F8D1F8C4B8D2B84C0D9FF85C0AF
:100D8000DAFFDF508E6F8E51020DF3508225D96E3F
:100D9000F4508321DA6E8CC0DEFF8DC0DDFF84C08D
:100DA000D9FF85C0DAFFDF508C6F8C2984C0D9FF52
:100DB00085C0DAFFDF6E7CC071F07DC072F07EC04E
:100DC00073F07FC074F01CEC0BF07CC077F07DC03A
:100DD00078F07EC079F07FC07AF0640E00017B6FFE
:100DE00014EC0DF00001BD514FEC0DF07CC071F022
:100DF0007DC072F07EC073F07FC074F01CEC0BF00D
:100E000084C0D9FF85C0DAFFDF5000018C6F8C51A0
:100E1000010DF3508625D96EF4508721DA6E020E4B
:100E2000DF6EBD518C6F8D6B84C0D9FF85C0DAFF3A
:100E3000DF508E6F8E51020DF3508225D96EF45023
:100E40008321DA6E8CC0DEFF8DC0DDFF84C0D9FF48
:100E500085C0DAFFDF508C6F8C2984C0D9FF85C034
:100E6000DAFFDF6E020E120088C0D9FF89C0DAFFF8
:100E7000DE04D8A402D0020E1200B84BB92BB85130
:100E8000805DB9518159D8B05AD684C0D9FF85C088
:100E9000DAFFDF508C6F8C51010DF3508625D96E2F
:100EA000F4508721DA6E020EDF6E84C0D9FF85C050
:100EB000DAFFDF508C6F8C51020DF3508225D96E12
:100EC000F4508321DA6EFE0EDE6EFF0EDD6E84C0FE
:100ED000D9FF85C0DAFFDF508C6F8C2984C0D9FF21
:100EE00085C0DAFFDF6E7CC077F07DC078F07EC011
:100EF00079F07FC07AF0640E7B6FF6EC0CF00001A5
:100F0000C6514FEC0DF07CC071F07DC072F07EC018
:100F100073F07FC074F01CEC0BF0FF0E12006B0E30
:100F20000001736F000E746F36D1250E7B19D8B493
:100F300009D067C0D9FF68C0DAFF7BC0DFFF674B0D
:100F4000682B29D1000E7A6F000E796F000E786F32
:100F500004D000017885694B6A2B69C0F6FF6AC02E
:100F6000F7FF0800F550300AD8B4F3D769C0F6FF90
:100F70006AC0F7FF0800F5500CEC0EF0D8A034D092
:100F8000000E00017A6F000E796F79C02CF07AC0E4
:100F90002DF0000E2F6E0A0E2E6EE8EC0DF02CC018
:100FA00079F02DC07AF0D00E00016F6FFF0E706FD8
:100FB00069C0F6FF6AC0F7FF0800F550716F726BE9
:100FC0006F517127705172237151792772517A23B1
:100FD000694B6A2B69C0F6FF6AC0F7FF0800F5503D
:100FE0000CEC0EF0D8B0D1D769C0F6FF6AC0F7FF9D
:100FF0000001694B6A2B0800F5CF7BF07B51000A9A
:10100000D8B4D6D0640AD8B403D00D0AD8A4C3D0BB
:1010100073C0D9FF74C0DAFFDECF76F0DDCF77F092
:10102000020E00017327000E742377AF06D0030E63
:101030007813766D771FD8B0772B010E7B6F050E76
:101040007B19D8B412D07B51020D010EF324F66E39
:10105000030EF420F76E0900F550765D0900F55097
:101060007759D8A002D07B2BEAD779517A11D8B41E
:1010700009D078C06FF0030E6F17D8B403D079078A
:10108000D8A07A07800E7BBF7F0E6F6F79517B5D92
:101090007A51800A6F59D8B007D07B51795F000E22
:1010A0007BBFFF0E7A5B04D0000E7A6F000E796F63
:1010B00078A51ED078C06FF0030E6F17D8B408D093
:1010C00067C0D9FF68C0DAFF2D0EDF6E674B682B53
:1010D00079517A11D8B42DD067C0D9FF68C0DAFF32
:1010E000300EDF6E674B682B7907D8A07A07F0D7F0
:1010F00079517A11D8B40FD067C0D9FF68C0DAFF30
:10110000200EDF6E674B682B7907D8A07A077951DC
:101110007A11D8A4F1D778C06FF0030E6F17D8B446
:1011200008D067C0D9FF68C0DAFF2D0EDF6E674BAD
:10113000682B7BC075F02BD07551020D010EF32486
:10114000F66E030EF420F76E0900F5CF2EF00A00BC
:10115000F5CF2FF076C02CF077C02DF08CEC0CF092
:101160002CC063F02DC064F0000E0001666F0A0E03
:10117000656FB6EC0CF000016351300F7B6F67C0F8
:10118000D9FF68C0DAFF7BC0DFFF674B682B7507AC
:101190007529D8A4D1D769C0F6FF6AC0F7FF00014E
:1011A000694B6A2B0800F5CF7BF07B51D8A4BDD6E4
:1011B00067C0D9FF68C0DAFF000EDF6E120068C09A
:1011C000D9FF69C0DAFFDF5000016A6F6A512C6EE7
:1011D0002D6A20EE07F06851D9266951DA22DECF58
:1011E0002EF0DDCF2FF0E8EC0DF02CC060F02DC01C
:1011F00061F0000E0001636F640E626F65EC0BF02E
:1012000060C06FF061C070F0000120EE01F0685125
:10121000D9266951DA22DF50D8B42DD020EE06F05D
:101220006851D9266951DA22DF506A6F010E6B6F5F
:101230006A2B02D0D8906B376A2FFCD700016B5114
:101240008A108A6E20EE07F06851D9266951DA2299
:10125000DECF6AF0DDCF6BF06FC06CF070C06DF068
:101260006C1F6D1F6C4B6D2B6A516C256F6F6B5132
:101270006D21706F15D020EE06F06851D9266951A6
:10128000DA22DF506A6F010E6B6F6A2B02D0D890A2
:101290006B376A2FFCD700016B51FF0A8A148A6EE4
:1012A00020EE02F06851D9266951DA22DECF6AF0C9
:1012B000DDCF6BF06AC0D9FF6BC0DAFF6F45E8463F
:1012C000FC0BDF6E20EE04F06851D9266951DA225A
:1012D000DECF6AF0DDCF6BF06AC0D9FF6BC0DAFFFA
:1012E0006FC06CF070C06DF0060E6E6F6D356D33B3
:1012F0006C336E2FFBD76C51DF6E1200CFC0ABF09A
:10130000D0C0ACF0D1C0ADF0D2C0AEF0010E000143
:10131000AA6FF40EA96F21EC0CF02CC0ABF02DC01D
:10132000ACF0E6EC0BF02CC0ADF02DC0AEF0000E32
:10133000696E000E686E000E676E000E666E000E1F
:10134000306E010EBDEC0DF0210EE82EFED700F040
:10135000000E306E020EBDEC0DF0060E0001806F27
:10136000300EE82EFED7802FFCD700F0010EA2EC45
:101370000DF02D0E0001606F030E616F5CEC0CF040
:10138000020EA2EC0DF0810E0001676F000E686F77
:101390000C0E696F030E6A6FABC06BF0ACC06CF0E3
:1013A000ADC06DF0AEC06EF08FEC07F0810E0001A5
:1013B000606F000E616F5CEC0CF00001AB51A95D39
:1013C000AC51AA59D8B008D0AD51A95DAE51AA59B7
:1013D000D8B002D0020E12007CC071F07DC072F055
:1013E0007EC073F07FC074F01CEC0BF0000E120096
:1013F0002F6E2F502C6E2D6A070ED8902C362D365E
:10140000E82EFBD7070E2E6E2D342D322C322E2EC9
:10141000FBD72C468B502C18FD0B2C188B6E2F50A5
:101420002C6E2D6A060ED8902C362D36E82EFBD762
:10143000070E2E6E2D342D322C322E2EFBD72C463D
:101440002C468B502C18FB0B2C188B6E2F502C6EAF
:101450002D6A050ED8902C362D36E82EFBD7070EB8
:101460002E6E2D342D322C322E2EFBD78C502C1874
:10147000FE0B2C188C6E2F502C6E2D6A2C3A2D3AA8
:10148000F00E2D162C500F0B2D12F00E2C16070EF1
:101490002E6E2D342D322C322E2EFBD72C468C5016
:1014A0002C18FD0B2C188C6E3CEC0EF0030EE82E65
:1014B000FED700F01200929C949094929494959090
:1014C0009592270E0001606FF50EE82EFED7602F73
:1014D000FCD7030EF8EC09F00D0E0001606FFB0E57
:1014E000E82EFED7602FFCD700D0030EF8EC09F0F1
:1014F000850EE82EFED700F0030EF8EC09F0210E61
:10150000E82EFED700F0020EF8EC09F0210EE82ECE
:10151000FED700F0000E306E280EBDEC0DF0210E4F
:10152000E82EFED700F0000E306E080EBDEC0DF078
:10153000210EE82EFED700F0000E306E010EBDEC3D
:101540000DF00D0E0001606FFB0EE82EFED7602F30
:10155000FCD700D0000E306E060EBDEC0DF0210E53
:10156000E82EFED700F0000E306E0C0EBDEC0DF034
:10157000210EE82EFED700F01200FACF05F0FBCFC7
:1015800006F0E9CF07F0EACF08F0E1CF09F0E2CFAB
:101590000AF0D9CF0BF0DACF0CF0F3CF0DF0F4CF87
:1015A0000EF0F6CF0FF0F7CF10F0F8CF11F0F5CF27
:1015B00012F034C013F035C014F036C015F037C047
:1015C00016F0F2A20DD03228D8A403D0010E326E4C
:1015D00003D03250D8A43268020E6BEC0DF0F292B8
:1015E000F2A404D00101F74BF82BF29416C037F0A7
:1015F00015C036F014C035F013C034F012C0F5FF3A
:1016000011C0F8FF10C0F7FF0FC0F6FF0EC0F4FFC7
:101610000DC0F3FF0CC0DAFF0BC0D9FF0AC0E2FF18
:1016200009C0E1FF08C0EAFF07C0E9FF06C0FBFFF1
:1016300005C0FAFF3492110028D071C0D9FF72C0E2
:10164000DAFFDF50D8B405D071C0D9FF72C0DAFF1D
:10165000DF0673C0D9FF74C0DAFFDF50D8B405D0FD
:1016600073C0D9FF74C0DAFFDF0671C068F072C0C2
:1016700069F0DFEC08F073C068F074C069F0DFEC6B
:1016800008F0210EE82EFED700F071C0D9FF72C01D
:10169000DAFFDF50D8A4D1D773C0D9FF74C0DAFF06
:1016A000DF50D8A4CAD7000120EE01F07151D9262D
:1016B0007251DA22010EDF6E20EE01F07351D9264D
:1016C0007451DA22010EDF6E1200000E0001656F08
:1016D00063AF06D0626D631FD8B0632B010E656FD8
:1016E00061AF06D0606D611FD8B0612B010E651B24
:1016F000000E676F000E666F62516311D8B41CD084
:10170000010E646F04D0D89062376337642B63AFE7
:10171000FAD7D890663767376251605D6351615977
:10172000D8A005D06251605F6351615B6681D8903B
:1017300063336233642FEDD76551D8B404D0666D3E
:10174000671FD8B0672B66C060F067C061F01200F9
:101750002BD071C0D9FF72C0DAFF00017551DE5C79
:10176000D8B005D071C0D9FF72C0DAFFDF2A73C0CC
:10177000D9FF74C0DAFF7551DE5CD8B005D073C0F4
:10178000D9FF74C0DAFFDF2A71C068F072C069F057
:10179000DFEC08F073C068F074C069F0DFEC08F0AB
:1017A000210EE82EFED700F071C0D9FF72C0DAFF1B
:1017B00000017551DE5CD8A0CCD773C0D9FF74C0CE
:1017C000DAFF7551DE5CD8B01200C3D7000E0001FD
:1017D000616F000E606F000E626F000E626F030E8D
:1017E000626501D01FD069502E6E2F6A070ED89007
:1017F0002E362F36E82EFBD768CF30F0D890303217
:1018000030502E12000E2F122E5060272F506123C1
:10181000820E2E6EDE0EE82EFED72E2EFCD7000195
:10182000622BDDD760C02EF061C02FF0D8902F3230
:101830002E32D8902F322E322EC02CF02FC02DF009
:101840001200000E0001616F000E606F000E626FEB
:10185000000E626F030E626501D01FD067502E6EBE
:101860002F6A070ED8902E362F36E82EFBD766CF7C
:1018700030F0D890303230502E12000E2F122E50F1
:1018800060272F506123820E2E6EDE0EE82EFED7CB
:101890002E2EFCD70001622BDDD760C02EF061C078
:1018A0002FF0D8902F322E32D8902F322E322EC0D9
:1018B0002CF02FC02DF012001BD0010E306E60C036
:1018C000F6FF61C0F7FFF86A020EF76403D0080064
:1018D000F55005D0F6CFE1FFF7CFE2FFE750BDECC2
:1018E0000DF00001604B612B210EE82EFED700F0B9
:1018F00060C0F6FF61C0F7FFF86A020EF76403D01C
:101900000800F55005D0F6CFE1FFF7CFE2FFE75032
:101910000009D8B41200D1D7000E0001626F000E8A
:10192000616F2E502F10D8B41CD0010E606F04D000
:10193000D8902E362F36602B2FAEFAD7D89061373D
:1019400062372E502C5C2F502D58D8A005D02E5029
:101950002C5E2F502D5A6181D8902F322E32602F5D
:10196000EDD761C02CF062C02DF01200000165516E
:101970006611D8B418D0010E306E04D0D8906537F7
:101980006637302A66AFFAD76551635D6651645990
:10199000D8A004D06551635F6651645BD89066330C
:1019A0006533302EF1D763C063F064C064F0120079
:1019B000000120EE01F07751D9267851DA22000E8D
:1019C000DF6E20EE01F07951D9267A51DA22000E2D
:1019D000DF6E77C071F078C072F079C073F07AC0B2
:1019E00074F07BC075F0A8EC0BF01200000120EE43
:1019F00001F07751D9267851DA22000EDF6E20EE01
:101A000001F07951D9267A51DA22010EDF6E77C0C2
:101A100071F078C072F079C073F07AC074F07BC056
:101A200075F0A8EC0BF01200000120EE01F07751E8
:101A3000D9267851DA22010EDF6E20EE01F07951BD
:101A4000D9267A51DA22000EDF6E77C071F078C0A5
:101A500072F079C073F07AC074F07BC075F0A8ECB6
:101A60000BF01200000E7F6E800E7E6E6F0E6F6E9A
:101A7000000E6E6EC70E7B6E000E7A6E000E796ED3
:101A8000000E786E000E776E000E766E9390939235
:101A9000939493968A908A928A948A9612002D6ED5
:101AA000000E2F6E000E2E6E000E2F6E010E2E6E8B
:101AB00009D0820E2C6EDE0EE82EFED72C2EFCD71F
:101AC0002E4A2F2A2D50020D2E50F35C2F50F45821
:101AD000D8A01200EED7026E000E046E000E036E48
:101AE000000E046E010E036E09D0820E016EDE0E32
:101AF000E82EFED7012EFCD7034A042A0250020D1D
:101B00000350F35C0450F458D8A01200EED702EE54
:101B100000F0960EEE6AE806FDE101EEE3F0170E26
:101B2000EE6AE806FDE100EECBF0080EEE6AE8068C
:101B3000FDE1336A326A34903492000EF86E00018F
:101B4000A8EF01F00001606F00016005D8A406D085
:101B5000000E306E800EBDEC0DF00AD0020E0001BA
:101B60006019D8A405D0000E306EC00EBDEC0DF08B
:101B7000210EE82EFED700F01200316E30B002D0F8
:101B8000899C01D0898C31380F0B0F0BF8EC09F0D0
:101B9000060EE82EFED700D031500F0BF8EC09F0FE
:101BA000210EE82EFED700F012002D6E2D50D8A485
:101BB00006D02CB002D08D9001D08D8012002D0463
:101BC000D8A412002CB002D08D9201D08D821200C8
:101BD0002C502E02F3CF30F0F4CF31F02C502F02E6
:101BE000F35031262D502E02F350312630C02CF008
:101BF00031C02DF012008994899692849286B8940F
:101C0000B896B89CB89E060E636E060E626E9690ED
:101C10009692590EB76E12002E6E000E2D6E3A0E71
:101C20002E6005D02F0E2E6402D0010E2D6E2DC019
:101C30002CF02C3012009450C009946ECD0EAF6E73
:101C4000000EB06EAA86AC84AB88AB8EAC98AB9C11
:101C50001200D59ED58CD59AD596D550F80B020991
:101C6000D56EF28A1200000E306E000E2F6E000E3E
:101C70002E6E000E316E12008B80030EE82EFED702
:061C800000F08B90120041
:020000040020DA
:08000000FFFFFFFFFFFFFFFF00
:020000040030CA
:0E000000FFC80F3E3C1D81FF0FC00FE00F40F8
:00000001FF
